:020000040800F2
:20000000000400209D0100089F0100089F0100089F0100089F0100089F0100089F01000826
:200020009F0100089F0100089F0100089F0100089F0100089F0100089F0100089F01000880
:200040009F0100089F0100089F0100089F0100089F0100089F0100089F0100089F01000860
:200060009F0100089F0100089F0100089F0100089F0100089F0100089F0100089F01000840
:200080009F0100089F0100089F0100089F0100089F0100089F0100089F0100089F01000820
:2000A0009F0100089F0100089F0100089F0100089F0100089F0100089F0100089F01000800
:2000C000E502000855080008BD02000872B6244880F30888234880F30988022080F31488CE
:2000E000BFF36F8F00F045FA00F0A2FB1E481F491B4A914202DA08600431FAE71C49194A6C
:20010000914202DA08600431FAE71A491A4A1B4B9A4204DA0868106004310432F8E7002081
:200120001749184A914202DA08600431FAE700F023FA00F01FFA144C144DAC4203DA2168A5
:2001400088470434F9E700F0A7FB114C114DAC4203DA216888470434F9E70F490847000089
:200160000004002000080020555555550000002000040020200C0008000800200008002017
:200180000008002030100020C0000008C8000008C8000008CC0000087705000896E700F0AA
:2001A00000F8FEE7002243088B4274D303098B425FD3030A8B4244D3030B8B4228D3030C00
:2001C0008B420DD3FF22090212BA030C8B4202D31212090265D0030B8B4219D300E0090AAB
:2001E000C30B8B4201D3CB03C01A5241830B8B4201D38B03C01A5241430B8B4201D34B03EE
:20020000C01A5241030B8B4201D30B03C01A5241C30A8B4201D3CB02C01A5241830A8B4245
:2002200001D38B02C01A5241430A8B4201D34B02C01A5241030A8B4201D30B02C01A524120
:20024000CDD2C3098B4201D3CB01C01A524183098B4201D38B01C01A524143098B4201D346
:200260004B01C01A524103098B4201D30B01C01A5241C3088B4201D3CB00C01A5241830870
:200280008B4201D38B00C01A524143088B4201D34B00C01A5241411A00D2014652411046C4
:2002A0007047FFE701B5002000F006F802BDC0460029F7D076E770477047C04610B5064C40
:2002C0002378002B07D1054B002B02D0044800E000BF0123237010BD00080020000000009C
:2002E000200C0008044B10B5002B03D00349044800E000BF10BDC046000000000408002082
:20030000200C000880231D4A9B02516910B50B4353619023DB0519681948014019608021B1
:200320001C680903214319605968164C21405960D9680140D960D968D960996801409960A3
:2003400080219868C9020143F0209960596A814359621021586A0143596280239169DB0137
:200360000B43E12193619369074B4902D868FFF719FF0922054BD8601A6010BD0010024006
:20038000FFFFF3FFFFFDFFFF1C080020003801408022044BD9691142FCD080B21885002075
:2003A0007047C04600380140F0B505000E001F00002487B0019228003100FFF779FF030078
:2003C0000800C2B229001D0013003733DBB2092801D83032D3B202AA013403321355B142EF
:2003E000E9D22500019B9D4209D3013C03ABE05CFFF7CEFF002807D1002CF6D105E03800CC
:20040000FFF7C6FF002802D00C2007B0F0BD0135E8E7F7B503000C0018785A1C0092002817
:2004200073D0252802D0FFF7B3FF3BE05E78302E14D1023300930025009B18785A1C0300ED
:20044000303BDBB20092092B03D92A2808D108CCDBB20A214D435D191300EEE72026EAE746
:200460002E280BD11078531C0200303A0093092A02D92A2802D104341A00F3E763282FD06B
:2004800013D841284CD003D82528CCD0009BC3E7532828D05828F9D133002A00102101CCCB
:2004A000FFF782FF0028F1D02FE073281BD011D8642801D06928E9D180CC002F05DA2D200F
:2004C000FFF766FF002820D17F4233002A000A213800E5E77528D9D133002A000A21DEE7C7
:2004E00001CCC0B29FE72768380000F0B9F90190002F02D03878002802D1019BED1A0BE003
:200500000137FFF745FF0028F2D0F7BD3000FFF73FFF013D0028F8D1002DF7DC0434B5E764
:20052000002563682768A6680193019B9D4201DB0C34ABE7002D09D1302302221021785DED
:20054000FFF732FF0028E0D10135EEE7002EF3D0F0B2FFF71DFF0028EED0D6E70FB407B5C9
:2005600004A901C90191FFF754FF03B008BC04B0184770477047FEE7F0B5082000240E4904
:200580004A680E6815008B68AB4210D8D51E0026AB4203D303339B1A9B089E00CB68921970
:2005A000934207D8013810310028E9D1F0BD80CE80C5E9E710C2F3E7E40A0008402330B531
:2005C000094C411865692B4363610824074B9C601A61074A5A61884202D1186880B230BD30
:2005E000027801301A70F6E7001002400030024021100000F7B500220300012103250426AF
:2006000001920B4AD46828000C4206D1D4680800344202D1D06800090840019C671C01979B
:200620009C4202D20328EDD0FEBD0220FCE7C04600200240024B034A5A60034A5A607047E6
:200640000020024023016745AB89EFCD10B50448FFF7D0FF8023034A11690B43136110BDA9
:2006600040420F000020024070B505000B48FFF7C1FF002811D10223094C2269134323616B
:2006800040236561226913432361C0460348FFF7B1FF2369034A1340236170BD40420F0067
:2006A00000200240FD1F000070B506000D480C00FFF7A0FF002814D101230B4D09482A692E
:2006C00013432B61A3B23380FFF794FF002804D1240C04487480FFF78DFF2B69034A134084
:2006E0002B6170BD40420F0000200240FE1F0000F7B5140007000E00FFF7A8FFFFF79AFF30
:2007000034220F4B2000DA60FFF7AEFF051E08D10336B608B600331926000193019B9E4201
:2007200003D1FFF793FF2800FEBD3B1B30009959FFF7BAFF002801D10436EFE70500F0E76D
:20074000002002401E4A10B550680007800F02280AD0032831D00138431E9841194B404233
:200760001840194BC01810BD0F20D16A536801409B0C034001319C1C834200D11024536859
:20078000C022802052021340400283420DD008D8002B10D080220D481202934206D0604308
:2007A000E1E7934205D00948F9E70748FFF7FAFCF5E70748FAE70748F1E70548D3E7C0461B
:2007C0000010024000F7C2FF001BB70000127A00006CDC0200093D00F0B5040087B0124EE1
:2007E000124F02AD31001022280000F061F97B6820001B061B0FED5CFFF7A4FF3100E8408B
:200800000822A06005001031684600F051F96A467B685B055B0FD35CDD405A1E9341013357
:20082000E560237407B0F0BDCC0A0008001002400122074B19680A431A6002221968114293
:20084000FCD0012299690A439A619B697047C046001002400122014B1A7470471C08002054
:2008600003001A78002A01D1181A70470133F8E7064B10B51C6806482100FFF76FFE054B2F
:200880001B6883F30888A04710BDC04604200008640B000800200008F0B585B072B6BF2366
:2008A000664C5B04A26A664E1343A362A36A654A30001340A362A36A2269634B13432361A8
:2008C0002369624A134023612369E268604B1343E360E3685F4A1340E360E36810235E4A3F
:2008E00011680B431360FFF777FFFFF70BFD5B4A5B495C48FFF732FEF0685B49FFF752FC01
:2009000059490500B068FFF74DFC584B01002A001800FFF723FE80236269DB021A43626171
:20092000534C5449226854480A40226022681A432260626802406260626850486260E268E4
:200940000A40E260E268E260A2680A40A260A2681343A36080239B00A361494B1D68494BD7
:2009600029001E683200FFF7F9FDD0231B029D4201D9FFF77DFF290000224348FFF71EFE87
:200980000100B04204D04148FFF7E8FDFFF770FF3F48FFF7E3FD3C4B03353E4FAD080193D5
:2009A0003D4E002D13D13D48FFF7D8FD01235B4208213000324A33607360FFF799FE011EA3
:2009C00002D03748FFF7CAFDFFF752FF1AE0802303959B009D4200D9039332000399019B3A
:2009E00089000291C91801CB01C28B42FBD13A0030000299FFF77CFE002812D039002948A9
:200A0000FFF7ACFD80229200274B1900013B0029FBD1254BA2621900013B0029FBD1A26186
:200A2000F2E72248FFF79AFD029A019B944663440193039BBF18ED1AB2E7C046001002402C
:200A40001C080020FFFF81FE3349EE7ACCB61185015A4700FEA5B8FF00200240770B0008F1
:200A6000850B00088E0B000840420F00960B000800040048FFFFF3FFFFFDFFFFB40B000806
:200A800000F0000804F0000800F80008CB0B0008DD0B00080020000830080020FD0B000804
:200AA000080C0008E50B0008A0860100FB0B0008002310B59A4200D110BDCC5CC454013317
:200AC000F8E7FFFFF8B5C046F8B5C0460000000000000000010203040607080900000000AB
:200AE00001020304200C0008301000203010002030100020200C0008000000000000000064
:200B000000000000200C0008000000000000000000000000200C000800000000000000006D
:200B200000000000200C0008000000000000000000000000200C000800000000000000004D
:200B400000000000200C0008000000000000000000000000200C000800000000000000002D
:200B6000000000004A756D70696E6720746F203078253038580D0032303233303230355FF1
:200B8000323034380046303732426F6F74000D25532025530D00414842467265713D2575BA
:200BA0004D487A3B20415042467265713D25754D487A0D004677537A3A2025753B206372C9
:200BC000633A203078253034580D00435243204572726F723A20307825580D0A0043726312
:200BE000206F6B0D000D57726974654661696C206174203078253038580D002E000D5772A7
:200C0000697465206F6B0D00457261736520506172616D73204661696C3A2025750D00007A
:200C2000FFFFFFFFFFFFFFFFFFFFFFFFFFFFFFFFFFFFFFFFFFFFFFFFFFFFFFFFFFFFFFFFD4
:200C4000FFFFFFFFFFFFFFFFFFFFFFFFFFFFFFFFFFFFFFFFFFFFFFFFFFFFFFFFFFFFFFFFB4
:200C6000FFFFFFFFFFFFFFFFFFFFFFFFFFFFFFFFFFFFFFFFFFFFFFFFFFFFFFFFFFFFFFFF94
:200C8000FFFFFFFFFFFFFFFFFFFFFFFFFFFFFFFFFFFFFFFFFFFFFFFFFFFFFFFFFFFFFFFF74
:020000040800F2
:20200000C802002001220008212400084D380008032200080322000803220008032200081D
:20202000032200080322000803220008032200080322000803220008032200080322000838
:202040000322000803220008032200080322000803220008D1390008053A0008393A0008CB
:2020600003220008A5300008892D0008B12D000803220008032200080322000803220008FE
:20208000032200080322000803220008152F0008B9330008032200080322000803220008F2
:2020A000032200080322000803220008C1440008054500084945000803220008032200084A
:2020C0000124000895340008213F0008854A0008614B00080959000871640008D9230008C4
:2020E000F0B544464D4656465F46F0B46B46CB60C3689D46F0BCA046A946B246BB46F0BD28
:2021000000F0CAF962B6281CA047002000F0A8FCFEE700F0B1F900F057FB00F0BDF9024A62
:20212000024B1360FEE7C04604ED00E00000008072B6244880F30888234880F3098802207B
:2021400080F31488BFF36F8F00F0F2FD01F092FE1E481F491B4A914202DA08600431FAE700
:202160001C49194A914202DA08600431FAE71A491A4A1B4B9A4204DA086810600431043238
:20218000F8E700201749184A914202DA08600431FAE700F0D1FD00F0CCFD144C144DAC422B
:2021A00003DA216888470434F9E704F025F8114C114DAC4203DA216888470434F9E70F4973
:2021C00008470000C8020020C804002055555555C8000020C802002054740008C8040020F8
:2021E0001C0500202005002014340020C0200008DC200008DC200008E0200008352D00088F
:2022000096E700F000F8FEE702B4714649084900095C49008E4402BC7047C0460022430805
:202220008B4274D303098B425FD3030A8B4244D3030B8B4228D3030C8B420DD3FF220902D0
:2022400012BA030C8B4202D31212090265D0030B8B4219D300E0090AC30B8B4201D3CB03A6
:20226000C01A5241830B8B4201D38B03C01A5241430B8B4201D34B03C01A5241030B8B4242
:2022800001D30B03C01A5241C30A8B4201D3CB02C01A5241830A8B4201D38B02C01A52411F
:2022A000430A8B4201D34B02C01A5241030A8B4201D30B02C01A5241CDD2C3098B4201D342
:2022C000CB01C01A524183098B4201D38B01C01A524143098B4201D34B01C01A52410309ED
:2022E0008B4201D30B01C01A5241C3088B4201D3CB00C01A524183088B4201D38B00C01A8F
:20230000524143088B4201D34B00C01A5241411A00D20146524110467047FFE701B50020B6
:2023200000F006F802BDC0460029F7D076E770477047C046002B11D1002A0FD1002900D118
:20234000002802D00021C943080007B4024802A14018029003BDC046D9FFFFFF03B46846BB
:2023600001B5029804F006FA019B9E4602B00CBC7047C04610B5002903D100F007F8203061
:2023800002E0080000F002F810BDC0461C2101231B04984201D3000C10391B0A984201D340
:2023A000000A08391B09984201D30009043902A2105C40187047C046040302020101010186
:2023C00000000000000000000023C25C0133002AFBD1581E7047000010B5064C2378002B88
:2023E00007D1054B002B02D0044800E000BF0123237010BD20050020000000005474000834
:20240000044B10B5002B03D00349044800E000BF10BDC04600000000240500205474000887
:20242000EFF30983203383F3098862B670470000024A0349136A0B401362704700ED00E0AC
:20244000FFFF00FF10B50F300FD072B6EFF30984203C84F3098880235B04E36100F0A8F9CA
:20246000024B002800D1024BA36110BD132100081E2100087047000010B5054C636DA26DC9
:20248000134302D0034800F035FA0123A36510BD3C050020806A000810B5064C636D002B4C
:2024A00002D1A36D002B02DC034800F023FA0023A36510BD3C050020856A000810B5064C71
:2024C000636D002B02DDA36D002B02D0034800F011FA0123A36510BD3C0500208A6A000879
:2024E00010B5064C636D002B02DDA36D002B02DC034800F0FFF90023A36510BD3C05002046
:202500008F6A000810B572B6074C636D002B02DBA36D002B02D0054800F0ECF9636D01336F
:20252000636562B610BDC0463C050020946A000810B572B6074C636D002B02DDA36D002B2C
:2025400002D0054800F0D6F9636D013B636562B610BDC0463C050020996A0008054B10B55D
:202560005A6D002A02DB9B6D002B02DC024800F0C1F910BD3C0500209E6A0008054B10B535
:202580005A6D002A02D19B6D002B02DC024800F0B1F910BD3C050020A46A0008FEE7000059
:2025A000F0B500250400194B87B05860056281620E00FFF73DFF230010332361636101239E
:2025C000012721005B42124AA3612C31200024606460A5606562A58325656565A7658133E8
:2025E00000F0B2F97368E06043610A4B07760093F36868460193336903970293064B0595C9
:20260000049300F0E7F907B0F0BDC04650060020AA6A0008AF6A00089D250008024A536A63
:20262000034353627047C0463C05002000238268037603691B6899689142FBD25A68036046
:20264000426010605860704700238268037603691B6899689142FBD85A68036042601060A6
:202660005860704770B50C0072B6FFF727FF207E052807D8FFF7C8FD0C06060316100022AE
:20268000E3691A6001235B422000E361FFF7CEFFFFF726FF62B670BDE569FFF75FFFAB6877
:2026A0000133AB606268236813605A60EAE7000010B50400FFF752FF002C02D1034800F03E
:2026C00019F92000FFF7B2FF10BDC046C36A000870B505000C4CE668FFF750FF35762568CC
:2026E0002B685C6023600123E5602B76EFF309837269243B9A4202D9044800F0FBF831003F
:202700002800FFF7EDFC70BD3C050020B46A000870B50D000F4B86B0DE680400FFF72EFFCF
:202720006B1C13D0330029000B4A684600F052FA2000FFF7CDFFFFF711FF009B002B02D014
:20274000684600F063FAF06906B070BD2000FFF7BFFFF8E73C05002065260008F8B50400EA
:202760000D00114EF768FFF709FFA268BB68E5619A4203D82000FFF759FFF8BD3800FFF715
:2027800063FF012305002376F460EFF309834269243B9A4202D9054800F0ACF82900200068
:2027A000FFF79EFCE9E7C0463C050020B46A0008044BDA68196890688B6898428041404212
:2027C0007047C0463C0500200D4B70B51C68D868226853601A6001222276DC60FFF734FFC3
:2027E0000500EFF309834269243B9A4202D9054800F080F829002000FFF772FC70BDC04610
:202800003C050020B46A000870B5064CE568FFF7B5FE23689A68AB689A4201D9FFF7D4FFA5
:2028200070BDC0463C05002070B504000D00002801D0002902DA034800F05CF8A5602460B8
:20284000646070BDEE6A000870B504000D00FFF795FE002C02D10D4800F04CF80020A368B5
:202860005A1EA260824203DA854202D1A360013870BD074B6268DB682900DC611C605A603F
:20288000052013606360FFF743FFF1E7DC6A00083C05002010B50400FFF760FE002C02D102
:2028A000084800F027F8A3680133A360002B07DC2068036823605C600023C361FFF7F8FE04
:2028C00010BDC046CF6A0008012310B5064C07492370002306486360FFF762FE0223237084
:2028E000FFF7DAFD62B610BD50060020046B00083C05002072B60322024B1865024B1A70EA
:20290000FEE7C0463C0500205006002010B5FFF725FE00F0B9F910BD10B572B6FFF7ACFD1C
:2029200010BD10B5FFF7B8FD62B610BD10B5041E02D10448FFF7DEFF21000820FFF7E8FE77
:2029400010BDC046186B00088B6002230B83002308610B620800704710B50400FFF7FEFD09
:20296000002C02D11848FFF7C5FF072162680A4207D1A3680B4204D19A4202D29B1AA72BC4
:2029800002D81148FFF7B6FFE368FF2B02D82369002B02D10C48FFF7ADFFA368626818009D
:2029A0002838426122694C3BC3601A6162695A61064A1A62E368064A8360022303760023D3
:2029C00002614376036210BD366B0008012100083C05002010B5FFF7BFFFFFF769FE10BDD2
:2029E000F8B505000C0016001F00002809D0A72907D903000B435B0703D1FF2A01D8002F7B
:202A000002D10F48FFF776FF283C2C19FFF784FF2300069A243B6561E3605A61094A1F6146
:202A20001A62022300212383074B2000A66023612162FFF793FEFFF774FF2000F8BDC046E4
:202A4000246B0008012100083C05002010B5034BDB68D8610F20FFF73BFE10BD3C05002039
:202A600010B50400FFF758FF2000FFF7EFFF10BD10B50400FFF750FF2000FFF757FFFFF7FF
:202A800050FF10BD10B503689C68A2420CD85C688A600B604C602160596099688A1A9A6080
:202AA00001235B42836010BD1B68121BECE70000F8B5802305000C005B02994217D3114C42
:202AC0000227281980B200F0DBF900F0C3F9451BADB20600A5420ED380237C1C5B029C42E7
:202AE00002D30948FFF706FF27003500E9E70229E6D20224E4E7022F02D90120FFF78EFD07
:202B0000F8BDC046FFFF0000596B0008F8B5194B140099838260184A0D0042601A69026017
:202B20005060186180235B029C4218D3134C2819802780B200F094F902267F0200F08AF991
:202B4000401B80B284420ED80136BE4202D30C48FFF7D0FEA81980B200F092F9EEE7022CA7
:202B6000E5D20224E3E7022E02D90120FFF756FDF8BDC0463C0500204C050020FFFF0000AE
:202B8000596B0008F8B505000C0000F063F90F4B0F4F1A69BA4205D1010022002800FFF711
:202BA000B5FFF8BD9B8BC31A9BB2E618B34200D926009368B34202D92100FFF779FF3200DE
:202BC00029003800FFF75EFFEBE7C0463C0500204C050020F8B504000D0016001F00FFF7AE
:202BE000BDFC002C03D0002E01D0002D02D10648FFF780FE002329002761E660200063615E
:202C0000FFF7C0FFF8BDC046646B000870B50400FFF7A4FC002C02D11848FFF76BFE184D8B
:202C20002B699C420CD023686268A16813605A609A6852189A6000232360013BAB6170BD3A
:202C40002368104A2B615A60002323602B69934202D100F00FF9F2E79A68A16852189A6027
:202C600000F0F8F8AB8B2A69C31A91689BB29942E5D9C91AFFF71CFFE1E7C0464C6B00086E
:202C80003C0500204C050020F7B5FFF767FC264E346900F0DFF8B28BA168831A9BB2234FE3
:202CA000994239D85218236895B26268B58313605A60002323603369BB4201D100F0DAF8EA
:202CC000FFF70EFC62B62000E3682169984772B6FFF7F4FB6369002BD9D000F0BBF86269ED
:202CE000451BADB20190531BAA4203D20220FFF795FC00233269BA4205D11A002000019948
:202D0000FFF704FFF7BD5A19AA4200D21A0021003800FFF7B7FEBAE73269BA42F2D0C91ADA
:202D2000FFF7C6FEEEE7C0463C0500204C05002070477047FEE70000F0B5082000240E4991
:202D40004A680E6815008B68AB4210D8D51E0026AB4203D303339B1A9B089E00CB68921988
:202D6000934207D8013810310028E9D1F0BD80CE80C5E9E710C2F3E7706B000810B500F0EF
:202D800035F800F063F810BD10B57446FFF7BAFB054800F06BF9054800F068F9FFF7C8FBCC
:202DA0002000FFF74FFB10BD106C0008206C000810B57446FFF7A6FB084800F057F90848D8
:202DC00000F054F9074800F051F9074800F04EF9FFF7AEFB2000FFF735FB10BD306C000851
:202DE000406C0008506C0008606C0008144B154A996A10B50A43FC219A629A6AC9030A4081
:202E00009A629A6A1A69012252421A611A6900221A611A69D9680C4A0A438021DA60DA6859
:202E2000C9030A40DA60DA688022D96952050A43DA61DB6900F09AF8FFF71CFB10BDC04697
:202E400000100240FFFF81FFFFFFBFFF10B500F01DF810BD014B586A80B2704700200040F8
:202E60000022034B58631A610232DA607047C046002000400022014BDA6070470020004062
:202E8000014B58637047C046002000408023114A5B00D16910B51943D161D2690E4A91689C
:202EA0000B43FA2193600D4B8900D868FFF7B6F90B4B0C4A01389862DA6200229A615A63FB
:202EC000DA605A6001325A61022113201A6000F02DF810BD00100240005801401C11002026
:202EE00000200040FFFF0000094A10B51369D1680B40D9B2C94311619B0707D572B6FFF7B7
:202F0000DDFAFFF703FDFFF7EBFA62B610BDC0460020004010B57446FFF7F4FAFFF7E4FF82
:202F2000FFF706FB2000FFF78DFA10BD0322F0B5FF26C0250240D2009640890191400A4FBE
:202F400083089B00DB19AD005C591F22B4430C435C51012302409340C02240098000C01904
:202F6000520083500360F0BD00E100E0002201230848094910B5026042604C681031226033
:202F8000DC0001330251082BF7D10122034B52425A6010BD58060020006C00080000024013
:202FA000F0B585B00400029100920393FFF7D6FA062C0AD801221700A7401E4B19680F4242
:202FC00007D00025280005B0F0BD1B48FFF792FCF7E71A4E20010190351801340098E4008E
:202FE00039431960E050164903981C196060486902434A614A69009A002A0BD05B68AA68F5
:203000001A4203D1E87B0299FFF790FF094A53683B4353600F20019BF1184B68497B1A68F1
:2030200082431A60019AB0580E228A40426000221A60C7E758060020F06B0008006C000873
:2030400000100240F8B504000D0016001F0072B6FFF712FA3B00320029002000FFF7A0FFB6
:203060000400FFF719FA62B62000F8BD70B50268447B11680E25E140837B406829400068C4
:2030800001420BD00800A04001335060044ADB009C58002C02D0D2185068A04770BDC0466F
:2030A0005806002010B57446FFF72CFA0448FFF7DDFFFFF73DFA2000FFF7C4F910BDC04606
:2030C000006C000810B572B6FFF7F8F901210F200C4B1A6813688B4313600B4B1B68596828
:2030E0000A6882430A60597B1A680E238B405360064B1B68002B00D09847FFF7F1F962B684
:2031000010BDC0469C06002000110020980600208022194B9202596910B50A4390215A6151
:20312000C022C9050868920002430A608022D96992050A43DA61DB69104A114B09211A608D
:20314000022000230F4AFFF77DFF0F4B0F4C104A1860436820009A6000F072FA20000D4941
:2031600000F0B8FD702221684B689BB29343503A13434B6010BDC0460010024015100000E4
:2031800000740040C5300008001100209C06002010740040E0280100F0B585B001913D49CC
:2031A0003D4C0B60002303A90A704B708A70CB70FF21039A150A0D40E118160CE2548E706A
:2031C0000433160E4D70CE70B82BF5D100210D006318B83304311D705D709D70DD7030291A
:2031E000F6D115000023CF310D409C4600952B4B150A0D4001998C451FD11A000020B832AB
:2032000019000433087048708870C8709A42F7D1234B121B1A60234B1B685B68DC605A609B
:20322000214A1A6001221968114319601F4B1B6819680A431A6005B0F0BD190006B230316F
:20324000002E1BDA2C311E00009F04333770170CB770170E7570F7709942F4D10B000027C6
:2032600030330E00043137707770B770F7708B42F7D10121400080B28C44BBE71E00009F34
:2032800004333770170CB770170E7570F7709942F4D1E3E798060020A006002088070020F8
:2032A0000411002000110020922000009C0600200F200B4B1B6859680A6882430A60597BF6
:2032C0001A680E238B40012100205360054B1B681A688A431A60044A106159617047C046A9
:2032E000001100209C060020007400402B4B70B5186080232A4A9B025169C0200B435361C4
:203300009023DB051A68274C82431A608022196804250A4308211A605A68234E8A435A60F0
:20332000DA688243DA604022D9681143D960996881439960996820000A439A601A6A1B490E
:203340000A401A621A6A1A6200F07AF92368184A2000DA62174900F091FC02202023702128
:20336000B061336223689A6892B28A4310390A439A609A68593992B28A432A439A60326AD1
:20338000033D2A433262DA681043D8601420FFF7CDFD23681A6815431D6070BD08110020E3
:2033A000001002400C11002000400140FF0FFFFFFFFF000040420F00F7B57646FFF7A2F86A
:2033C00072B69527FFF77AF82A4B2B4C1B687F005D6B2A4BEB18BB420BD8102300222360BB
:2033E000274B1A60274B1A60FFF734FD264B18801AE02368013317D0234B00931B880193ED
:20340000FFF728FD019BC01A80B2032809D82B00C43BFF3BBB4210D91C4B0120ED18BD4207
:203420000CD901235B422360FFF75AF862B6FFF77FF83000FFF706F8F7BD00202368104AB9
:20344000102B03D1002801D102211160013B98400C4912680D68236028430860934205DC6B
:203460000B4B1B68002BDCD09847DAE7FFF7F2FC009BBCE70C110020C804002035F7FFFF87
:20348000141100201811002010110020E5FBFFFF081100200A4B0B4A10B51A600023A62074
:2034A0001900094C00011A190433117051709170D1708342F7D1054B054A1A6010BDC04636
:2034C0009C06002000140040A00600200C11002000400140402330B5094C411865692B4320
:2034E00063610824074B9C601A61074A5A61884202D1186880B230BD027801301A70F6E7B9
:2035000000100240003002402110000010B50C24064B07494A682240824204D0013B002B0D
:20352000F8D1022010BD0020FCE7C0460F2700000010024010B572B6FEF7C0FF10BD10B50F
:20354000FEF7CEFF62B610BD10B50C00FFF7F2FF236820001B689847FFF7F1FF10BD00004C
:20356000F0B50C009021C90588423BD180212F4D89026E693143696103216500A9400768A7
:20358000CE438F430221A94007600768394301600121A140002A45D142688A434260C26803
:2035A0003240C260C268C2608268324082600122AA4081680A438260A200072C02D92200F6
:2035C000083A92000721A14289410F2494409340494289004118086AA0430862086A034384
:2035E0000B62F0BD1249884204D180210F4DC9026E69BFE70F49884204D180210B4D090376
:203600006E69B7E70C49884204D18021074D49036E69AFE709498842AED18021034DC9033B
:203620006E69A7E7426811434160B8E7001002400004004800080048000C00480014004849
:203640000368254A934207D18022244B120199690A439A619B6909E08022D205934206D163
:2036600001221E4BD9690A43DA61DB6970471C4A934203D1194B0222D969F4E7194A93420D
:2036800003D1164B1022D969EDE7174A934203D1124B2022D969E6E7144A934204D180224B
:2036A0000E4B5200D969DEE7114A934204D180220A4B52029969CBE70E4A934204D18022B0
:2036C000064B92029969C3E70B4A9342CED18022024BD2029969BBE7002C0140001002406A
:2036E0000004004000100040001400400020004000400140004401400048014010B504002A
:20370000FFF79EFFC02322681B0253648023116820690B431360A3690138D362237D013B19
:2037200059424B41063303280BD8FEF76DFD021D242C91691B010B4393610123116A0B4308
:203740001362012353611168194311602E498A4203D08021C9058A421DD10223627D2189E9
:203760006068FFF7FDFE10BD91691B030B439361116A1023E3E7D1691B010B43D361802376
:20378000116A5B00DBE7D1691B030B43D3618023116A5B01D3E71D498A420BD190236068FA
:2037A0002189627DDB05984202D0194B984217D10123D6E717498A4208D1902360682189C3
:2037C000627DDB0598420BD10423CAE712498A4208D160682189627D9024E405A042C0D13B
:2037E0000023BEE70D4B9A4202D00D4B9A42BAD1902360682189627DDB05984201D1052384
:20380000AFE70223ADE7C046002C01400004004000040048002000400040014000440140F0
:20382000004801408021084A10B593688B4393600378002B00D110BDD4690C42FCD09BB2A3
:2038400013850130F4E7C0460038014010B50248FFF7E8FF01BEFEE7706C00083422014B2F
:20386000DA60704700200240F7B50190FFF7F2FA0126050003270C4B3C00DA68324206D160
:20388000DA683400520702D4DC6824093440FFF7E1FA019B401B80B2834203D9032CEAD01A
:2038A0002000FEBD0224FBE700200240024B034A5A60034A5A60704700200240230167457F
:2038C000AB89EFCD10B52D20FFF7CEFF8023024A11690B43136110BD0020024070B505009F
:2038E0002D20FFF7C1FF002811D10223084C22691343236140236561226913432361C04649
:203900002D30FFF7B1FF2369024A1340236170BD00200240FD1F000070B506002D200C00C6
:20392000FFF7A2FF002814D101230A4D2D302A6913432B61A3B23380FFF796FF002804D106
:20394000240C74802D30FFF78FFF2B69024A13402B6170BD00200240FE1F0000F7B5033117
:20396000140001908E0872B6FEF786FDFFF7AAFFFFF79CFF3422134B2000DA60FFF7AEFF8B
:20398000051E13D1B600331926000093009B9E420FD0019B30001B1B9959FFF7BDFF071E40
:2039A0000ED0094800F020FC3D0002E0074800F01BFCFFF787FFFEF76FFD62B62800FEBD7F
:2039C0000436E3E7002002408F6C00087C6C000810B57446FEF796FDFFF7ACFD074B1B6813
:2039E000002B00D098470322054B5A61FFF7A7FDFEF79EFD2000FEF725FD10BD301100202E
:203A00000004014010B57446FEF77CFDFFF792FD074B1B68002B00D098470C22054B5A6107
:203A2000FFF78DFDFEF784FD2000FEF70BFD10BD341100200004014010B57446FEF762FD29
:203A4000FFF778FD074B1B68002B00D09847064B064A5A61FFF773FDFEF76AFD2000FEF719
:203A6000F1FC10BD3811002000040140F0FF00008023094A5B0211680B4380211360074B6F
:203A800089021068084204D1013B002BF9D1012070470020FCE7C046001002400F2700006A
:203AA0000123084A11680B4302211360064B1068084204D1013B002BF9D101207047002022
:203AC000FCE7C046001002400F2700008023094A5B0411680B4380211360074B89041068EE
:203AE000084204D1013B002BF9D1012070470020FCE7C046001002400F27000080230F4A11
:203B00005B02516B82B00B43536300230C490193019B8B420BD980210A4B8902506B084277
:203B200009D1013B002BF9D1012002B07047019B01330193ECE70020F7E7C0460010024063
:203B4000E60300000F2700001E4A10B550680007800F02280AD0032831D00138431E984128
:203B6000194B40421840194BC01810BD0F20D16A536801409B0C034001319C1C834200D12E
:203B800010245368C022802052021340400283420DD008D8002B10D080220D48120293425E
:203BA00006D06043E1E7934205D00948F9E70748FEF734FBF5E70748FAE70748F1E70548F6
:203BC000D3E7C0460010024000F7C2FF001BB70000127A00006CDC0200093D00F0B5040084
:203BE00087B01C4E1C4F02AD31001022280002F02DFF7B6820001B061B0FED5CFFF7A4FF31
:203C00003100E8400822A06005001031684602F01DFF6A467B68FA215B055B0FD35C8900EF
:203C2000DD405A1E9341013323740C4BE560D868FEF7F4FA01220A4B013819689143196012
:203C4000596A98625A61596219680A431A6007B0F0BDC046686A0008001002401C11002006
:203C600000200040034B044A5B68D0685B0500D540007047001002401C11002070B50D0050
:203C8000046805482100FFF7EDFF2900FEF7C6FA0138A06270BDC0461C11002070B504683E
:203CA0000D0021000A48FFF7DDFFE16A0131FEF7B5FA29000600FEF7B1FA00231A00AE4295
:203CC0005A41801AA06263620133636170BDC0461C11002070B504680D0021000948FFF76A
:203CE000C1FFA16A0131FEF799FA29000600FEF795FA00231A00AE425A41801AE062636223
:203D000070BDC0461C110020054810B54368054C120223401A4309011143416010BDC0466F
:203D2000001002400FF8FFFF032370B51C4D02006C6808009C43023B032909D8FEF764FA1E
:203D4000020F1A251000FFF7ABFE002802D00123180070BD6C60FFF7D9FB0300F8E7100079
:203D6000FFF786FE02230028F2D1013B23436B600430F0E71000FFF7A9FE04230028E7D18D
:203D8000023B23436B600830E5E71000FFF7B6FE0028DCD1032323436B600C30DBE7C046C7
:203DA0000010024030B50C4C01202368DB0112D40F250139E06A0B1CC9B2A843A94200D9FD
:203DC0002B1CDBB203430020E3626368034992040B401A43626030BD00100240FFFFC3FF4E
:203DE0000D4B002904D15A680C490A405A607047012906D1094A59681140802212020A4332
:203E0000F4E7022905D1054A5968114080225202F5E7C0225968FAE700100240FF7FFEFF42
:203E200030B501242200054B054D18680243A94201D80200A2431A6030BDC0460020024075
:203E400000366E0170B5084D0849E868FEF7E6F904000649A868FEF7E1F9054B0100220029
:203E6000180000F0ABF970BD1C11002040420F00A26C00080122074B19680A431A60022294
:203E800019681142FCD0012299690A439A619B697047C0460010024070B504002600A436D9
:203EA0000D00FEF75BFBB3680220002B36DDFEF755FB210094310A68B3681000013BB36018
:203EC0006B782E781B023343AE78083036041E43EB7808601B0633431E0A137056701E0CD0
:203EE0001B0E9670D3706B792E791B023343AE7936041E43EB791B0633431D0A1371557104
:203F00001D0C1B0ED371230090339571984200D30C6020009830FEF7BDFC002070BD000023
:203F20000122014B1A7470471C11002070B50600002005008E4203D170BD0135002CFBD032
:203F4000745D2300413B2200192B01D82032D2B24B5D18004138192801D82033DBB2D01ABF
:203F60009A42EAD0E8E7F0B5002802D1106800280BD0030018000D00047801332E78002E15
:203F800004D1002C0BD120001460F0BD0135B442F4D1EFE72F000FE00134002E04D11C00CA
:203FA000013325781F000C002678B542F4D1002DF0D00021013B19701760E6E7F0B50500EA
:203FC0000E001700002487B000930CAB1B78019330003900FEF7A8F903000800C2B2310041
:203FE0001E0013003733DBB2092801D83032D3B202AA013403321355B942E9D226002B68BB
:020000040800F2
:20400000009A1B6896420BD303AB013CE15C2B6828001B689847002807D1002CF4D105E0B2
:20402000280001999847002802D00C2007B0F0BD0136E4E7F0B50B000500140087B01978C2
:204040005A1C0492002905D12B6828005B68984707B0F0BD252904D02B6828001B68984755
:204060003FE05A780392302A14D1023304930026049B19785A1C0B00303BDBB20492092B16
:2040800003D92A2909D108CCDBB20A214E439E191300EEE720230393E9E72E290BD11178F6
:2040A000531C0A00303A0493092A02D92A2902D104341A00F3E7632935D015D8412957D017
:2040C00003D82529C8D0049BB9E753292ED05829F9D1039B10220093330002CC2800FFF799
:2040E0006DFF0028EFD0AFE773291FD014D8642901D06929E7D180CC002F07DA2B682D217B
:2041000028001B68984700289ED17F42039B0A22009339003300E1E77529D4D1039B0A221F
:2041200000933300D9E702CCC9B295E727683800FEF74AF90590002F02D03978002902D1F2
:20414000059BF61A10E02B6828001B68013798470028F0D078E72B6828001B68039998476A
:20416000013E002800D06FE7002EF4DC0434AAE700262368A768039363680593059B9E42B2
:2041800001DB0C349FE7002E0DD1039B1022995D3023280000932E3BFFF710FF002800D037
:2041A00052E70136EAE7002FEFD02B6828001B68F9B298470028E8D046E700000FB413B570
:2041C00004AB10CB019372B6FEF756F921000548019AFFF72FFFFEF75FF962B613BC08BC30
:2041E00004B01847983100200FB407B504AA02CA03480192FFF71EFF03B008BC04B018474F
:2042000098310020F7B504000F001E000192384BE35C002B60D08022E1684B68D8691042F7
:20422000FCD00F251A68334802401A60A26853681868A84318601068527B94460E22654623
:20424000AA404260019ADF605A604A6A20218A431A60012219680A431A60FEF7FBFD3E224A
:20426000E36805005B6830001A85FA2200239200002102F051FA00231F4A80185941FA2253
:2042800000239200FEF756F80600A3685B685868002825D10F25A26853681968A943196095
:2042A000557B11680E22AA404A60144AA218DA60802252005A60E268516A19605168802218
:2042C0000D68D2012A430A6000210D4AA150012219680A431A60FEBD0120FEF7C9FB96E7D9
:2042E000FEF7B8FD431B9BB29E42CED20220D1E718100000FFBFFFFFE70300002810000009
:204300002410000008B4034B9C46034BC01A08BC6047C046054200082C1100000EB403B5DE
:20432000054B03AA02CAC0180192FFF783FE02B008BC03B01847C0462811000008B4034B01
:204340009C46034BC01A08BC6047C0461D4300082C110000F7B50C00902117001A0008ABF0
:204360001B78C905019388423ED18021304D89026E693143696103216500A9400368CE43C3
:204380008B430221A94003600368194301600121A140002F48D147688F434760AA40C16832
:2043A0003140C160C1680A43C2608268324082600122AA4081680A438260A200072C02D9C0
:2043C0002200083A92000721A14289410F249440019B4942934089004118086AA043086270
:2043E000086A03430B62F7BD1249884204D180210F4DC9026E69BCE70F49884204D1802110
:204400000B4D09036E69B4E70C49884204D18021074D49036E69ACE709498842ABD18021EE
:20442000034DC9036E69A4E7476839434160B5E7001002400004004800080048000C004854
:204440000014004873B50400890332D501236A465371FEF783F8174D2E00AC363368002BFF
:2044600027DDFEF77BF82A0033689432013B33601368210A1800083010605970210C997011
:20448000694609791C70197169464979240E597169468979DC7099716946C979D971064BD5
:2044A0002900984200D21168943504482960FEF7F1F973BD581D0020E81D0020F01D00201A
:2044C00010B57446FEF71EF872B6FDF7F7FF0A4B0A4AD9691A620A4B1868002802D003689F
:2044E0001B689847FDF7FCFF62B6FEF721F82000FDF7A8FF10BDC046003801405F1B1200B2
:204500003C11002010B57446FDF7FCFF72B6FDF7D5FF0A4B0A4AD9691A620A4B186800286C
:2045200002D003681B689847FDF7DAFF62B6FDF7FFFF2000FDF786FF10BDC0460044004015
:204540005F1B12004011002010B57446FDF7DAFF72B6FDF7B3FF0A4B0A4AD9691A620A4B88
:204560001868002802D003681B689847FDF7B8FF62B6FDF7DDFF2000FDF764FF10BDC04617
:20458000004800405F1B1200441100200F4B10B5C158C2180E4B521AC358934200D91300DF
:2045A000812252018350002B0ED00024094BC45443685B68D96082585A60C268126A1A603E
:2045C000012219680A431A6010BDC046101000001C1000001810000010B50F2443685968C5
:2045E0000A68A2430A60597B1A680E238B40536081230C4A5B01C45883580B491B1B83504B
:20460000425812194418A24206D24250002B06D10122064BC25410BD02001032F5E7FFF7BC
:20462000B5FFF8E71C100000101000001810000010B5FFF7D1FF10BD802230B50C4C030039
:20464000055952010C20954210D20A4A9858451C9D500170084998585918884202D3190057
:204660001031995000201A5901321A5130BDC0461C100000141000001010000010B5FFF7C1
:20468000DBFF10BD08B4034B9C46034BC01A08BC6047C0467D46000828110000034B10B5D7
:2046A000C35C002B01D0FFF771FF10BD1810000010B5FFF7F3FF10BD08B4034B9C46034BD0
:2046C000C01A08BC6047C046B14600082811000082680300526830B5506880220B4D5200C7
:2046E0005C59121A121B01D50132FF320B20002A0BD0621C5A51064A1C19A418227800201E
:204700000A705A59FF2A00DD585130BD2410000028100000F0B585B01F000E0001920400C6
:20472000FEF798FB0021FA2202ABD971920000230500380001F0F0FF00231F4A801859412D
:20474000FA2200239200FDF7F5FD070002ABD91D2000FFF7BDFFFEF77DFB401B80B2874263
:2047600028D302ABDB793E2BF0D1E16842334868C2691A42FCD00F256268096A53681468AA
:204780001868A8431860507B0E22824001986260DE605860022081431960012118680143E3
:2047A000196058680028FCD11968A9431960626005B0F0BD0220FBE7E703000008B4034BC9
:2047C0009C46034BC01A08BC6047C046154700082C110000C36810B512CB074B9C4202D0EE
:2047E000064B9C4204D10648FDF718FDE06010BD044BD868F8E7C0460038014000440040E0
:2048000000127A001C110020F7B5C668624B0400B068B189C5186B1E9D410023EDB21A00C2
:2048200000952836FFF796FD3378032B02D15B48FFF736F9E7685A4B7E680320F218531E10
:204840009A4112019040574B196B81431963390028310978186B91400A0002431A63524A65
:20486000964200D072E080229969D2010A439A619B694E4B1C602000FFF7ACFF0023B86961
:204880007360032805D18023494A9B0011680B43136023000921474AFEF7D4FBE66842689F
:2048A00073686060190028319160316A306911600122414962540C211960B43199609023BB
:2048C000DB05984259D03D4B984200D100250123B18A1A000095FFF73DFDF069042805D104
:2048E0008023334ADB0011680B431360002309211A00FEF7A7FBE16842684B68A0601800C7
:20490000243090602E48496A2018D06080204000506011600121106801431160A0225968EF
:2049200012050A435A6080221968D2010A431A601D4A934223D10F211B20FEF7F7FAE368D0
:204940005A68012311680B431360F7BD1D4A964207D18022D96992020A43DA61DB691A4BC3
:2049600088E71A4A964200D085E78022D969D2020A43DA61DB69164B7CE71500A7E7114A0A
:20498000934202D10F211C20D7E7104A9342D6D10F211D20D1E7C04600FCFFB71C11002045
:2049A00000C8FEBF00100240003801403C1100200000014031460008181000000004004806
:2049C00028100000004400404011002000480040441100200022014B0CC0704700F80008BC
:2049E000F8B5436804000D001600013303D1002303600F4B436027000837002229003800C4
:204A0000FEF768FD3388834202D030801520F8BD290038006268FEF7A1FF002806D16368C6
:204A20005B19636023685B192360F0E70120EEE700F8000870B50D00016804000120002907
:204A40000FD000220948FEF745FD2B88834209D1200022680821A260E360054A0830FEF7E7
:204A60007DFF70BD28801520FBE7C04600F8000800F00008014B024ADA60704700ED00E07A
:204A80000400FA050022024B1A60013A5A60704748110020F8B5060072B6FDF7EDFCFEF758
:204AA00011FFFEF703FFFEF7D9FE1348FEF716FF00280AD01148FFF797FB0124FEF702FFC0
:204AC000FDF7EAFC62B62000F8BD05270A4D3A006A430B4B2800F3189958FEF71DFF041EF8
:204AE00001D00848E7E7084B04359D42EFD1E1204000FEF7B9FEE1E700F80108046D00086D
:204B00000028F6D7166D00082CF801080300DC334268026014309842FAD17047030070B502
:204B20000B4A0C4D11689C680432A14209D3DC680134A14205D819601433AA42F2D106485F
:204B400002E0FFF7E3FF0548FFF738FB70BDC04600F801082CF801083D6D0008236D00087A
:204B60007F213F4B70B5D9603E49FE24196103213D4D19625C633D499D639C640925DC65AD
:204B80003B4C0022012059621C660421FC24DD631D64384D1A605A609A605A619A61DA6164
:204BA0009962D96218635864DD641965596598655C66314D99675D67D9671D005918CA670B
:204BC0003C210835E9671D002C4E88352E601D008C352A601D0090352A601D0094352A60C5
:204BE0001D00983529601900254D9C310D601D006421A03529601D00A43529601900A8310C
:204C0000086019009C661F4CAC310C6019001C671D4CB0310C601C005A21B43421601C00EF
:204C2000B83421601900BC3108601900FE30C031086019001548C43108601900C8310A60AA
:204C40001900CC310A601900D031DA660A601A000F49D43211600F4AD8331A6070BDC04616
:204C6000501900204F6D00085F6D0008586D0008776D0008666D0008846D0008936D00087E
:204C8000A46D00080F270000B56D0008C46D0008FFFF0000CA6D0008C046704710B504009F
:204CA000FDF75CFC2368002B02D02000FDF7AEFF10BD10B572B6FDF7DFFB10BD10B5FDF751
:204CC000EBFB62B610BD00009023DB05984206D18023134A9B0251690B4353617047114B59
:204CE000984204D180230E4ADB025169F4E70E4B984204D180230A4A1B035169ECE70B4B98
:204D0000984204D18023064A5B035169E4E7084B9842E3D18023024ADB035169DCE7C046DD
:204D2000001002400004004800080048000C00480014004870B504000D00FDF70FFC636CD1
:204D4000002B21DDFDF70AFC636C2978013B63646B78E26A1B020B43A978101D090419436C
:204D6000EB78E0621B060B43190A13705170190C1B0ED370230024339170984200D3E462B9
:204D800020003030FDF786FD70BD70B50D000400FFF78FFF29002000FFF7CCFFFDF734FD06
:204DA000FFF78CFF70BD0000802307B59B02034801A90193FFF7BEFF07BDC046B81C00204F
:204DC00013B50C0072B6FDF779FB002301A9019303484C80FFF7AEFFFDF782FB62B613BDFB
:204DE000B81C002007B56B4698806A4605230348D38001A9FFF79EFF07BDC046B81C0020C9
:204E000001230A6889888B409362704770B504000025FDF7A3FBA368AB420AD10834200065
:204E2000FFF73CFF2B0024212000034AFDF7D2FE0135280070BDC046994C0008134B37B5D8
:204E40005D690123124CA28893401D420BD02000FFF7DCFF002806D080230E485B0201A9E4
:204E60000193FFF767FF0123A28C93401D420BD02000FFF7CBFF002806D0802305485B02B8
:204E800001A90193FFF756FF37BDC04600040140581A0020B81C002037B5114D04002B68E3
:204EA000002B09D10368012B06D180230D485B0201A90193FFF769FF6B68002B09D16368EB
:204EC000012B06D1802307485B0201A90193FFF75CFF23682B6063686B60A368AB6037BD3B
:204EE0004C1A0020B81C00200120074B1B68834208D0064A136892881B69904003405A1EB1
:204F00009341D8B27047C0464C1A0020581A002073B505000C00002807DC002301A90193B9
:204F20000A484C80FFF731FF73BDFFF7C2FE084E3000FFF7B3FEFA21890023003000694377
:204F4000044AFDF747FEFFF7B9FEEDE7B81C0020301A0020C14D0008F7B507000D000028ED
:204F600007DC002301A9019312484D80FFF70DFFF7BDFFF79EFE104C2000FFF78FFEFA2263
:204F800000233800F917920001F0C6FB00230B4A0B4E80185941FA2200239200FDF7CAF9D7
:204FA0002B00010032002000FDF714FEFFF786FEDEE7C046B81C0020301A0020E7030000E0
:204FC000C14D000801235B428362002310B543620368C1611B680162984710BDC36910B578
:204FE000002B07D1036A002B04D1002902D0FFF7E9FF10BD4162FCE7C36910B50400002BF5
:205000000BD0FDF7ABFA6368002B02D0201DFFF745FE0023E36123626362236820005B68BF
:20502000984710BD70B5FFF744FE1248124BC26912499A421AD1FFF7D1FF114D114B2A00B9
:20504000FC32926A9A4208D0B0260024760028195834FFF7D1FFB442F9D100220A4B1A60BE
:20506000FFF72CFE0948FFF7A9F870BDFFF7AAFFE3E7C046041D00207070000810700008DB
:20508000101F0020F0700008001D0020D26D000870B50024114B05001C60FFF70AFE104859
:2050A000FFF7AAFFB026FFF709FEFFF702FE0D48FFF7A2FFFFF702FE7600FFF7FAFD0A48F1
:2050C00020185834FFF798FFFFF7F8FDB442F4D1002D02D10548FFF771F870BD001D0020C3
:2050E000081E0020601E0020101F0020E66D0008F8B50600FFF7DDFDFEF7DAF8194C01254D
:205100002700603720000830FFF7C8FD2900A2882368914020349962BC42F3D12900124A79
:20512000124C9388928C994095400022104B114859615D61104B1A70E26B104B1A60226D46
:205140000F4B1A60FFF7AAFDA26A0E4B1A60FDF781FE0D4B1880FFF7B1FD3000FFF798FF3B
:20516000F8BDC046A01A0020581A00205019002000040140301A0020981A0020081B0020BB
:205180009C1A0020481A0020041B0020F0B5614C85B0200009213C30A462E462FDF744FBBC
:2051A0002000012700213030FDF73EFBFDF7B0FF5948FEF79BF8594D2C68AB792000AE8879
:2051C0000393FFF781FD03217300DBB29940226820358A4322603A009A402068104320602B
:2051E0003800B040636883436360039B6068B34003436360E3688B43E360E368E360A368DC
:205200008B43A360A3681A43454BA260AB42D3D10127444D2C68AB792000AE880393FFF7DF
:2052200053FD0320F3B25B00DBB29840226882432260E26882430398E260984003000320DB
:20524000E2681343E360384B9A693A439A619B69B308364ADBB29B009B189A681100F2B29C
:20526000024092000C309040814331489960844206D138009040020099680A439A6010E039
:205280002C48844205D10221986891400A000243F4E72948844231D103219140986801436E
:2052A00099603A00B240254B0720196811431960596891435960996811439960D968914333
:2052C000D9605A615A61032E03D8B742B641704205300F21FDF72AFE194B2035AB4299D1E0
:2052E0000020FFF705FF0022D4210092154B803249001548FDF774FB05B0F0BD13498C4244
:2053000002D104219868C0E711498C42C9D105219868BAE7B81C0020E54D0008A01A00205D
:20532000001B0020581A002000100240000001400004004800080048000C004800040140D8
:20534000981A0020AD570008101B0020001000480014004801235B428362002310B543623D
:205360000368C1611B680162984710BD10B5FFF7A0FC0F490F48FFF725FEFFF79FFCFFF768
:2053800098FC0D4C0D482100FFF7E4FFFFF796FCFFF78FFC21000A48FFF7DCFFFFF78EFC04
:2053A000084B094A094812681968FEF707FF10BD08710008041D002058710008081E00205A
:2053C000601E0020081B00209C1A0020EF6D00080122184B184970B51A708B6C9B18CA6B3D
:2053E0009A4203D0154A1368013B13600B00C83318680B00B4331A68114C124BD2B2002815
:2054000013D17F250868496928407C3D29408901000208430E212080FDF7BEFEFDF71AFDF7
:20542000094B1880FFF7A2FF70BD80B210212080F2E7C046981A002050190020081B00203C
:20544000001B0020A94D00082C1A002070B5FFF730FC1148114BC26911499A4218D1FFF771
:20546000BDFD104BB025998C1A6A01238B40002493616D000C480D4920185834FFF76AFF58
:20548000AC42F7D1FFF71AFC0948FEF797FE70BDFFF798FDE5E7C046041D002070700008BC
:2054A000506E0008A01A0020101F0020906F0008036E0008C36910B5002B07D1036A002BF1
:2054C00004D1002902D0FFF745FF10BD4162FCE770B5FFF7EEFB1748174BC26917499A4243
:2054E00017D1FFF77BFD1648164B0200FC32926A154D164C9A420FD129002000FFF7DAFFD3
:205500000122134B1A60FFF7D9FB1248FEF756FE70BDFFF757FDE6E7FFF76EFD0E48FFF732
:205520006BFD0E48FFF768FD29002000FFF712FFE6E7C046041D002070700008C06E0008D0
:20554000101F0020F07000089C6F000818200020001D0020116E0008681F0020C01F0020BF
:2055600070B5FFF7A6FB1748174BC26917499A4217D1FFF733FD1648164B0200FC32926A4E
:20558000154D164C9A420FD129002000FFF792FF0222134B1A60FFF791FB1248FEF70EFEE2
:2055A00070BDFFF70FFDE6E7FFF726FD0E48FFF723FD0E48FFF720FD29002000FFF7CAFEFA
:2055C000E6E7C046041D002070700008C06F0008101F0020F07000086070000818200020B1
:2055E000001D0020206E0008681F0020C01F0020F8B50600FFF75DFB334D344B2C000834CA
:20560000A03320001F68FFF749FB0123A9882A688B409361002F19D193622D4CB0272000B2
:205620002C49FFF7CFFC00257F002B482B4928185835FFF78FFEBD42F7D1294B1868032873
:2056400026D8284DFCF7E0FD1C33392D2000FFF725FBFA22002338009200002101F05CF8AD
:205660000023214A80185941FA2200239200FCF761FE2B0001001D4A2000FDF7ABFACCE748
:2056800000212000FFF7AAFC00212800FFF712FFFFF714FB164B310016481A68FEF78EFDE6
:2056A000F8BD15492000FFF799FC1449EDE714492000FFF793FC1349E7E713492000FFF75D
:2056C0008DFC1249E1E7C046A01A002050190020041D002070700008101F0020F0700008D5
:2056E000001D002018200020E7030000014E0008481A0020326E0008506E0008906F0008DD
:20570000C06E00089C6F0008C06F000860700008F0B5214B82B285B09A4207D100231F4879
:2057200003A90393FFF731FB05B0F0BD0304FBD41B4D2B68002BF7DD1A4C46042368760E14
:205740009E42F1D063690006800F9842ECD0164F3B880193FDF77EFB23008C331A68FA2307
:205760009B005343019A801A80B28342DCD8636BA26A01339A4202D02B68013B2B603000D2
:20578000FFF736FF2B68002B03DDFDF763FB3880CAE7FFF75BFEC7E705830000B81C00200C
:2057A000481A002050190020041B0020F0B50126002787B000230593FFF77BFA4B4D012195
:2057C000280049423030FDF73FF8002818D1AB6A58781A78000210439A78191DDB781204FD
:2057E00002431B06134305932B002433994200D329003E4881623C30FDF74CF8FDF704F8FF
:20580000FFF75CFA05AB58881A88002802D1FFF76FFCCFE7052806D1240C24041443200025
:20582000FFF776FFC6E7324B1B68002BC2DD01380328BFD8FCF7E8FC020D2F522D4B1B7819
:20584000002BB7D12C4B1B68002BB3DDFFF7C0FDB0E72A4B5D6E2A4B1B880393FDF7FAFAC0
:20586000039BFA22C01A83B200930023019392000023009801998019794100F04DFFFA2283
:20588000801BB94100239200FCF754FD0321281AFFF762FB8EE70022164B1A70164B1B685B
:2058A000934205DDFFF720FB002800D182E7CDE714490B68012B0EDD104DEA6D286D0132A7
:2058C000904201D0013B0B60FFF702FE0421A86FFFF71EFB6EE7FFF743FE6BE7FFF7A2FBCC
:2058E000064A054BD26B1A60DCE7C046B81C0020481A0020981A0020081B00205019002074
:205900002C1A00209C1A0020002000210F4B104A186059600D219B62DB620E4B0E48596055
:205920000131596201311A601A621A6459640B4B0B4919600B4B1A601A620B4A58605A62DF
:2059400000220A4B19600A4B1A607047B81C002000040048A01A002003000200341100204D
:205960003D4E0008581A00200400020038110020001B002010B50400FCF7F0FD2368002BF9
:2059800002D02000FDF742F910BD10B5FEF7CEFA43425841C0B210BD0369034A9B18026864
:2059A0009B00D31859637047FFFFFF3F10B500213430FFF7F1FF10BD002110B53430C16149
:2059C000FFF7EAFF10BD000010B5421C02490020FF32FEF7C8FA10BD7071000810B50368BF
:2059E00001491B68984710BD7371000810B5036801491B68984710BD7871000810B5036878
:205A000001491B68984710BD8371000810B5036801491B68984710BD8E71000884B070B508
:205A200005910692002134220400079301F000F801235B42A3622100230000222D312C3351
:205A40001A700A704A708A705A71094B05AD2360079B63632300383343CD43C343CD43C318
:205A60000B9B20002265636570BC08BC04B018473073000870B50500040034352800FDF7B0
:205A80003DFE2800616DFEF709F9002128002165FFF782FF70BD0000F8B5041D0500200078
:205AA0000F00FFF767FFFA22380000239200002100F032FE0023084A084E80185941FA2218
:205AC00000239200FCF736FC2B00010032002000FDF780F8F8BDC046E703000049350008D7
:205AE000F8B50500076A34357968040089B22800FFF752FFFE68B968002E08D1280021654F
:205B0000FEF7CCF8236A002010332362F8BD236D8B4214D264332365216D2800FEF7BEF8DF
:205B2000236A216D9A689142EDD0D8680431FCF775FB411C2000FFF7AFFF0120E6E78B4204
:205B4000EAD9643BE7E70000F8B5041D050020000F00FFF70FFFFA223800002392000021E5
:205B600000F0DAFD0023084A084E80185941FA2200239200FCF7DEFB2B0001003200200046
:205B8000FDF728F8F8BDC046E70300004935000870B5046A036D617905008B420FD0A6781A
:205BA000627836021643E27834301204324326793606164307D1296589B2FFF7EDFE063441
:205BC00000202C621EE08B421DD201332B65296D89B2FFF7E1FE296D63799942EFD0A278CD
:205BE000637812021A43E37820791B041343000689B218430431FCF711FB411C2800FFF7A5
:205C0000A3FF012070BD8B42E1D9013BDEE713B50C00FFF7D9FE0123002808D0002201A97B
:205C200000F0FAFE019B1B78002B02D12060180016BD0D23FBE70000F0B50500FC350400F3
:205C40008DB0BC496869FFF7A0FE002803D02000FFF7C4FE0CE0B8496869FFF796FE00285A
:205C600008D02068B54B0568B54A2000B549A8470DB0F0BDB4496869FFF787FE061E09D09B
:205C8000B24BB34AB349B4481B6812680968FEF795FAEDE7B1496869FFF777FE002803D01B
:205CA0003000FFF725FAD2E7AD496869FFF76DFE061E11D0AB4C636810210293E368AA48F4
:205CC0000193A368009323682269FEF777FAA74B14349C42EFD1CBE7A5496869271DFFF793
:205CE00054FE002824D1A3496869FFF74EFE0590002840D09B48FEF7CDFE002839D19E48AE
:205D0000FEF75CFAB4E7974D20002969FEF70EF900281ED1099AAB689A4215D3EB680133F3
:205D20009A4211D8210095482A60FEF747FA01363800FFF749FE041E13D0380009A9FFF74F
:205D400066FF0028DFD00CE021008D48FEF736FA8EE7864B14359D42D6D121008948FEF704
:205D60002DFA31008848FEF729FA0020FFF7C0F97EE78648C4E786496869FFF706FE061E78
:205D800003D07848FEF7CAFEEFE782496869FFF7FCFD002811D009960A960B96B10009AB04
:205DA00038005918FFF733FF002802D10136032EF4D109A8FFF770F849E777496869FFF724
:205DC000E4FD00281DD0380007A9FFF720FF002803D02000FFF70AFE4AE7380009A9FFF7A6
:205DE00016FF0028F5D1380008A9FFF710FF031EEFD1089A07980999D2B280B2FDF7CCF97F
:205E000025E766496869FFF7C0FD002814D03800FFF7DAFD0028DCD0002209A900F0FCFDA1
:205E2000099B1B78002BD4D15D4BC0B2186119695C48FEF7C3F90AE75B496869FFF7A5FDF3
:205E4000061E06D00120FFF753F95848FEF7C2FDFDE657496869FFF798FD00283ED0554DDA
:205E6000554B38002B60FFF7AFFD0028B1D0320009A900F0D1FD099B06001B78002BA8D1F1
:205E80008022431E12019342A3D2380009A9FFF7BEFE00289DD1236832005F68200047493C
:205EA000474BB84700280FD1434B08AA2B60099B31003E481380FEF793FD022808D01528CC
:205EC00027D0002800D1C2E62000FFF79FFDCFE63C49236820001B689847C9E63A4968692E
:205EE000FFF753FD002822D0324B334A38001A6009A9FFF78CFE002800D06AE7099B2B4DFF
:205F000008A928000B80FEF795FD002805D01528DAD12000FFF772FDAAE62000FFF75EFD2B
:205F20002D20FCF7A5FD2800FEF7A4FDA0E62749CFE7C046987100089D710008A5710008CA
:205F4000B3710008BA710008CA7100089C1A0020081B0020481A0020D1710008EF71000852
:205F6000F771000850190020037200082C1A0020A17200086D7200087A72000833720008A2
:205F80003D7200084F7200085D72000882720008907200089D720008A5720008AA7200084A
:205FA00000740040AE720008B272000848110020C272000800300040AAAA000050110020DF
:205FC00094110000D0720008DA720008EE720008F0B589B0002306AD6B7172B6FCF74CFA25
:205FE000012140484942FCF72FFC0024A04224D13D4A170090373B681E00587819780002CA
:020000040800F2
:2060000008439978DC7809040143240658790C431979000208439979083609040843D9795C
:20602000090601436960BE4200D3160090322F481660FCF72FFCFCF7E7FBFCF72DFA62B687
:206040006B790193012BC5D104ABDD1D29002000FEF73EFB0028BDD1254B264A2E78E718AB
:20606000A518254A7B7AA2180292002B0FD000237B72AB60FCF7EEFE029B204A9881AB687A
:20608000082E0FD1002BDFD0013BAB60DCE7029B9B890393FCF7DEFE039BC01A80B26328AB
:2060A000E5D8E7E70D2E01D00A2E13D1002BCBD00021E3189954124B1249E2180F4BE0185A
:2060C000FDF751FF019B28617B720F4BE018FFF7B3FDB9E7FE2BB7D8591CE318A9609E54AF
:2060E000B2E7C046F01D0020581D0020FC1D00202F1200002C1200002E1200003011000006
:2061000030120000707100082C11000070B5040001250430FFF72EFC6D42236A187804287C
:20612000FDD8FCF771F8030A35501B00236820009B6898470128F0D170BD99785A780902EF
:206140001143DA7812040A4319790633090611432362E2D02000FFF7F7FCEDE7A26A0132B5
:206160000AD19A78597812020A43D978090411431A7912060A43A262A26A002A03D106330F
:20618000A5622362C9E7E369013A2362A262C4E799785A7809021143DA781B7912040A437D
:2061A0001B06134306225A43E3699B182362230031331B78002B04D021000E482C31FDF73E
:2061C0006BFE0121C6E7230031331B78002B04D0210008482C31FDF75FFE636A002B02D184
:2061E000E3612362A8E7E36123620023A562636293E7C046581D002070B572B6544B554AEF
:206200005549591801CB08609342F9D1BF22534B5204996A03250A439A629A6A5049514C19
:206220000A409A629A6A19694F4A20000A431A611A694E490A401A611A69D9684C4A0A438B
:20624000DA60DA684B490A40DA60DA68012299690A439A619B69484B484A1D6010231168A9
:206260000B4313601421FDF7DBFD2000FDF700FC002856D000252000FDF7B0FCFCF77EFDAB
:20628000FCF722FB3E4B12211A00903213601A003C4894321360FCF7C7FA00213A48FCF7C2
:2062A000C3FA3A48FEF7B0FA394A3A493A48FDF785FF002D02D13948FDF780FF2000FDF7F8
:2062C000C1FD3748B0253430FDF718FA3548FEF725FC00246D00344820185834FFF7CAFB23
:2062E000AC42F8D13148FFF7C5FB3148FFF7C2FB304C2000FFF7BEFB72B6FCF7BDF801234D
:206300005B42A3622C4B2000E361236200236362FFF7FCFEFCF7C0F862B6FEF737FFFFF7BF
:2063200057FE02212000FDF75BFD29002A002000FDF738FD011E9DD102002000FDF7E4FC5A
:2063400002212000FDF7F0FC43425841C5B292E700200008C020000800E0FF1700100240B4
:20636000FFFF81FE1C1100203349EE7ACCB61185015A4700FEA5B8FF0000014000200240B8
:20638000581D0020FC1D0020F01D002070200020A5710008B3710008FB7200080473000814
:2063A000041D002050190020101F0020081E0020601E0020B81E00203C73000870B504000A
:2063C00001250430FFF7D6FA6D42236A18780428FDD8FBF719FF030A2435130023682000A2
:2063E0009B6898470128F0D170BD5968103323620029EAD02000FFF74FFBF5E7A26A0132BD
:2064000001D15A68A262A26A002A03D11033A5622362DAE7E369013A2362A262D5E75A68BC
:20642000E36912019B182362230031331B78002B04D021000D482C31FDF72EFD0121D9E7D8
:20644000230031331B78002B04D0210007482C31FDF722FD636A002B02D1E3612362C3E705
:20646000E36123620023A5626362AEE7581D00208A4BF0B51A00903213601A000020002116
:206480009432186059601360E123854A5B021360844B042153600923D36001335361883346
:2064A000136285235B015362130090250024D1612833013919707C4BED050130956015611D
:2064C0009061DA6079497A4A5C605A5079499C605A50794A79499854794A8DB09C500432AA
:2064E0009C50784A06279C50774A9C50774A9C50774A9C50774A9C50774A06951A60774A8A
:2065000009905A50764A774907945A508023DB050893FF236A460B93013BFF3B03930A943B
:2065200009AB62CB62C2902180232200C905DB056D48FFF773FAFF2101230B916B496C4DCD
:20654000059169466B4A09930A93023B069207970895039309AB45CB45C13A002B00654985
:206560000598FFF75BFAFF2101230B9162490220059169465F4A01370A93023B0797069250
:2065800008950990039309AB45CB45C13A002B0058490598FFF742FA08200123554AFF2185
:2065A00006926A4607900A930538023B089509900B91039309ABC2CBC2C250482B000822CB
:2065C0004C49FFF72BFA4B4A012306920922FF210792053A09926A460A93023B08950B9139
:2065E000039309ABC2CBC2C245482B0009224149FFF714FA9022D2050692802201230225C1
:20660000FF21D20508926A460793023B1F0009950B9103930A9409AB62CB62C2902180237C
:206620000122C905DB053748FFF7F8F99022D205069280220225FF210320D20508926A46D5
:20664000079509900B910A94039709AB62CB62C2902180230222DB05C9052B48FFF7DEF9C6
:206660002A4D24222100281D00F0E2F92B0031331C70274B90222B60264B08206B632B646C
:206680000123D2056B64AB641533AF62EC62AA63E863EB642C650DB0F0BDC046581D00203D
:2066A000B0320020003801407020002010100000802000201410000018100000281100004A
:2066C0001C100000241000003012000034120000381200003C120000C86C0008E86C0008A2
:2066E000F86C00082C110000B81E0020101F00200004004000080048681F0020C01F002072
:2067000018200020081E0020601E0020041D00201C730008002C0140F0B5CE469946030C51
:206720009C46130447461B0C1D000E0061460404240C80B50700100C4B43654341436043ED
:206740002C0CC01820188C46834203D980235B029846C444494679435643030C2D042D0C3B
:206760008919634400044019C918C0BCB946B046F0BDC046F0B557464E464546DE46E0B554
:2067800004000D009246994683B08B4230D82DD049465046FBF7EEFD290006002000FBF7E9
:2067A000E9FD331A9846203B34D49B4653465A46934042461F00534693401E00AF423BD843
:2067C000AF4200D179E05B46A41BBD41002B00DA76E0002200230092019301235A469340E3
:2067E0000193012342469340009329E08242CFD900220023009201930C9B002B01D01C60F4
:206800005D600098019903B0F0BCBB46B246A946A046F0BD42469B4620239B1A5246DA409C
:20682000414613004A468A40170042461F43534693401E00AF42C3D90022002300920193E1
:206840004346002BD8D0FB0772081A4346467B080EE0AB4201D1A2420CD8A41A9D410120C2
:2068600024196D410021013E24184D41002E06D0AB42EED9013E24196D41002EF8D1009892
:2068800001995B4600196941002B24DB2B005A464446D3402A00E2401C005B461500002B1F
:2068A0002ADB26009E40330026004746BE403200801A9941009001919EE7A342BCD882E7BC
:2068C0004246202300219B1A0022009101920122DA40019285E7424620239B1A2A0046465F
:2068E0009A402300F340444613432A00E2401C005B461500002BD4DA42462F002023260071
:2069000097409B1ADE403B003343CDE7F0B587B01E00059001910292012B48D00B00242E12
:2069200045D83B4A082194461A00604614780133005D1D0007000F400842F5D12D2C3DD1EB
:2069400001271C78951C002E5ED0102E09D1302C07D120222B789343582B50D110266C78A9
:2069600002352C4B3100FB1818000393FBF7DCFC0022049101218446100049422300303BE1
:20698000092B03D9113B192B1DD80A339E421EDD541C09D00A00844506D302D1049C9C4204
:2069A00002DB0122704318182C780135E6E700F047F816230360002007B0F0BD2B2CC2D114
:2069C0001C78951CBFE72300613B192BDDD9531C09D12223059A03981360029B002BEBD055
:2069E0006B1E019307E0002F00D04042029B002BE2D0002AF4D1029B019A1A60DCE73024E0
:206A0000002EAED10836ACE7302CA2D00A26A8E749730008FFFFFF7F10B5044C13000A00F9
:206A200001002068FFF772FF10BDC0461805002003008218934200D1704719700133F9E7BF
:206A4000014B18687047C04618050020002310B59A4200D110BDCC5CC4540133F8E70000BB
:206A6000F8B5C046F8B5C0460000000000000000010203040607080900000000010203047E
:206A800053562334005356233500535623360053562337005356233800535623390053563E
:206AA000233130005356233131006D61696E0069646C6500737461636B206F766572666C1D
:206AC0006F7700636853636852656164794900636853656D5369676E616C4900636853658F
:206AE0006D5761697454696D656F75745300636853656D4F626A656374496E6974006330EC
:206B000000000000FE6A0008C8020020C804002098050020500600206368546864536C65ED
:206B20006570530063685468644372656174655374617469630063685468644372656174AC
:206B40006553757370656E646564490063685654446F52657365744900636854696D6541CD
:206B60006464580063685654446F536574490000A8740008143400201434002014340020FC
:206B8000A8740008000000000000000000000000A8740008000000000000000000000000AD
:206BA000A8740008000000000000000000000000A87400080000000000000000000000008D
:206BC000A8740008000000000000000000000000A87400080000000000000000000000006D
:206BE000A8740008000000000000000000000000646D6153747265616D416C6C6F6349009F
:206C000000000240080002400100000000000009000002401C000240060000000004010A29
:206C20000000024030000240060000000008020A000002404400024078000000000C030B2C
:206C40000000024058000240780000000010040B000002406C000240780000000014050B35
:206C60000000024080000240780000000018060B0D486172644661756C740D00466C617354
:206C800068206572617365206572726F720D00466C617368207772697465206572726F7282
:206CA0000D00414842467265713D25754D487A3B20415042467265713D25754D487A0D00D9
:206CC0000000000000000000454400087D460008B14600081D43000805420008154700083E
:206CE000D8EEFFFF0000000085460008B9460008D4EEFFFF000000003D430008054300085E
:206D0000BD4700080D50616765204572617365206661696C0D005772697465204661696C5D
:206D20000D0A0044656661756C742073657474696E6773206C6F616465640D0A005365741A
:206D400074696E6773206C6F616465640D0A00506C617965724944005465616D4944004818
:206D60006974436E7400526F756E6473496E4D6167617A696E65004D6167617A696E657314
:206D8000436E740053686F7473506572696F645F6D73004D6167617A52656C6F616444652B
:206DA0006C6179004D696E44656C617942657477486974730050756C73654C656E48697403
:206DC0005F6D7300545850777200506B745479706500234D6167617A696E6552656C6F617C
:206DE0006465640D0A002352657365740D0A002353686F743B2025642F2564206C656674EA
:206E00000D0A00234869747320456E6465640D0A0023526F756E6473456E6465640D0A00F4
:206E2000234D6167617A696E6573456E6465640D0A00234869742066726F6D2025643B2079
:206E40002564206C6566740D0A00000000000000000000000B0000000401000000000000B7
:206E600001000000C80000000000000000000000000000000B000000A0000000000000009E
:206E800001000000C800000000000000000000000000000000000000000000000000000029
:206EA0000400000003000000000000000000000003000000000000000000000000000000C8
:206EC0000000000001000000B80700000000000001000000480000000000000000000000A9
:206EE000000000000000000000000000000000000100000048000000000000000000000049
:206F00000000000001000000B9090000000000000100000048000000000000000000000065
:206F2000000000000000000000000000000000000100000048000000000000000000000008
:206F40000000000001000000900B000000000000010000004800000000000000000000004C
:206F60000000000000000000000000000000000001000000480000000000000000000000C8
:206F8000020000000000000000000000000000000000000000FF03000000000000000000ED
:206FA00000FF0148000000000000000000000148000000000200000000000000000000003E
:206FC000000000000B000000CA0800000000000001000000280000000000000000000000AB
:206FE000000000000B0000001A040000905F01000000000000000000000000000000000078
:2070000003000000000000000000000000000000000000000B0000009E07000000000000BD
:2070200001000000280000000000000000000000000000000B000000860B0000C0D40100F6
:2070400000000000000000000000000000000000030000000000000000000000000000002D
:207060000000000000FF03000000000000000000000000000B00000064000000000000009F
:2070800001000000140000000000000000000000000000000B0000008C0A0000E80300004F
:2070A000010000000A0000000000000000000000000000000B00000064000000E80300006B
:2070C00001000000640000000000000000000000000000000000000000000000000000004B
:2070E000030000000000000000000000000000000000000000FF01990000000000000000F4
:207100000000030000000000000000000B00000070170000000000000100000028000000B1
:207120000000000000000000000000000B000000E8030000504600000000000000000000C3
:207140000000000000000000030000000000000000000000000000000000000000FF0148E4
:2071600000000000000000000000030000000000202C004F6B0D0A00426164506172616DF7
:207180000D0A004352434572726F720D0A004661696C7572650D0A0050696E670056657245
:2071A00073696F6E0032303233303931325F323235380049525F5043420056657273696F0C
:2071C0006E3A2025532025530D0047657453746100486974733A2025643B20526E64733ADB
:2071E0002025643B206D677A733A2025640D00526573746F72650047657453657474696E5F
:20720000677300252A53203D202534753B204D696E203D2025753B204D6178203D202534BA
:20722000753B2064656661756C74203D202534750D0A002553203D2025750D0A00255320F9
:2072400042616456616C75653A2025750D0A004261644E616D653A2025530D0A0053657482
:207260002025752076616C7565730D0A005361766553657474696E67730053617665640DAD
:207280000A00536176696E67206661696C0D0A004C6F616453657474696E677300437472AF
:2072A0006C5365740069727478006461630025750D0055706461746546775265737461720F
:2072C0007400557064617465467757726974650054696D656F75740D0A00557064617465AE
:2072E0004677436865636B416E6452756E00436D64556E6B6E6F776E0D0A000D25532025C6
:20730000530D0A0051756172747A206661696C0D0A0000000000000000000000BD63000881
:20732000AD590008E15A000800000000000000000D610008B9590008915B000800CF0000A9
:2073400000FF03000000000000202020202020202020282828282820202020202020202023
:20736000202020202020202020881010101010101010101010101010100404040404040459
:207380000404041010101010101041414141414101010101010101010101010101010101DB
:2073A0000101010110101010101042424242424202020202020202020202020202020202BD
:2073C000020202021010101020000000000000000000000000000000000000000000000045
:2073E00000000000000000000000000000000000000000000000000000000000000000008D
:2074000000000000000000000000000000000000000000000000000000000000000000006C
:2074200000000000000000000000000000000000000000000000000000000000000000004C
:2074400000000000000000000000000028F3FF7F01000000FFFFFFFF00000000DC32002068
:2074600044330020AC33002000000000000000000000000000000000000000000000000076
:207480000000000000000000000000000000000000000000000000000000000000000000EC
:2074A00000000000CC040020FFFFFFFFFFFFFFFFFFFFFFFFFFFFFFFFFFFFFFFFFFFFFFFFF4
:2074C000FFFFFFFFFFFFFFFFFFFFFFFFFFFFFFFFFFFFFFFFFFFFFFFFFFFFFFFFFFFFFFFFCC
:2074E000FFFFFFFFFFFFFFFFFFFFFFFFFFFFFFFFFFFFFFFFFFFFFFFFFFFFFFFFFFFFFFFFAC
:20750000FFFFFFFFFFFFFFFFFFFFFFFFFFFFFFFFFFFFFFFFFFFFFFFFFFFFFFFFFFFFFFFF8B
:20752000FFFFFFFFFFFFFFFFFFFFFFFFFFFFFFFFFFFFFFFFFFFFFFFFFFFFFFFFFFFFFFFF6B
:020000040801F1
:00000001FF
