:020000040800F2
:20000000000400209D0100089F0100089F0100089F0100089F0100089F0100089F01000826
:200020009F0100089F0100089F0100089F0100089F0100089F0100089F0100089F01000880
:200040009F0100089F0100089F0100089F0100089F0100089F0100089F0100089F01000860
:200060009F0100089F0100089F0100089F0100089F0100089F0100089F0100089F01000840
:200080009F0100089F0100089F0100089F0100089F0100089F0100089F0100089F01000820
:2000A0009F0100089F0100089F0100089F0100089F0100089F0100089F0100089F01000800
:2000C000E502000855080008BD02000872B6244880F30888234880F30988022080F31488CE
:2000E000BFF36F8F00F045FA00F0A2FB1E481F491B4A914202DA08600431FAE71C49194A6C
:20010000914202DA08600431FAE71A491A4A1B4B9A4204DA0868106004310432F8E7002081
:200120001749184A914202DA08600431FAE700F023FA00F01FFA144C144DAC4203DA2168A5
:2001400088470434F9E700F0A7FB114C114DAC4203DA216888470434F9E70F490847000089
:200160000004002000080020555555550000002000040020D00B0008000800200008002068
:200180000008002030100020C0000008C8000008C8000008CC0000087705000896E700F0AA
:2001A00000F8FEE7002243088B4274D303098B425FD3030A8B4244D3030B8B4228D3030C00
:2001C0008B420DD3FF22090212BA030C8B4202D31212090265D0030B8B4219D300E0090AAB
:2001E000C30B8B4201D3CB03C01A5241830B8B4201D38B03C01A5241430B8B4201D34B03EE
:20020000C01A5241030B8B4201D30B03C01A5241C30A8B4201D3CB02C01A5241830A8B4245
:2002200001D38B02C01A5241430A8B4201D34B02C01A5241030A8B4201D30B02C01A524120
:20024000CDD2C3098B4201D3CB01C01A524183098B4201D38B01C01A524143098B4201D346
:200260004B01C01A524103098B4201D30B01C01A5241C3088B4201D3CB00C01A5241830870
:200280008B4201D38B00C01A524143088B4201D34B00C01A5241411A00D2014652411046C4
:2002A0007047FFE701B5002000F006F802BDC0460029F7D076E770477047C04610B5064C40
:2002C0002378002B07D1054B002B02D0044800E000BF0123237010BD00080020000000009C
:2002E000D00B0008044B10B5002B03D00349044800E000BF10BDC0460000000004080020D3
:20030000D00B000880231D4A9B02516910B50B4353619023DB051968194801401960802102
:200320001C680903214319605968164C21405960D9680140D960D968D960996801409960A3
:2003400080219868C9020143F0209960596A814359621021586A0143596280239169DB0137
:200360000B43E12193619369074B4902D868FFF719FF0922054BD8601A6010BD0010024006
:20038000FFFFF3FFFFFDFFFF1C080020003801408022044BD9691142FCD080B21885002075
:2003A0007047C04600380140F0B505000E001F00002487B0019228003100FFF779FF030078
:2003C0000800C2B229001D0013003733DBB2092801D83032D3B202AA013403321355B142EF
:2003E000E9D22500019B9D4209D3013C03ABE05CFFF7CEFF002807D1002CF6D105E03800CC
:20040000FFF7C6FF002802D00C2007B0F0BD0135E8E7F7B503000C0018785A1C0092002817
:2004200073D0252802D0FFF7B3FF3BE05E78302E14D1023300930025009B18785A1C0300ED
:20044000303BDBB20092092B03D92A2808D108CCDBB20A214D435D191300EEE72026EAE746
:200460002E280BD11078531C0200303A0093092A02D92A2802D104341A00F3E763282FD06B
:2004800013D841284CD003D82528CCD0009BC3E7532828D05828F9D133002A00102101CCCB
:2004A000FFF782FF0028F1D02FE073281BD011D8642801D06928E9D180CC002F05DA2D200F
:2004C000FFF766FF002820D17F4233002A000A213800E5E77528D9D133002A000A21DEE7C7
:2004E00001CCC0B29FE72768380000F0B9F90190002F02D03878002802D1019BED1A0BE003
:200500000137FFF745FF0028F2D0F7BD3000FFF73FFF013D0028F8D1002DF7DC0434B5E764
:20052000002563682768A6680193019B9D4201DB0C34ABE7002D09D1302302221021785DED
:20054000FFF732FF0028E0D10135EEE7002EF3D0F0B2FFF71DFF0028EED0D6E70FB407B5C9
:2005600004A901C90191FFF754FF03B008BC04B0184770477047FEE7F0B5082000240E4904
:200580004A680E6815008B68AB4210D8D51E0026AB4203D303339B1A9B089E00CB68921970
:2005A000934207D8013810310028E9D1F0BD80CE80C5E9E710C2F3E7A80A0008402330B56D
:2005C000094C411865692B4363610824074B9C601A61074A5A61884202D1186880B230BD30
:2005E000027801301A70F6E7001002400030024021100000F7B500220300012103250426AF
:2006000001920B4AD46828000C4206D1D4680800344202D1D06800090840019C671C01979B
:200620009C4202D20328EDD0FEBD0220FCE7C04600200240024B034A5A60034A5A607047E6
:200640000020024023016745AB89EFCD10B50448FFF7D0FF8023034A11690B43136110BDA9
:2006600040420F000020024070B505000B48FFF7C1FF002811D10223094C2269134323616B
:2006800040236561226913432361C0460348FFF7B1FF2369034A1340236170BD40420F0067
:2006A00000200240FD1F000070B506000D480C00FFF7A0FF002814D101230B4D09482A692E
:2006C00013432B61A3B23380FFF794FF002804D1240C04487480FFF78DFF2B69034A134084
:2006E0002B6170BD40420F0000200240FE1F0000F7B5140007000E00FFF7A8FFFFF79AFF30
:2007000034220F4B2000DA60FFF7AEFF051E08D10336B608B600331926000193019B9E4201
:2007200003D1FFF793FF2800FEBD3B1B30009959FFF7BAFF002801D10436EFE70500F0E76D
:20074000002002401E4A10B550680007800F02280AD0032831D00138431E9841194B404233
:200760001840194BC01810BD0F20D16A536801409B0C034001319C1C834200D11024536859
:20078000C022802052021340400283420DD008D8002B10D080220D481202934206D0604308
:2007A000E1E7934205D00948F9E70748FFF7FAFCF5E70748FAE70748F1E70548D3E7C0461B
:2007C0000010024000F7C2FF001BB70000127A00006CDC0200093D00F0B5040087B0124EE1
:2007E000124F02AD31001022280000F043F97B6820001B061B0FED5CFFF7A4FF3100E840A9
:200800000822A06005001031684600F033F96A467B685B055B0FD35CDD405A1E9341013375
:20082000E560237407B0F0BD900A0008001002400122074B19680A431A60022219681142CF
:20084000FCD0012299690A439A619B697047C046001002400122014B1A7470471C08002054
:2008600003001A78002A01D1181A70470133F8E7064A10B5146806482100FFF76FFE054B38
:200880001B6883F30888A04710BDC04604200008280B000800200008F7B572B6BF235D4C27
:2008A0005B04A26A5C481343A362A36A5B4A1340A362A36A22695A4B134323612369594A7E
:2008C000134023612369E268574B1343E360E368564A1340E360E3681023554A11680B43CB
:2008E0001360FFF779FFFFF70DFD524A52495348FFF734FE802362699B0213436361902345
:200900000320DB051A6882431A60012219681143196059689143596059685960D9688143D5
:20092000D960D968D96099688143996099684448114399609A61434B1C68434B21001D682B
:200940002A00FFF70BFED0231B029C4201D9FFF78FFF210000223D48FFF730FE0100A8424B
:2009600004D03B48FFF7FAFDFFF782FF3948FFF7F5FD364B0334384EA4080093374D002C26
:2009800013D13748FFF7EAFD01235B42082128002C4A2B606B60FFF7ABFE011E02D0314830
:2009A000FFF7DCFDFFF764FF19E0802301949B009C4200D901932A000199009B8F00F918F9
:2009C00001CB01C28B42FBD1320039002800FFF78FFE002813D031002348FFF7BFFD9022CE
:2009E0000121D205214B1800013B0028FBD11F4B91621800013B0028FBD19161F2E71C4876
:200A0000FFF7ACFD009BF619DB190093019BE41AB4E7C046001002401C080020FFFF81FEB8
:200A20003349EE7ACCB61185015A4700FEA5B8FF00200240450B0008530B00085D0B00082E
:200A4000650B000800F0000804F0000800F800087C0B00088E0B000800200008300800207A
:200A6000AE0B0008B90B0008960B0008A0860100AC0B0008002310B59A4200D110BDCC5CD0
:200A8000C4540133F8E7FFFFF8B5C046F8B5C046000000000000000001020304060708099F
:200AA0000000000001020304D00B0008301000203010002030100020D00B00080000000046
:200AC0000000000000000000D00B0008000000000000000000000000D00B00080000000050
:200AE0000000000000000000D00B0008000000000000000000000000D00B00080000000030
:200B00000000000000000000D00B0008000000000000000000000000D00B0008000000000F
:200B200000000000000000004A756D70696E6720746F203078253038582061742030782549
:200B40003038580D0032303233303831395F31363035004972506362426F6F74000D25531B
:200B60002025530D004677537A3A2025753B206372633A203078253034580D0043524320D7
:200B80004572726F723A20307825580D0A00437263206F6B0D000D57726974654661696C02
:200BA000206174203078253038580D002E000D5772697465206F6B0D0045726173652050D9
:200BC0006172616D73204661696C3A2025750D00FFFFFFFFFFFFFFFFFFFFFFFFFFFFFFFF74
:200BE000FFFFFFFFFFFFFFFFFFFFFFFFFFFFFFFFFFFFFFFFFFFFFFFFFFFFFFFFFFFFFFFF15
:200C0000FFFFFFFFFFFFFFFFFFFFFFFFFFFFFFFFFFFFFFFFFFFFFFFFFFFFFFFFFFFFFFFFF4
:200C2000FFFFFFFFFFFFFFFFFFFFFFFFFFFFFFFFFFFFFFFFFFFFFFFFFFFFFFFFFFFFFFFFD4
:200C4000FFFFFFFFFFFFFFFFFFFFFFFFFFFFFFFFFFFFFFFFFFFFFFFFFFFFFFFFFFFFFFFFB4
:020000040800F2
:20200000C80200200122000821240008413800080322000803220008032200080322000829
:20202000032200080322000803220008032200080322000803220008032200080322000838
:202040000322000803220008032200080322000803220008C5390008F93900082D3A0008F0
:2020600003220008A5300008892D0008B12D000803220008032200080322000803220008FE
:20208000032200080322000803220008152F0008C1330008032200080322000803220008EA
:2020A000032200080322000803220008B5440008F94400083D45000803220008032200086F
:2020C0000124000889340008153F0008794A0008554B000869590008C1640008D923000844
:2020E000F0B544464D4656465F46F0B46B46CB60C3689D46F0BCA046A946B246BB46F0BD28
:2021000000F0CAF962B6281CA047002000F0A8FCFEE700F0B1F900F057FB00F0BDF9024A62
:20212000024B1360FEE7C04604ED00E00000008072B6244880F30888234880F3098802207B
:2021400080F31488BFF36F8F00F0F2FD01F08CFE1E481F491B4A914202DA08600431FAE706
:202160001C49194A914202DA08600431FAE71A491A4A1B4B9A4204DA086810600431043238
:20218000F8E700201749184A914202DA08600431FAE700F0D1FD00F0CCFD144C144DAC422B
:2021A00003DA216888470434F9E704F04DF8114C114DAC4203DA216888470434F9E70F494B
:2021C00008470000C8020020C804002055555555C8000020C8020020A4740008C8040020A8
:2021E0001C0500202005002024340020C0200008DC200008DC200008E0200008352D00087F
:2022000096E700F000F8FEE702B4714649084900095C49008E4402BC7047C0460022430805
:202220008B4274D303098B425FD3030A8B4244D3030B8B4228D3030C8B420DD3FF220902D0
:2022400012BA030C8B4202D31212090265D0030B8B4219D300E0090AC30B8B4201D3CB03A6
:20226000C01A5241830B8B4201D38B03C01A5241430B8B4201D34B03C01A5241030B8B4242
:2022800001D30B03C01A5241C30A8B4201D3CB02C01A5241830A8B4201D38B02C01A52411F
:2022A000430A8B4201D34B02C01A5241030A8B4201D30B02C01A5241CDD2C3098B4201D342
:2022C000CB01C01A524183098B4201D38B01C01A524143098B4201D34B01C01A52410309ED
:2022E0008B4201D30B01C01A5241C3088B4201D3CB00C01A524183088B4201D38B00C01A8F
:20230000524143088B4201D34B00C01A5241411A00D20146524110467047FFE701B50020B6
:2023200000F006F802BDC0460029F7D076E770477047C046002B11D1002A0FD1002900D118
:20234000002802D00021C943080007B4024802A14018029003BDC046D9FFFFFF03B46846BB
:2023600001B5029804F02EFA019B9E4602B00CBC7047C04610B5002903D100F007F8203039
:2023800002E0080000F002F810BDC0461C2101231B04984201D3000C10391B0A984201D340
:2023A000000A08391B09984201D30009043902A2105C40187047C046040302020101010186
:2023C00000000000000000000023C25C0133002AFBD1581E7047000010B5064C2378002B88
:2023E00007D1054B002B02D0044800E000BF0123237010BD2005002000000000A4740008E4
:20240000044B10B5002B03D00349044800E000BF10BDC0460000000024050020A474000837
:20242000EFF30983203383F3098862B670470000024A0349136A0B401362704700ED00E0AC
:20244000FFFF00FF10B50F300FD072B6EFF30984203C84F3098880235B04E36100F0A8F9CA
:20246000024B002800D1024BA36110BD132100081E2100087047000010B5054C636DA26DC9
:20248000134302D0034800F035FA0123A36510BD3C050020D06A000810B5064C636D002BFC
:2024A00002D1A36D002B02DC034800F023FA0023A36510BD3C050020D56A000810B5064C21
:2024C000636D002B02DDA36D002B02D0034800F011FA0123A36510BD3C050020DA6A000829
:2024E00010B5064C636D002B02DDA36D002B02DC034800F0FFF90023A36510BD3C05002046
:20250000DF6A000810B572B6074C636D002B02DBA36D002B02D0054800F0ECF9636D01331F
:20252000636562B610BDC0463C050020E46A000810B572B6074C636D002B02DDA36D002BDC
:2025400002D0054800F0D6F9636D013B636562B610BDC0463C050020E96A0008054B10B50D
:202560005A6D002A02DB9B6D002B02DC024800F0C1F910BD3C050020EE6A0008054B10B5E5
:202580005A6D002A02D19B6D002B02DC024800F0B1F910BD3C050020F46A0008FEE7000009
:2025A000F0B500250400194B87B05860056281620E00FFF73DFF230010332361636101239E
:2025C000012721005B42124AA3612C31200024606460A5606562A58325656565A7658133E8
:2025E00000F0B2F97368E06043610A4B07760093F36868460193336903970293064B0595C9
:20260000049300F0E7F907B0F0BDC04650060020FA6A0008FF6A00089D250008024A536AC3
:20262000034353627047C0463C05002000238268037603691B6899689142FBD25A68036046
:20264000426010605860704700238268037603691B6899689142FBD85A68036042601060A6
:202660005860704770B50C0072B6FFF727FF207E052807D8FFF7C8FD0C06060316100022AE
:20268000E3691A6001235B422000E361FFF7CEFFFFF726FF62B670BDE569FFF75FFFAB6877
:2026A0000133AB606268236813605A60EAE7000010B50400FFF752FF002C02D1034800F03E
:2026C00019F92000FFF7B2FF10BDC046136B000870B505000C4CE668FFF750FF357625687B
:2026E0002B685C6023600123E5602B76EFF309837269243B9A4202D9044800F0FBF831003F
:202700002800FFF7EDFC70BD3C050020046B000870B50D000F4B86B0DE680400FFF72EFF7E
:202720006B1C13D0330029000B4A684600F052FA2000FFF7CDFFFFF711FF009B002B02D014
:20274000684600F063FAF06906B070BD2000FFF7BFFFF8E73C05002065260008F8B50400EA
:202760000D00114EF768FFF709FFA268BB68E5619A4203D82000FFF759FFF8BD3800FFF715
:2027800063FF012305002376F460EFF309834269243B9A4202D9054800F0ACF82900200068
:2027A000FFF79EFCE9E7C0463C050020046B0008044BDA68196890688B68984280414042C1
:2027C0007047C0463C0500200D4B70B51C68D868226853601A6001222276DC60FFF734FFC3
:2027E0000500EFF309834269243B9A4202D9054800F080F829002000FFF772FC70BDC04610
:202800003C050020046B000870B5064CE568FFF7B5FE23689A68AB689A4201D9FFF7D4FF54
:2028200070BDC0463C05002070B504000D00002801D0002902DA034800F05CF8A5602460B8
:20284000646070BD3E6B000870B504000D00FFF795FE002C02D10D4800F04CF80020A36864
:202860005A1EA260824203DA854202D1A360013870BD074B6268DB682900DC611C605A603F
:20288000052013606360FFF743FFF1E72C6B00083C05002010B50400FFF760FE002C02D1B1
:2028A000084800F027F8A3680133A360002B07DC2068036823605C600023C361FFF7F8FE04
:2028C00010BDC0461F6B0008012310B5064C07492370002306486360FFF762FE0223237033
:2028E000FFF7DAFD62B610BD50060020546B00083C05002072B60322024B1865024B1A709A
:20290000FEE7C0463C0500205006002010B5FFF725FE00F0B9F910BD10B572B6FFF7ACFD1C
:2029200010BD10B5FFF7B8FD62B610BD10B5041E02D10448FFF7DEFF21000820FFF7E8FE77
:2029400010BDC046686B00088B6002230B83002308610B620800704710B50400FFF7FEFDB9
:20296000002C02D11848FFF7C5FF072162680A4207D1A3680B4204D19A4202D29B1AA72BC4
:2029800002D81148FFF7B6FFE368FF2B02D82369002B02D10C48FFF7ADFFA368626818009D
:2029A0002838426122694C3BC3601A6162695A61064A1A62E368064A8360022303760023D3
:2029C00002614376036210BD866B0008012100083C05002010B5FFF7BFFFFFF769FE10BD82
:2029E000F8B505000C0016001F00002809D0A72907D903000B435B0703D1FF2A01D8002F7B
:202A000002D10F48FFF776FF283C2C19FFF784FF2300069A243B6561E3605A61094A1F6146
:202A20001A62022300212383074B2000A66023612162FFF793FEFFF774FF2000F8BDC046E4
:202A4000746B0008012100083C05002010B5034BDB68D8610F20FFF73BFE10BD3C050020E9
:202A600010B50400FFF758FF2000FFF7EFFF10BD10B50400FFF750FF2000FFF757FFFFF7FF
:202A800050FF10BD10B503689C68A2420CD85C688A600B604C602160596099688A1A9A6080
:202AA00001235B42836010BD1B68121BECE70000F8B5802305000C005B02994217D3114C42
:202AC0000227281980B200F0DBF900F0C3F9451BADB20600A5420ED380237C1C5B029C42E7
:202AE00002D30948FFF706FF27003500E9E70229E6D20224E4E7022F02D90120FFF78EFD07
:202B0000F8BDC046FFFF0000A96B0008F8B5194B140099838260184A0D0042601A690260C7
:202B20005060186180235B029C4218D3134C2819802780B200F094F902267F0200F08AF991
:202B4000401B80B284420ED80136BE4202D30C48FFF7D0FEA81980B200F092F9EEE7022CA7
:202B6000E5D20224E3E7022E02D90120FFF756FDF8BDC0463C0500204C050020FFFF0000AE
:202B8000A96B0008F8B505000C0000F063F90F4B0F4F1A69BA4205D1010022002800FFF7C1
:202BA000B5FFF8BD9B8BC31A9BB2E618B34200D926009368B34202D92100FFF779FF3200DE
:202BC00029003800FFF75EFFEBE7C0463C0500204C050020F8B504000D0016001F00FFF7AE
:202BE000BDFC002C03D0002E01D0002D02D10648FFF780FE002329002761E660200063615E
:202C0000FFF7C0FFF8BDC046B46B000870B50400FFF7A4FC002C02D11848FFF76BFE184D3B
:202C20002B699C420CD023686268A16813605A609A6852189A6000232360013BAB6170BD3A
:202C40002368104A2B615A60002323602B69934202D100F00FF9F2E79A68A16852189A6027
:202C600000F0F8F8AB8B2A69C31A91689BB29942E5D9C91AFFF71CFFE1E7C0469C6B00081E
:202C80003C0500204C050020F7B5FFF767FC264E346900F0DFF8B28BA168831A9BB2234FE3
:202CA000994239D85218236895B26268B58313605A60002323603369BB4201D100F0DAF8EA
:202CC000FFF70EFC62B62000E3682169984772B6FFF7F4FB6369002BD9D000F0BBF86269ED
:202CE000451BADB20190531BAA4203D20220FFF795FC00233269BA4205D11A002000019948
:202D0000FFF704FFF7BD5A19AA4200D21A0021003800FFF7B7FEBAE73269BA42F2D0C91ADA
:202D2000FFF7C6FEEEE7C0463C0500204C05002070477047FEE70000F0B5082000240E4991
:202D40004A680E6815008B68AB4210D8D51E0026AB4203D303339B1A9B089E00CB68921988
:202D6000934207D8013810310028E9D1F0BD80CE80C5E9E710C2F3E7C06B000810B500F09F
:202D800035F800F063F810BD10B57446FFF7BAFB054800F06BF9054800F068F9FFF7C8FBCC
:202DA0002000FFF74FFB10BD606C0008706C000810B57446FFF7A6FB084800F057F9084838
:202DC00000F054F9074800F051F9074800F04EF9FFF7AEFB2000FFF735FB10BD806C000801
:202DE000906C0008A06C0008B06C0008144B154A996A10B50A43FC219A629A6AC9030A4091
:202E00009A629A6A1A69012252421A611A6900221A611A69D9680C4A0A438021DA60DA6859
:202E2000C9030A40DA60DA688022D96952050A43DA61DB6900F09AF8FFF71CFB10BDC04697
:202E400000100240FFFF81FFFFFFBFFF10B500F01DF810BD014B586A80B2704700200040F8
:202E60000022034B58631A610232DA607047C046002000400022014BDA6070470020004062
:202E8000014B58637047C046002000408023114A5B00D16910B51943D161D2690E4A91689C
:202EA0000B43FA2193600D4B8900D868FFF7B6F90B4B0C4A01389862DA6200229A615A63FB
:202EC000DA605A6001325A61022113201A6000F02DF810BD0010024000580140181100202A
:202EE00000200040FFFF0000094A10B51369D1680B40D9B2C94311619B0707D572B6FFF7B7
:202F0000DDFAFFF703FDFFF7EBFA62B610BDC0460020004010B57446FFF7F4FAFFF7E4FF82
:202F2000FFF706FB2000FFF78DFA10BD0322F0B5FF26C0250240D2009640890191400A4FBE
:202F400083089B00DB19AD005C591F22B4430C435C51012302409340C02240098000C01904
:202F6000520083500360F0BD00E100E0002201230848094910B5026042604C681031226033
:202F8000DC0001330251082BF7D10122034B52425A6010BD58060020506C000800000240C3
:202FA000F0B585B00400029100920393FFF7D6FA062C0AD801221700A7401E4B19680F4242
:202FC00007D00025280005B0F0BD1B48FFF792FCF7E71A4E20010190351801340098E4008E
:202FE00039431960E050164903981C196060486902434A614A69009A002A0BD05B68AA68F5
:203000001A4203D1E87B0299FFF790FF094A53683B4353600F20019BF1184B68497B1A68F1
:2030200082431A60019AB0580E228A40426000221A60C7E758060020406C0008506C0008D2
:2030400000100240F8B504000D0016001F0072B6FFF712FA3B00320029002000FFF7A0FFB6
:203060000400FFF719FA62B62000F8BD70B50268447B11680E25E140837B406829400068C4
:2030800001420BD00800A04001335060044ADB009C58002C02D0D2185068A04770BDC0466F
:2030A0005806002010B57446FFF72CFA0448FFF7DDFFFFF73DFA2000FFF7C4F910BDC04606
:2030C000506C000810B572B6FFF7F8F901210F200C4B1A6813688B4313600B4B1B685968D8
:2030E0000A6882430A60597B1A680E238B405360064B1B68002B00D09847FFF7F1F962B684
:2031000010BDC0469C06002000110020980600208022194B9202596910B50A4390215A6151
:20312000C022C9050868920002430A608022D96992050A43DA61DB69104A114B09211A608D
:20314000022000230F4AFFF77DFF0F4B0F4C104A1860436820009A6000F06CFA20000D4947
:2031600000F0B2FD702221684B689BB29343503A13434B6010BDC0460010024015100000EA
:2031800000740040C5300008001100209C06002010740040E0280100404BF0B51A600023F1
:2031A00087B005AA117053709170D370FF2205993B4D0C0A01901440EA180E0CE954967000
:2031C00004330E0E5470D670B82BF5D100221400AB18B83304321C705C709C70DC70302AC5
:2031E000F6D10E001024CF32164002960E0A16402C4B0396019A16B21A003032002E3FDA33
:203200002C321E00029F04333770039F77700F0CB7700F0EF7709A42F3D100271300160074
:20322000BC46303337006046043638707870B870F870B342F6D10198013C400080B201905D
:20324000002CD7D1E832190004330C704C708C70CC709A42F7D1144B521B1A60134B1B68F5
:203260005B68DD605A60124A1A600122196811431960104B1B6819680A431A6007B0F0BDC3
:203280001E00029F04333770039F77700F0CB7700F0EF7709A42F3D1BFE7C0469806002038
:2032A000A0060020880700200411002000110020922000009C0600200F200B4B1B685968F6
:2032C0000A6882430A60597B1A680E238B40012100205360054B1B681A688A431A60044A1C
:2032E000106159617047C046001100209C060020007400402B4B70B5186080232A4A9B0278
:203300005169C0200B4353619023DB051A68274C82431A608022196804250A4308211A600E
:203320005A68234E8A435A60DA688243DA604022D9681143D9609968814399609968200083
:203340000A439A601A6A1B490A401A621A6A1A6200F070F92368184A2000DA62174900F086
:2033600087FC022020237021B061336223689A6892B28A4310390A439A609A68593992B228
:203380008A432A439A60326A033D2A433262DA681043D8601420FFF7C9FD23681A681543FA
:2033A0001D6070BD08110020001002400C11002000400140FF0FFFFFFFFF000040420F007F
:2033C000F7B57646FFF79EF872B69527FFF776F8264B274C1B687F005D6B264BEB18BB4292
:2033E00008D80023244A23601360FFF733FD234B188024E02368013321D0204B00931B88E5
:203400000193FFF727FD019BC01A80B2032813D82B00C43BFF3BBB421AD8174B18684000CB
:20342000154B18602368013323600F2B1ADD144B1B68002B00D0984701235B422360FFF74B
:203440004FF862B6FFF774F83000FEF7FBFFF7BD0C4BED18BD42EFD80120074B1B685B0065
:203460001843DDE7FFF7F6FC009BC1E70C110020C804002035F7FFFF141100201011002029
:2034800008110020E5FBFFFF0A4B0B4A10B51A600023A6201900094C00011A1904331170E9
:2034A00051709170D1708342F7D1054B054A1A6010BDC0469C06002000140040A0060020B4
:2034C0000C11002000400140402330B5094C411865692B4363610824074B9C601A61074AF2
:2034E0005A61884202D1186880B230BD027801301A70F6E7001002400030024021100000CE
:2035000010B50C24064B07494A682240824204D0013B002BF8D1022010BD0020FCE7C04641
:203520000F2700000010024010B572B6FEF7C6FF10BD10B5FEF7D4FF62B610BD10B50C004C
:20354000FFF7F2FF236820001B689847FFF7F1FF10BD0000F0B50C009021C90588423BD1BE
:2035600080212F4D89026E693143696103216500A9400768CE438F430221A94007600768E8
:20358000394301600121A140002A45D142688A434260C2683240C260C268C260826832408C
:2035A00082600122AA4081680A438260A200072C02D92200083A92000721A14289410F2456
:2035C00094409340494289004118086AA0430862086A03430B62F0BD1249884204D18021AB
:2035E0000F4DC9026E69BFE70F49884204D180210B4D09036E69B7E70C49884204D1802121
:20360000074D49036E69AFE709498842AED18021034DC9036E69A7E7426811434160B8E7A2
:20362000001002400004004800080048000C0048001400480368254A934207D18022244B54
:20364000120199690A439A619B6909E08022D205934206D101221E4BD9690A43DA61DB6961
:2036600070471C4A934203D1194B0222D969F4E7194A934203D1164B1022D969EDE7174AC9
:20368000934203D1124B2022D969E6E7144A934204D180220E4B5200D969DEE7114A934247
:2036A00004D180220A4B52029969CBE70E4A934204D18022064B92029969C3E70B4A9342D7
:2036C000CED18022024BD2029969BBE7002C0140001002400004004000100040001400403D
:2036E0000020004000400140004401400048014010B50400FFF79EFFC02322681B0253643E
:203700008023116820690B431360A3690138D362237D013B59424B41063303280BD8FEF78A
:2037200073FD021D242C91691B010B4393610123116A0B43136201235361116819431160D2
:203740002E498A4203D08021C9058A421DD10223627D21896068FFF7FDFE10BD91691B03DE
:203760000B439361116A1023E3E7D1691B010B43D3618023116A5B00DBE7D1691B030B43D6
:20378000D3618023116A5B01D3E71D498A420BD1902360682189627DDB05984202D0194BBF
:2037A000984217D10123D6E717498A4208D1902360682189627DDB0598420BD10423CAE7EF
:2037C00012498A4208D160682189627D9024E405A042C0D10023BEE70D4B9A4202D00D4B62
:2037E0009A42BAD1902360682189627DDB05984201D10523AFE70223ADE7C046002C0140E8
:203800000004004000040048002000400040014000440140004801408021084A10B5936876
:203820008B4393600378002B00D110BDD4690C42FCD09BB213850130F4E7C04600380140BC
:2038400010B50248FFF7E8FF01BEFEE7C06C00083422014BDA60704700200240F7B5019072
:20386000FFF7F8FA0126050003270C4B3C00DA68324206D1DA683400520702D4DC682409D4
:203880003440FFF7E7FA019B401B80B2834203D9032CEAD02000FEBD0224FBE700200240E5
:2038A000024B034A5A60034A5A6070470020024023016745AB89EFCD10B52D20FFF7CEFFFF
:2038C0008023024A11690B43136110BD0020024070B505002D20FFF7C1FF002811D1022332
:2038E000084C22691343236140236561226913432361C0462D30FFF7B1FF2369024A13404D
:20390000236170BD00200240FD1F000070B506002D200C00FFF7A2FF002814D101230A4DD5
:203920002D302A6913432B61A3B23380FFF796FF002804D1240C74802D30FFF78FFF2B698C
:20394000024A13402B6170BD00200240FE1F0000F7B50331140001908E0872B6FEF78CFDCF
:20396000FFF7AAFFFFF79CFF3422134B2000DA60FFF7AEFF051E13D1B600331926000093A4
:20398000009B9E420FD0019B30001B1B9959FFF7BDFF071E0ED0094800F020FC3D0002E0A8
:2039A000074800F01BFCFFF787FFFEF775FD62B62800FEBD0436E3E700200240DF6C00081A
:2039C000CC6C000810B57446FEF79CFDFFF7ACFD074B1B68002B00D098470322054B5A611C
:2039E000FFF7A7FDFEF7A4FD2000FEF72BFD10BD2C1100200004014010B57446FEF782FDF8
:203A0000FFF792FD074B1B68002B00D098470C22054B5A61FFF78DFDFEF78AFD2000FEF728
:203A200011FD10BD301100200004014010B57446FEF768FDFFF778FD074B1B68002B00D0F1
:203A40009847064B064A5A61FFF773FDFEF770FD2000FEF7F7FC10BD3411002000040140E4
:203A6000F0FF00008023094A5B0211680B4380211360074B89021068084204D1013B002B4E
:203A8000F9D1012070470020FCE7C046001002400F2700000123084A11680B430221136020
:203AA000064B1068084204D1013B002BF9D1012070470020FCE7C046001002400F27000084
:203AC0008023094A5B0411680B4380211360074B89041068084204D1013B002BF9D10120EE
:203AE00070470020FCE7C046001002400F27000080230F4A5B02516B82B00B435363002310
:203B00000C490193019B8B420BD980210A4B8902506B084209D1013B002BF9D1012002B00B
:203B20007047019B01330193ECE70020F7E7C04600100240E60300000F2700001E4A10B5F5
:203B400050680007800F02280AD0032831D00138431E9841194B40421840194BC01810BD2D
:203B60000F20D16A536801409B0C034001319C1C834200D110245368C0228020520213405D
:203B8000400283420DD008D8002B10D080220D481202934206D06043E1E7934205D009483A
:203BA000F9E70748FEF73AFBF5E70748FAE70748F1E70548D3E7C0460010024000F7C2FF62
:203BC000001BB70000127A00006CDC0200093D00F0B5040087B01C4E1C4F02AD3100102230
:203BE000280002F05BFF7B6820001B061B0FED5CFFF7A4FF3100E8400822A0600500103158
:203C0000684602F04BFF6A467B68FA215B055B0FD35C8900DD405A1E9341013323740C4BFF
:203C2000E560D868FEF7FAFA01220A4B0138196891431960596A98625A61596219680A4396
:203C40001A6007B0F0BDC046B86A0008001002401811002000200040034B044A5B68D068C4
:203C60005B0500D540007047001002401811002070B50D00046805482100FFF7EDFF290066
:203C8000FEF7CCFA0138A06270BDC0461811002070B504680D0021000A48FFF7DDFFE16A84
:203CA0000131FEF7BBFA29000600FEF7B7FA00231A00AE425A41801AA06263620133636132
:203CC00070BDC0461811002070B504680D0021000948FFF7C1FFA16A0131FEF79FFA2900AE
:203CE0000600FEF79BFA00231A00AE425A41801AE062636270BDC04618110020054810B53D
:203D00004368054C120223401A4309011143416010BDC046001002400FF8FFFF032370B55F
:203D20001C4D02006C6808009C43023B032909D8FEF76AFA020F1A251000FFF7ABFE002893
:203D400002D00123180070BD6C60FFF7D9FB0300F8E71000FFF786FE02230028F2D1013BDA
:203D600023436B600430F0E71000FFF7A9FE04230028E7D1023B23436B600830E5E71000D1
:203D8000FFF7B6FE0028DCD1032323436B600C30DBE7C0460010024030B50C4C012023680E
:203DA000DB0112D40F250139E06A0B1CC9B2A843A94200D92B1CDBB203430020E3626368EE
:203DC000034992040B401A43626030BD00100240FFFFC3FF0D4B002904D15A680C490A40E1
:203DE0005A607047012906D1094A59681140802212020A43F4E7022905D1054A59681140AC
:203E000080225202F5E7C0225968FAE700100240FF7FFEFF30B501242200054B054D186831
:203E20000243A94201D80200A2431A6030BDC0460020024000366E0170B5084D0849E86803
:203E4000FEF7ECF904000649A868FEF7E7F9054B01002200180000F0ABF970BD18110020BB
:203E600040420F00F26C00080122074B19680A431A60022219681142FCD0012299690A4358
:203E80009A619B697047C0460010024070B504002600A4360D00FEF761FBB3680220002B25
:203EA00036DDFEF75BFB210094310A68B3681000013BB3606B782E781B023343AE78083058
:203EC00036041E43EB7808601B0633431E0A137056701E0C1B0E9670D3706B792E791B0230
:203EE0003343AE7936041E43EB791B0633431D0A137155711D0C1B0ED3712300903395719C
:203F0000984200D30C6020009830FEF7C3FC002070BD00000122014B1A74704718110020A2
:203F200070B50600002005008E4203D170BD0135002CFBD0745D2300413B2200192B01D884
:203F40002032D2B24B5D18004138192801D82033DBB2D01A9A42EAD0E8E7F0B5002802D169
:203F6000106800280BD0030018000D00047801332E78002E04D1002C0BD120001460F0BDFC
:203F80000135B442F4D1EFE72F000FE00134002E04D11C00013325781F000C002678B54257
:203FA000F4D1002DF0D00021013B19701760E6E7F0B505000E001700002487B000930CABB1
:203FC0001B78019330003900FEF7AEF903000800C2B231001E0013003733DBB2092801D8D3
:203FE0003032D3B202AA013403321355B942E9D226002B68009A1B6896420BD303AB013C2F
:020000040800F2
:20400000E15C2B6828001B689847002807D1002CF4D105E0280001999847002802D00C20A9
:2040200007B0F0BD0136E4E7F0B50B000500140087B019785A1C0492002905D12B682800C3
:204040005B68984707B0F0BD252904D02B6828001B6898473FE05A780392302A14D1023321
:2040600004930026049B19785A1C0B00303BDBB20492092B03D92A2909D108CCDBB20A217B
:204080004E439E191300EEE720230393E9E72E290BD11178531C0A00303A0493092A02D903
:2040A0002A2902D104341A00F3E7632935D015D8412957D003D82529C8D0049BB9E7532923
:2040C0002ED05829F9D1039B10220093330002CC2800FFF76DFF0028EFD0AFE773291FD0A1
:2040E00014D8642901D06929E7D180CC002F07DA2B682D2128001B68984700289ED17F420D
:20410000039B0A22009339003300E1E77529D4D1039B0A2200933300D9E702CCC9B295E7B6
:2041200027683800FEF750F90590002F02D03978002902D1059BF61A10E02B6828001B6859
:20414000013798470028F0D078E72B6828001B6803999847013E002800D06FE7002EF4DCBD
:204160000434AAE700262368A768039363680593059B9E4201DB0C349FE7002E0DD1039BF1
:204180001022995D3023280000932E3BFFF710FF002800D052E70136EAE7002FEFD02B68C1
:2041A00028001B68F9B298470028E8D046E700000FB413B504AB10CB019372B6FEF75CF9A2
:2041C00021000548019AFFF72FFFFEF765F962B613BC08BC04B01847A83100200FB407B529
:2041E00004AA02CA03480192FFF71EFF03B008BC04B01847A8310020F7B504000F001E00F4
:204200000192384BE35C002B60D08022E1684B68D8691042FCD00F251A68334802401A6004
:20422000A26853681868A84318601068527B94460E226546AA404260019ADF605A604A6A08
:2042400020218A431A60012219680A431A60FEF701FE3E22E36805005B6830001A85FA2219
:2042600000239200002102F07FFA00231F4A80185941FA2200239200FEF75CF80600A36814
:204280005B685868002825D10F25A26853681968A9431960557B11680E22AA404A60144A33
:2042A000A218DA60802252005A60E268516A1960516880220D68D2012A430A6000210D4AEC
:2042C000A150012219680A431A60FEBD0120FEF7CFFB96E7FEF7BEFD431B9BB29E42CED28F
:2042E0000220D1E718100000FFBFFFFFE7030000281000002410000008B4034B9C46034B70
:20430000C01A08BC6047C046F94100082C1100000EB403B5054B03AA02CAC0180192FFF72F
:2043200083FE02B008BC03B01847C0462811000008B4034B9C46034BC01A08BC6047C046B0
:20434000114300082C110000F7B50C00902117001A0008AB1B78C905019388423ED1802108
:20436000304D89026E693143696103216500A9400368CE438B430221A9400360036819432E
:2043800001600121A140002F48D147688F434760AA40C1683140C160C1680A43C260826822
:2043A000324082600122AA4081680A438260A200072C02D92200083A92000721A142894109
:2043C0000F249440019B4942934089004118086AA0430862086A03430B62F7BD124988423D
:2043E00004D180210F4DC9026E69BCE70F49884204D180210B4D09036E69B4E70C49884219
:2044000004D18021074D49036E69ACE709498842ABD18021034DC9036E69A4E7476839433A
:204420004160B5E7001002400004004800080048000C00480014004873B50400890332D5E2
:2044400001236A465371FEF789F8174D2E00AC363368002B27DDFEF781F82A003368943217
:20446000013B33601368210A1800083010605970210C9970694609791C7019716946497950
:20448000240E597169468979DC7099716946C979D971064B2900984200D21168943504482A
:2044A0002960FEF7F7F973BD681D0020F81D0020001E002010B57446FEF724F872B6FDF79A
:2044C000FDFF0A4B0A4AD9691A620A4B1868002802D003681B689847FEF702F862B6FEF7E1
:2044E00027F82000FDF7AEFF10BDC046003801405F1B12003811002010B57446FEF702F82D
:2045000072B6FDF7DBFF0A4B0A4AD9691A620A4B1868002802D003681B689847FDF7E0FFCF
:2045200062B6FEF705F82000FDF78CFF10BDC046004400405F1B12003C11002010B5744603
:20454000FDF7E0FF72B6FDF7B9FF0A4B0A4AD9691A620A4B1868002802D003681B689847B1
:20456000FDF7BEFF62B6FDF7E3FF2000FDF76AFF10BDC046004800405F1B120040110020C7
:204580000F4B10B5C158C2180E4B521AC358934200D91300812252018350002B0ED0002472
:2045A000094BC45443685B68D96082585A60C268126A1A60012219680A431A6010BDC046F6
:2045C000101000001C1000001810000010B50F24436859680A68A2430A60597B1A680E23BB
:2045E0008B40536081230C4A5B01C45883580B491B1B8350425812194418A24206D2425024
:20460000002B06D10122064BC25410BD02001032F5E7FFF7B5FFF8E71C100000101000004C
:204620001810000010B5FFF7D1FF10BD802230B50C4C0300055952010C20954210D20A4A2E
:204640009858451C9D500170084998585918884202D319001031995000201A5901321A51E6
:2046600030BDC0461C100000141000001010000010B5FFF7DBFF10BD08B4034B9C46034B3B
:20468000C01A08BC6047C0467146000828110000034B10B5C35C002B01D0FFF771FF10BD76
:2046A0001810000010B5FFF7F3FF10BD08B4034B9C46034BC01A08BC6047C046A5460008E0
:2046C0002811000082680300526830B5506880220B4D52005C59121A121B01D50132FF32C9
:2046E0000B20002A0BD0621C5A51064A1C19A418227800200A705A59FF2A00DD585130BD9D
:204700002410000028100000F0B585B01F000E0001920400FEF79EFB0021FA2202ABD971CD
:20472000920000230500380002F01EF800231F4A80185941FA2200239200FDF7FBFD0700FD
:2047400002ABD91D2000FFF7BDFFFEF783FB401B80B2874228D302ABDB793E2BF0D1E168AC
:2047600042334868C2691A42FCD00F256268096A536814681868A8431860507B0E22824079
:2047800001986260DE605860022081431960012118680143196058680028FCD11968A943E8
:2047A0001960626005B0F0BD0220FBE7E703000008B4034B9C46034BC01A08BC6047C046E9
:2047C000094700082C110000C36810B512CB074B9C4202D0064B9C4204D10648FDF71EFD14
:2047E000E06010BD044BD868F8E7C046003801400044004000127A0018110020F7B5C6688C
:20480000624B0400B068B189C5186B1E9D410023EDB21A0000952836FFF796FD3378032B20
:2048200002D15B48FFF736F9E7685A4B7E680320F218531E9A4112019040574B196B8143BD
:204840001963390028310978186B91400A0002431A63524A964200D072E080229969D2019C
:204860000A439A619B694E4B1C602000FFF7ACFF0023B8697360032805D18023494A9B002D
:2048800011680B43136023000921474AFEF7DAFBE668426873686060190028319160316AA5
:2048A000306911600122414962540C211960B43199609023DB05984259D03D4B984200D13E
:2048C00000250123B18A1A000095FFF73DFDF069042805D18023334ADB0011680B431360E5
:2048E000002309211A00FEF7ADFBE16842684B68A0601800243090602E48496A2018D06021
:2049000080204000506011600121106801431160A022596812050A435A6080221968D201B0
:204920000A431A601D4A934223D10F211B20FEF7FDFAE3685A68012311680B431360F7BD0A
:204940001D4A964207D18022D96992020A43DA61DB691A4B88E71A4A964200D085E780220E
:20496000D969D2020A43DA61DB69164B7CE71500A7E7114A934202D10F211C20D7E7104A67
:204980009342D6D10F211D20D1E7C04600FCFFB71811002000C8FEBF001002400038014025
:2049A000381100200000014025460008181000000004004828100000004400403C1100203D
:2049C00000480040401100200022014B0CC0704700F80008F8B5436804000D00160001333A
:2049E00003D1002303600F4B436027000837002229003800FEF768FD3388834202D030801B
:204A00001520F8BD290038006268FEF7A1FF002806D163685B19636023685B192360F0E792
:204A20000120EEE700F8000870B50D0001680400012000290FD000220948FEF745FD2B885B
:204A4000834209D1200022680821A260E360054A0830FEF77DFF70BD28801520FBE7C046B5
:204A600000F8000800F00008014B024ADA60704700ED00E00400FA050022024B1A60013AC1
:204A80005A60704744110020F8B5060072B6FDF7F3FCFEF711FFFEF703FFFEF7D9FE13484F
:204AA000FEF716FF00280AD01148FFF797FB0124FEF702FFFDF7F0FC62B62000F8BD0527F5
:204AC0000A4D3A006A430B4B2800F3189958FEF71DFF041E01D00848E7E7084B04359D4291
:204AE000EFD1E1204000FEF7B9FEE1E700F80108546D00080028F6D7666D000830F8010876
:204B00000300F0334268026014309842FAD17047030070B50B4A0C4D11689C680432A14257
:204B200009D3DC680134A14205D819601433AA42F2D1064802E0FFF7E3FF0548FFF738FB73
:204B400070BDC04600F8010830F801088D6D0008736D00080321474BF0B5D9604649474E4E
:204B600019614749DE6459623F21092659634549002204200725FE24996301211E655E655D
:204B8000414E1D621A605A609A605A619A61DA619A62DA621A63D863186459649C649965C1
:204BA000DC651E6658661C67384C1E005C67FC249C67DC671C18E267354C0836F4671E006F
:204BC000344F883637601E008C3630601E0090363060986618001E00943002603C20983695
:204BE00030601E002C4F9C3637601E00A03632601E00A43632601E00A83632601E00AC3685
:204C000030601800254EB03006601E006420B43630601E00B83630601800BC3001601800FE
:204C2000C030046018001E4CC43004601C005A20C83420601C00CC3420601800D03001601F
:204C40001800FF24D430D96604601800154CD83004601800DC3001601800E0300160190066
:204C6000E4310A601A00E83215600F4AEC331A60F0BDC0464C1900209F6D0008B46D0008A5
:204C8000A76D0008AE6D0008BB6D0008CC6D00080F270000D96D0008E86D0008F96D000815
:204CA0000A6E0008196E00081F6E0008C046704710B50400FDF752FC2368002B02D02000E0
:204CC000FDF7A4FF10BD10B572B6FDF7D5FB10BD10B5FDF7E1FB62B610BD00009023DB05E5
:204CE000984206D18023134A9B0251690B4353617047114B984204D180230E4ADB02516956
:204D0000F4E70E4B984204D180230A4A1B035169ECE70B4B984204D18023064A5B035169FE
:204D2000E4E7084B9842E3D18023024ADB035169DCE7C04600100240000400480008004889
:204D4000000C00480014004870B504000D00FDF705FC636C002B21DDFDF700FC636C297820
:204D6000013B63646B78E26A1B020B43A978101D09041943EB78E0621B060B43190A137025
:204D80005170190C1B0ED370230024339170984200D3E46220003030FDF77CFD70BD70B514
:204DA0000D000400FFF78FFF29002000FFF7CCFFFDF72AFDFFF78CFF70BD0000802307B52C
:204DC0009B02034801A90193FFF7BEFF07BDC046C81C002013B50C0072B6FDF76FFB0023AF
:204DE00001A9019303484C80FFF7AEFFFDF778FB62B613BDC81C002007B56B4698806A4633
:204E000005230348D38001A9FFF79EFF07BDC046C81C002001230A6889888B4093627047A3
:204E20000222002310B504882100914002324B409BB2102AF8D13F2142789B0B0A409B0133
:204E40001343437010BD000070B504000025FDF785FBA368AB420AD108342000FFF728FF6E
:204E60002B0024212000034AFDF7B4FE0135280070BDC046AD4C0008134B37B55D690123E9
:204E8000124CA28893401D420BD02000FFF7DCFF002806D080230E485B0201A90193FFF704
:204EA00053FF0123A28C93401D420BD02000FFF7CBFF002806D0802305485B0201A90193D8
:204EC000FFF742FF37BDC04600040140681A0020C81C002037B5114D04002B68002B09D1D0
:204EE0000368012B06D180230D485B0201A90193FFF755FF6B68002B09D16368012B06D1C1
:204F0000802307485B0201A90193FFF748FF23682B6063686B60A368AB6037BD5C1A00207B
:204F2000C81C00200120074B1B68834208D0064A136892881B69904003405A1E9341D8B288
:204F40007047C0465C1A0020681A002073B505000C00002807DC002301A901930A484C8099
:204F6000FFF71DFF73BDFFF7AEFE084E3000FFF79FFEFA218900230030006943044AFDF74F
:204F800029FEFFF7A5FEEDE7C81C0020401A0020D54D0008F7B507000D00002807DC0023E7
:204FA00001A9019312484D80FFF7F9FEF7BDFFF78AFE104C2000FFF77BFEFA22002338000B
:204FC000F917920001F0D0FB00230B4A0B4E80185941FA2200239200FDF7ACF92B000100DA
:204FE00032002000FDF7F6FDFFF772FEDEE7C046C81C0020401A0020E7030000D54D0008B5
:2050000001235B428362002310B543620368C1611B680162984710BDC36910B5002B07D14A
:20502000036A002B04D1002902D0FFF7E9FF10BD4162FCE7C36910B50400002B0BD0FDF7E8
:205040008DFA6368002B02D0201DFFF731FE0023E36123626362236820005B68984710BDD4
:2050600070B5FFF730FE1248124BC26912499A421AD1FFF7D1FF114D114B2A00FC32926A0F
:205080009A4208D0B0260024760028195834FFF7D1FFB442F9D100220A4B1A60FFF718FE9C
:2050A0000948FFF785F870BDFFF7AAFFE3E7C046141D0020C070000860700008201F0020D0
:2050C00040710008101D0020276E000870B50024114B05001C60FFF7F6FD1048FFF7AAFF27
:2050E000B026FFF7F5FDFFF7EEFD0D48FFF7A2FFFFF7EEFD7600FFF7E6FD0A4820185834DF
:20510000FFF798FFFFF7E4FDB442F4D1002D02D10548FFF74DF870BD101D0020181E002018
:20512000701E0020201F00203B6E0008F8B50600FFF7C9FDFEF7C0F8194C0125270060374C
:2051400020000830FFF7B4FD2900A2882368914020349962BC42F3D12900124A124C938892
:20516000928C994095400022104B114859615D61104B1A70226D104B1A60626E0F4B1A6028
:20518000FFF796FDE26B0E4B1A60FDF763FE0D4B1880FFF79DFD3000FFF798FFF8BDC04619
:2051A000B01A0020681A00204C19002000040140401A0020A81A0020181B0020AC1A002004
:2051C000581A0020141B0020F0B5614C85B0200009213C30A462E462FDF726FB2000012708
:2051E00000213030FDF720FBFDF792FF5948FEF781F8594D2C68AB792000AE880393FFF74B
:205200006DFD03217300DBB29940226820358A4322603A009A402068104320603800B04062
:20522000636883436360039B6068B34003436360E3688B43E360E368E360A3688B43A360F2
:20524000A3681A43454BA260AB42D3D10127444D2C68AB792000AE880393FFF73FFD032011
:20526000F3B25B00DBB29840226882432260E26882430398E260984003000320E26813436E
:20528000E360384B9A693A439A619B69B308364ADBB29B009B189A681100F2B20240920028
:2052A0000C309040814331489960844206D138009040020099680A439A6010E02C48844293
:2052C00005D10221986891400A000243F4E72948844231D1032191409868014399603A0035
:2052E000B240254B0720196811431960596891435960996811439960D9689143D9605A6132
:205300005A61032E03D8B742B641704205300F21FDF70CFE194B2035AB4299D10020FFF79B
:2053200005FF0022D4210092154B803249001548FDF756FB05B0F0BD13498C4202D104213F
:205340009868C0E711498C42C9D105219868BAE7C81C0020F94D0008B01A0020101B002096
:20536000681A002000100240000001400004004800080048000C004800040140A81A0020E1
:205380000D580008201B0020001000480014004801235B428362002310B543620368C161D1
:2053A0001B680162984710BD10B5FFF78CFC0F490F48FFF725FEFFF78BFCFFF784FC0D4C04
:2053C0000D482100FFF7E4FFFFF782FCFFF77BFC21000A48FFF7DCFFFFF77AFC084B094A47
:2053E000094812681968FEF7E3FE10BD58710008141D0020A8710008181E0020701E002077
:20540000181B0020AC1A0020446E0008012270B51A4B1B4C1A70E36D9B18226D934203D0C1
:20542000184A1368013B1360032223680721134093402200DC321268134D0A40134362696D
:2054400028000A4052011343A26A38310A40120213432A88C834920B920313432B80FFF731
:20546000DFFC2168094A2888C9B2FDF795FEFDF7F1FC074B1880FFF797FF70BDA81A00205D
:205480004C190020181B0020101B0020BD4D00083C1A002070B5FFF716FC1148114BC26954
:2054A00011499A4218D1FFF7B7FD104BB025998C1A6A01238B40002493616D000C480D492C
:2054C00020185834FFF764FFAC42F7D1FFF700FC0948FEF76DFE70BDFFF792FDE5E7C046D2
:2054E000141D0020C0700008A06E0008B01A0020201F0020E06F0008586E0008C36910B5AE
:20550000002B07D1036A002B04D1002902D0FFF73FFF10BD4162FCE770B5FFF7D4FB174850
:20552000174BC26917499A4217D1FFF775FD1648164B0200FC32926A154D164C9A420FD1E7
:2055400029002000FFF7DAFF0122134B1A60FFF7BFFB1248FEF72CFE70BDFFF751FDE6E7D1
:20556000FFF768FD0E48FFF765FD0E48FFF762FD29002000FFF70CFFE6E7C046141D002009
:20558000C0700008106F0008201F002040710008EC6F000828200020101D0020666E000840
:2055A000781F0020D01F002070B5FFF78CFB1748174BC26917499A4217D1FFF72DFD1648F5
:2055C000164B0200FC32926A154D164C9A420FD129002000FFF792FF0222134B1A60FFF7FC
:2055E00077FB1248FEF7E4FD70BDFFF709FDE6E7FFF720FD0E48FFF71DFD0E48FFF71AFD37
:2056000029002000FFF7C4FEE6E7C046141D0020C070000810700008201F0020407100088D
:20562000B070000828200020101D0020756E0008781F0020D01F0020F8B50600FFF743FBF5
:20564000334D344B2C000834B43320001F68FFF72FFB0123A9882A688B409361002F19D176
:2056600093622D4CB02720002C49FFF7C9FC00257F002B482B4928185835FFF789FEBD42C1
:20568000F7D1294B1868032826D8284DFCF7BCFD1C33392D2000FFF70BFBFA2200233800BC
:2056A0009200002101F060F80023214A80185941FA2200239200FCF73DFE2B0001001D4A9C
:2056C0002000FDF787FACCE700212000FFF7A4FC00212800FFF712FFFFF7FAFA164B3100DF
:2056E00016481A68FEF764FDF8BD15492000FFF793FC1449EDE714492000FFF78DFC134933
:20570000E7E713492000FFF787FC1249E1E7C046B01A00204C190020141D0020C0700008A5
:20572000201F002040710008101D002028200020E7030000154E0008581A0020876E0008B8
:20574000A06E0008E06F0008106F0008EC6F000810700008B0700008F0B5284D85B02B6860
:205760000190C00601AE800F984215D16B4630005C1D5F79FFF754FB2478BF09A309BB4250
:205780000AD1317807220B001340114206D11C4803A90393FFF703FB05B0F0BD194E3268D7
:2057A000002AF9DDAA6AA406A40E9442F4D0012BF2D1154F3B880093FDF74CFB2B00A033FD
:2057C0001A68FA239B005343009A801A80B28342E2D8AB6CEA6B01339A4202D03368013BEF
:2057E00033602000FFF728FF3368002B03DDFDF731FB3880D0E7FFF74DFECDE74C1900202A
:20580000C81C0020581A0020141B0020F0B50126002787B000230593FFF755FA4B4D0121BF
:20582000280049423030FDF70FF8002818D1AB6A58781A78000210439A78191DDB781204CC
:2058400002431B06134305932B002433994200D329003E4881623C30FDF71CF8FCF7D4FFF8
:20586000FFF736FA05AB58881A88002802D1FFF75DFCCFE7052806D1240C240414432000FD
:20588000FFF76AFFC6E7324B1B68002BC2DD01380328BFD8FCF7B8FC020D2F532D4B1B78F4
:2058A000002BB7D12C4B1B68002BB3DDFFF7AEFDB0E72A4B9D6F2A4B1B880393FDF7CAFA61
:2058C000039BFA22C01A83B200930023019392000023009801998019794100F045FFFA222B
:2058E000801BB94100239200FCF724FD0321281AFFF750FB8EE70022164B1A70164B1B683D
:20590000934205DDFFF70EFB002800D182E7CDE714490B68012B0FDD104D2A6F686E0132D4
:20592000904201D0013B0B608C35FFF7F5FD04212868FFF70BFB6DE7FFF736FE6AE7FFF7FE
:205940008FFB064A044B126D1A60DBE7C81C0020581A0020A81A0020181B00204C19002013
:205960003C1A0020AC1A0020002000210F4B104A186059600D219B62DB620E4B0E485960D5
:205980000131596201311A601A621A6459640B4B0B4919600B4B1A601A620B4A58605A627F
:2059A00000220A4B19600A4B1A607047C81C002000040048B01A00200300020030110020D1
:2059C000794E0008681A00200400020034110020101B002010B50400FCF7C0FD2368002B71
:2059E00002D02000FDF712F910BD10B5FEF798FA43425841C0B210BD0369034A9B1802686A
:205A00009B00D31859637047FFFFFF3F10B500213430FFF7F1FF10BD002110B53430C161E8
:205A2000FFF7EAFF10BD000010B5421C02490020FF32FEF792FA10BDC071000810B5036844
:205A400001491B68984710BDC371000810B5036801491B68984710BDC871000810B5036877
:205A600001491B68984710BDD371000810B5036801491B68984710BDDE71000884B070B508
:205A800005910692002134220400079300F0F8FF01235B42A3622100230000222D312C33F3
:205AA0001A700A704A708A705A71094B05AD2360079B63632300383343CD43C343CD43C3B8
:205AC0000B9B20002265636570BC08BC04B018478073000870B50500040034352800FDF700
:205AE00007FE2800616DFEF7D3F8002128002165FFF782FF70BD0000F8B5041D0500200085
:205B00000F00FFF767FFFA22380000239200002100F02AFE0023084A084E80185941FA22BF
:205B200000239200FCF706FC2B00010032002000FDF750F8F8BDC046E70300003D350008E2
:205B4000F8B50500076A34357968040089B22800FFF752FFFE68B968002E08D128002165EE
:205B6000FEF796F8236A002010332362F8BD236D8B4214D264332365216D2800FEF788F8EB
:205B8000236A216D9A689142EDD0D8680431FCF745FB411C2000FFF7AFFF0120E6E78B42D4
:205BA000EAD9643BE7E70000F8B5041D050020000F00FFF70FFFFA22380000239200002185
:205BC00000F0D2FD0023084A084E80185941FA2200239200FCF7AEFB2B000100320020001E
:205BE000FCF7F8FFF8BDC046E70300003D35000870B5046A036D617905008B420FD0A678F0
:205C0000627836021643E27834301204324326793606164307D1296589B2FFF7EDFE0634E0
:205C200000202C621EE08B421DD201332B65296D89B2FFF7E1FE296D63799942EFD0A2786C
:205C4000637812021A43E37820791B041343000689B218430431FCF7E1FA411C2800FFF775
:205C6000A3FF012070BD8B42E1D9013BDEE713B50C00FFF7D9FE0123002808D0002201A91B
:205C800000F0F2FE019B1B78002B02D12060180016BD0D23FBE70000F0B50500FC3504009B
:205CA0008BB0B8496869FFF7A0FE002803D02000FFF7C4FE0CE0B4496869FFF796FE002804
:205CC00008D02068B14B0568B14A2000B149A8470BB0F0BDB0496869FFF787FE061E09D04D
:205CE000AE4BAF4AAF49B0481B6812680968FEF75FFAEDE7AD496869FFF777FE002803D005
:205D00003000FFF713FAD2E7A9496869FFF76DFE061E11D0A74C636810210293E368A648B1
:205D20000193A368009323682269FEF741FAA34B14349C42EFD1CBE7A1496869271DFFF770
:205D400054FE002824D19F496869FFF74EFE0590002840D09748FEF797FE002839D19A488F
:205D6000FEF726FAB4E7934D20002969FEF7D8F800281ED1079AAB689A4215D3EB68013306
:205D80009A4211D8210091482A60FEF711FA01363800FFF749FE041E13D0380007A9FFF72B
:205DA00066FF0028DFD00CE021008948FEF700FA8EE7824B14359D42D6D121008548FEF7E6
:205DC000F7F931008448FEF7F3F90020FFF7AEF97EE78248C4E782496869FFF706FE061EA4
:205DE00003D07448FEF794FEEFE77E496869FFF7FCFD002811D0079608960996B10007ABEA
:205E000038005918FFF733FF002802D10136032EF4D107A8FFF75EF849E773496869FFF7DB
:205E2000E4FD002816D0380006A9FFF720FF002803D02000FFF70AFE4AE7380007A9FFF74F
:205E400016FF021EF5D107990698C9B280B2FDF7A3F92CE765496869FFF7C7FD002814D074
:205E60003800FFF7E1FD0028E3D0002207A900F0FBFD079B1B78002BDBD15D4BC0B21861E2
:205E800019695C48FEF794F911E75B496869FFF7ACFD061E06D00120FFF748F95748FEF768
:205EA00093FD04E756496869FFF79FFD00283ED0544D554B38002B60FFF7B6FD0028B8D0D2
:205EC000320007A900F0D0FD079B06001B78002BAFD18022431E12019342AAD2380007A9EE
:205EE000FFF7C5FE0028A4D1236832005F6820004649474BB84700280FD1434B06AA2B60B7
:205F0000079B31003D481380FEF764FD022808D0152827D0002800D1C9E62000FFF7A6FDA9
:205F2000D6E63C49236820001B689847D0E63A496869FFF75AFD002822D0324B324A380071
:205F40001A6007A9FFF793FE002800D071E7079B2A4D06A928000B80FEF766FD002805D070
:205F60001528DAD12000FFF779FDB1E62000FFF765FD2D20FCF77CFD2800FEF775FDA7E6C9
:205F80002649CFE7E8710008ED710008F5710008037200080A7200081A720008AC1A00202C
:205FA000181B0020581A0020217200083F720008477200084C190020537200083C1A00201F
:205FC000F1720008BD720008CA720008837200088D7200089F720008AD720008D27200084B
:205FE000E0720008ED720008F5720008FA72000800740040FE7200080273000844110020DF
:020000040800F2
:206000001273000800300040AAAA00004C11002094110000207300082A7300083E73000814
:20602000F0B589B0002306AD6B7172B6FCF724FA012140484942FCF707FC0024A04224D171
:206040003D4A170090373B681E0058781978000208439978DC7809040143240658790C436C
:206060001979000208439979083609040843D979090601436960BE4200D3160090322F4809
:206080001660FCF707FCFCF7BFFBFCF705FA62B66B790193012BC5D104ABDD1D29002000B1
:2060A000FEF710FB0028BDD1254B264A2E78E718A518254A7B7AA2180292002B0FD0002309
:2060C0007B72AB60FCF7C6FE029B204A9881AB68082E0FD1002BDFD0013BAB60DCE7029B47
:2060E0009B890393FCF7B6FE039BC01A80B26328E5D8E7E70D2E01D00A2E13D1002BCBD091
:206100000021E3189954124B1249E2180F4BE018FDF723FF019B28617B720F4BE018FFF702
:20612000BBFDB9E7FE2BB7D8591CE318A9609E54B2E7C046001E0020681D00200C1E002018
:206140002F1200002C1200002E1200003011000030120000C07100082C11000070B504005E
:2061600001250430FFF736FC6D42236A18780428FDD8FCF749F8030A35501B002368200044
:206180009B6898470128F0D170BD99785A7809021143DA7812040A431979063309061143E1
:2061A0002362E2D02000FFF7FFFCEDE7A26A01320AD19A78597812020A43D97809041143B3
:2061C0001A7912060A43A262A26A002A03D10633A5622362C9E7E369013A2362A262C4E789
:2061E00099785A7809021143DA781B7912040A431B06134306225A43E3699B182362230031
:2062000031331B78002B04D021000E482C31FDF73DFE0121C6E7230031331B78002B04D09D
:20622000210008482C31FDF731FE636A002B02D1E3612362A8E7E36123620023A562636292
:2062400093E7C046681D002070B572B6544B554A5549591801CB08609342F9D1BF22534B2D
:206260005204996A03250A439A629A6A5049514C0A409A629A6A19694F4A20000A431A61CD
:206280001A694E490A401A611A69D9684C4A0A43DA60DA684B490A40DA60DA68012299697D
:2062A0000A439A619B69484B484A1D60102311680B4313601421FDF7ADFD2000FDF7D2FBCF
:2062C000002856D000252000FDF782FCFCF756FDFCF7FAFA3E4B12211A00903213601A0067
:2062E0003C4894321360FCF79FFA00213A48FCF79BFA3A48FEF782FA394A3A493A48FDF7BB
:2063000057FF002D02D13948FDF752FF2000FDF793FD3748B0253430FDF7EAF93548FEF7BC
:20632000F7FB00246D00344820185834FFF7D2FBAC42F8D13148FFF7CDFB3148FFF7CAFBB5
:20634000304C2000FFF7C6FB72B6FCF795F801235B42A3622C4B2000E36123620023636234
:20636000FFF7FCFEFCF798F862B6FEF72DFFFFF757FE02212000FDF72DFD29002A00200052
:20638000FDF70AFD011E9DD102002000FDF7B6FC02212000FDF7C2FC43425841C5B292E7AA
:2063A00000200008C020000800E0FF1700100240FFFF81FE181100203349EE7ACCB61185C3
:2063C000015A4700FEA5B8FF0000014000200240681D00200C1E0020001E00208020002031
:2063E000F5710008037200084B73000854730008141D00204C190020201F0020181E002092
:20640000701E0020C81E00208C73000870B5040001250430FFF7DEFA6D42236A1878042878
:20642000FDD8FBF7F1FE030A24351300236820009B6898470128F0D170BD59681033236200
:206440000029EAD02000FFF757FBF5E7A26A013201D15A68A262A26A002A03D11033A562EA
:206460002362DAE7E369013A2362A262D5E75A68E36912019B182362230031331B78002B6C
:2064800004D021000D482C31FDF700FD0121D9E7230031331B78002B04D0210007482C319C
:2064A000FDF7F4FC636A002B02D1E3612362C3E7E36123620023A5626362AEE7681D0020C8
:2064C0008A4BF0B51A00903213601A00002000219432186059601360E123854A5B0213608B
:2064E000844B042153600923D360013353618833136285235B015362130090250024D161A7
:206500002833013919707C4BED050130956015619061DA6079497A4A5C605A5079499C6033
:206520005A50794A79499854794A8DB09C5004329C50784A06279C50774A9C50774A9C50FD
:20654000774A9C50774A9C50774A06951A60774A09905A50764A774907945A508023DB05BF
:206560000893FF236A460B93013BFF3B03930A9409AB62CB62C2902180232200C905DB053D
:206580006D48FFF77BFAFF2101230B916B496C4D059169466B4A09930A93023B06920797E8
:2065A0000895039309AB45CB45C13A002B0065490598FFF763FAFF2101230B91624902202E
:2065C000059169465F4A01370A93023B0797069208950990039309AB45CB45C13A002B008A
:2065E00058490598FFF74AFA08200123554AFF2106926A4607900A930538023B08950990EC
:206600000B91039309ABC2CBC2C250482B0008224C49FFF733FA4B4A012306920922FF2142
:206620000792053A09926A460A93023B08950B91039309ABC2CBC2C245482B00092241495C
:20664000FFF71CFA9022D2050692802201230225FF21D20508926A460793023B1F0009954B
:206660000B9103930A9409AB62CB62C2902180230122C905DB053748FFF700FA9022D20528
:20668000069280220225FF210320D20508926A46079509900B910A94039709AB62CB62C227
:2066A000902180230222DB05C9052B48FFF7E6F92A4D24222100281D00F0E2F92B003133EF
:2066C0001C70274B90222B60264B08206B632B640123D2056B64AB641533AF62EC62AA63FC
:2066E000E863EB642C650DB0F0BDC046681D0020C0320020003801408020002010100000EF
:20670000902000201410000018100000281100001C1000002410000030120000341200003C
:20672000381200003C120000186D0008386D0008486D00082C110000C81E0020201F002028
:206740000004004000080048781F0020D01F002028200020181E0020701E0020141D002022
:206760006C730008002C0140F0B5CE469946030C9C46130447461B0C1D000E006146040497
:20678000240C80B50700100C4B436543414360432C0CC01820188C46834203D980235B0259
:2067A0009846C444494679435643030C2D042D0C8919634400044019C918C0BCB946B0469E
:2067C000F0BDC046F0B557464E464546DE46E0B504000D009246994683B08B4230D82DD01F
:2067E00049465046FBF7C6FD290006002000FBF7C1FD331A9846203B34D49B4653465A4618
:20680000934042461F00534693401E00AF423BD8AF4200D179E05B46A41BBD41002B00DAF2
:2068200076E0002200230092019301235A4693400193012342469340009329E08242CFD9E5
:2068400000220023009201930C9B002B01D01C605D600098019903B0F0BCBB46B246A94678
:20686000A046F0BD42469B4620239B1A5246DA40414613004A468A40170042461F435346E4
:2068800093401E00AF42C3D900220023009201934346002BD8D0FB0772081A4346467B08CB
:2068A0000EE0AB4201D1A2420CD8A41A9D41012024196D410021013E24184D41002E06D08D
:2068C000AB42EED9013E24196D41002EF8D1009801995B4600196941002B24DB2B005A4658
:2068E0004446D3402A00E2401C005B461500002B2ADB26009E40330026004746BE40320093
:20690000801A9941009001919EE7A342BCD882E74246202300219B1A002200910192012270
:20692000DA40019285E7424620239B1A2A0046469A402300F340444613432A00E2401C0090
:206940005B461500002BD4DA42462F002023260097409B1ADE403B003343CDE7F0B587B09D
:206960001E00059001910292012B48D00B00242E45D83B4A082194461A0060461478013378
:20698000005D1D0007000F400842F5D12D2C3DD101271C78951C002E5ED0102E09D1302C73
:2069A00007D120222B789343582B50D110266C7802352C4B3100FB1818000393FBF7B4FC44
:2069C0000022049101218446100049422300303B092B03D9113B192B1DD80A339E421EDD3E
:2069E000541C09D00A00844506D302D1049C9C4202DB0122704318182C780135E6E700F0D7
:206A000047F816230360002007B0F0BD2B2CC2D11C78951CBFE72300613B192BDDD9531C1A
:206A200009D12223059A03981360029B002BEBD06B1E019307E0002F00D04042029B002BBA
:206A4000E2D0002AF4D1029B019A1A60DCE73024002EAED10836ACE7302CA2D00A26A8E7C1
:206A600099730008FFFFFF7F10B5044C13000A0001002068FFF772FF10BDC0461805002054
:206A800003008218934200D1704719700133F9E7014B18687047C04618050020002310B5B1
:206AA0009A4200D110BDCC5CC4540133F8E70000F8B5C046F8B5C0460000000000000000A3
:206AC00001020304060708090000000001020304535623340053562335005356233600532E
:206AE00056233700535623380053562339005356233130005356233131006D61696E006974
:206B0000646C6500737461636B206F766572666C6F7700636853636852656164794900630C
:206B20006853656D5369676E616C4900636853656D5761697454696D656F75745300636897
:206B400053656D4F626A656374496E6974006330000000004E6B0008C8020020C8040020FB
:206B600098050020500600206368546864536C656570530063685468644372656174655319
:206B8000746174696300636854686443726561746553757370656E64656449006368565438
:206BA000446F52657365744900636854696D65416464580063685654446F5365744900007E
:206BC000F8740008243400202434002024340020F874000800000000000000000000000065
:206BE000F8740008000000000000000000000000F8740008000000000000000000000000AD
:206C0000F8740008000000000000000000000000F87400080000000000000000000000008C
:206C2000F8740008000000000000000000000000F87400080000000000000000000000006C
:206C4000646D6153747265616D416C6C6F63490000000240080002400100000000000009CC
:206C6000000002401C000240060000000004010A0000024030000240060000000008020A91
:206C8000000002404400024078000000000C030B0000024058000240780000000010040B27
:206CA000000002406C000240780000000014050B0000024080000240780000000018060BA3
:206CC0000D486172644661756C740D00466C617368206572617365206572726F720D004664
:206CE0006C617368207772697465206572726F720D00414842467265713D25754D487A3BD0
:206D000020415042467265713D25754D487A0D0000000000000000003944000871460008BB
:206D2000A546000811430008F941000809470008D8EEFFFF0000000079460008AD460008E4
:206D4000D4EEFFFF0000000031430008F9420008B14700080D5061676520457261736520FA
:206D60006661696C0D005772697465204661696C0D0A0044656661756C742073657474699E
:206D80006E6773206C6F616465640D0A0053657474696E6773206C6F616465640D0A0046D4
:206DA000696768744944005465616D49440047756E494400486974436E7400526F756E647D
:206DC00073496E4D6167617A696E65004D6167617A696E6573436E740053686F74735065D3
:206DE00072696F645F6D73004D6167617A52656C6F616444656C6179004D696E44656C61D6
:206E00007942657477486974730050756C73654C656E4869745F6D7300545850777200500E
:206E20006B745479706500234D6167617A696E6552656C6F616465640D0A00235265736599
:206E4000740D0A002353686F743B2025642F2564206C6566740D0A00234869747320456EDA
:206E60006465640D0A0023526F756E6473456E6465640D0A00234D6167617A696E65734532
:206E80006E6465640D0A00234869742066726F6D2025643B202564206C6566740D0A0000B5
:206EA000000000000B000000040100000000000001000000C80000000000000000000000F9
:206EC000000000000B000000A00000000000000001000000C800000000000000000000003E
:206EE00000000000000000000000000000000000040000000300000000000000000000008B
:206F0000030000000000000000000000000000000000000001000000B807000000000000AE
:206F2000010000004800000000000000000000000000000000000000000000000000000008
:206F4000010000004800000000000000000000000000000001000000B90900000000000025
:206F60000100000048000000000000000000000000000000000000000000000000000000C8
:206F8000010000004800000000000000000000000000000001000000900B0000000000000C
:206FA000010000004800000000000000000000000000000000000000000000000000000088
:206FC000010000004800000000000000000000000200000000000000000000000000000066
:206FE0000000000000FF0300000000000000000000FF0148000000000000000000000148FE
:2070000000000000020000000000000000000000000000000B000000CA0800000000000091
:2070200001000000280000000000000000000000000000000B0000001A040000905F01000E
:2070400000000000000000000000000000000000030000000000000000000000000000002D
:20706000000000000B0000009E070000000000000100000028000000000000000000000037
:20708000000000000B000000860B0000C0D4010000000000000000000000000000000000BF
:2070A000030000000000000000000000000000000000000000FF03000000000000000000CB
:2070C000000000000B0000006400000000000000010000001400000000000000000000002C
:2070E000000000000B0000008C0A0000E8030000010000000A0000000000000000000000F9
:20710000000000000B00000064000000E803000001000000640000000000000000000000B0
:2071200000000000000000000000000000000000030000000000000000000000000000004C
:207140000000000000FF019900000000000000000000030000000000000000000B00000088
:20716000701700000000000001000000280000000000000000000000000000000B00000054
:20718000E8030000504600000000000000000000000000000000000003000000000000006B
:2071A00000000000000000000000000000FF01480000000000000000000003000000000084
:2071C000202C004F6B0D0A00426164506172616D0D0A004352434572726F720D0A004661E3
:2071E000696C7572650D0A0050696E670056657273696F6E0032303233303831395F313684
:2072000030330049525F5043420056657273696F6E3A2025532025530D0047657453746197
:2072200000486974733A2025643B20526E64733A2025643B206D677A733A2025640D0052A0
:207240006573746F72650047657453657474696E677300252A53203D202534753B204D692D
:207260006E203D2025753B204D6178203D202534753B2064656661756C74203D2025347532
:207280000D0A002553203D2025750D0A0025532042616456616C75653A2025750D0A004248
:2072A00061644E616D653A2025530D0A005365742025752076616C7565730D0A00536176C8
:2072C0006553657474696E67730053617665640D0A00536176696E67206661696C0D0A00B3
:2072E0004C6F616453657474696E6773004374726C53657400697274780064616300257573
:207300000D0055706461746546775265737461727400557064617465467757726974650030
:2073200054696D656F75740D0A005570646174654677436865636B416E6452756E00436D59
:2073400064556E6B6E6F776E0D0A000D25532025530D0A0051756172747A206661696C0D3E
:207360000A00000000000000000000000D6400080D5A0008415B0008000000000000000077
:207380005D610008195A0008F15B000800CF000000FF0300000000000020202020202020A7
:2073A00020202828282828202020202020202020202020202020202020881010101010109D
:2073C0001010101010101010100404040404040404040410101010101010414141414141FF
:2073E00001010101010101010101010101010101010101011010101010104242424242428D
:207400000202020202020202020202020202020202020202101010102000000000000000E4
:2074200000000000000000000000000000000000000000000000000000000000000000004C
:2074400000000000000000000000000000000000000000000000000000000000000000002C
:2074600000000000000000000000000000000000000000000000000000000000000000000C
:207480000000000000000000000000000000000000000000000000000000000028F3FF7F53
:2074A00001000000FFFFFFFF00000000EC32002054330020BC3300200000000000000000DB
:2074C0000000000000000000000000000000000000000000000000000000000000000000AC
:2074E0000000000000000000000000000000000000000000CC040020FFFFFFFFFFFFFFFFA4
:20750000FFFFFFFFFFFFFFFFFFFFFFFFFFFFFFFFFFFFFFFFFFFFFFFFFFFFFFFFFFFFFFFF8B
:20752000FFFFFFFFFFFFFFFFFFFFFFFFFFFFFFFFFFFFFFFFFFFFFFFFFFFFFFFFFFFFFFFF6B
:20754000FFFFFFFFFFFFFFFFFFFFFFFFFFFFFFFFFFFFFFFFFFFFFFFFFFFFFFFFFFFFFFFF4B
:20756000FFFFFFFFFFFFFFFFFFFFFFFFFFFFFFFFFFFFFFFFFFFFFFFFFFFFFFFFFFFFFFFF2B
:020000040801F1
:20F80000000000000000000000000000040000000900000004000000FC00000004000000D7
:20F8200000000000640000005A00000001000000FFFFFFFFFFFFFFFFFFFFFFFFFFFFFFFF19
:20F84000FFFFFFFFFFFFFFFFFFFFFFFFFFFFFFFFFFFFFFFFFFFFFFFFFFFFFFFFFFFFFFFFC8
:20F86000FFFFFFFFFFFFFFFFFFFFFFFFFFFFFFFFFFFFFFFFFFFFFFFFFFFFFFFFFFFFFFFFA8
:20F88000FFFFFFFFFFFFFFFFFFFFFFFFFFFFFFFFFFFFFFFFFFFFFFFFFFFFFFFFFFFFFFFF88
:20F8A000FFFFFFFFFFFFFFFFFFFFFFFFFFFFFFFFFFFFFFFFFFFFFFFFFFFFFFFFFFFFFFFF68
:00000001FF
