:020000040800F2
:1060000000040020A1610008A3610008A36100084A
:10601000A3610008A3610008A3610008A361000850
:10602000A3610008A3610008A3610008F9BE00088D
:10603000A3610008A3610008A3610008A361000830
:10604000A3610008A3610008A3610008A361000820
:10605000A3610008A36100082DC300086DC30008F8
:10606000ADC30008EDC300082DC40008EDC400084E
:1060700019C5000845C5000875C50008A5C5000874
:10608000D5C5000805C60008A3610008A361000883
:10609000A3610008A3610008A36100086DC40008A3
:1060A000A3610008A361000819BF0008A3610008EC
:1060B00021C70008A3610008A3610008A3610008CC
:1060C000A3610008A3610008A3610008A3610008A0
:1060D000A3610008A3610008A3610008A361000890
:1060E000ADC40008A3610008A3610008A361000813
:1060F000A3610008A3610008A3610008A361000870
:10610000A3610008A3610008A3610008A36100085F
:10611000A3610008A3610008A3610008A36100084F
:1061200035C6000861C600088DC60008BDC6000857
:10613000EDC60008A3610008A3610008A361000880
:10614000A3610008A3610008A3610008C9BF00089B
:0861500091D8000889E1000864
:106160002DE9F04F2DED108AC1F80CD0C3689D4683
:10617000BDEC108ABDE8F08F05F062FB002383F3CD
:1061800011882846A0474FF0000301F055FC05F0A8
:1061900047FB05F065FB05F053FB00DFFEE7000061
:1061A00002E005F007FFC04672B6304880F3088869
:1061B0002F4880F309882F484EF60851CEF200018F
:1061C000086040F20000CCF200004EF63471CEF2CE
:1061D00000010860BFF34F8FBFF36F8F40F20000E4
:1061E000C0F2F0004EF68851CEF200010860BFF315
:1061F0004F8FBFF36F8F4FF00000E1EE100A4EF6A5
:106200003C71CEF200010860062080F31488BFF3D1
:106210006F8F4FF055301849144A91423CBF41F8F6
:10622000040BFAE71549124A91423CBF41F8040BAE
:10623000FAE71349134A144B9A423EBF51F8040B34
:1062400042F8040BF8E700201049114A91423CBF84
:1062500041F8040BFAE70F4C0F4DAC4203DA54F847
:10626000041B8847F9E706F0B7BA000000040020D5
:10627000000800200060000800000020000400204A
:10628000D807010800080020F8080020F8080020BE
:10629000346900205061000854610008034613F877
:1062A000012B002AFBD1181A0138704753B94AB99B
:1062B000002908BF00281CBF4FF0FF314FF0FF300E
:1062C00000F00CB8ADF1080C6DE904CE08F032F91D
:1062D000DDF804E0DDE9022304B07047704700BF39
:1062E00030BFFDE782B00190019B5A1E0192002B46
:1062F000FAD102B070470000034B53F820305B68BE
:1063000003B11847704700BFF808002030B5264A8F
:10631000264C050102EB00135159D960430169BBBA
:106320004FF0A0424FF40021C2F8101954F8202079
:106330009268012A10D14FF0A04203F1A041D2F897
:10634000082812F4807FD1F8002914BF42F080524F
:1063500042F00052C1F8002903F1A043D3F800290C
:1063600042F00442C3F800294FF0A0420123D2F8C2
:10637000341883400B43C2F8343830BD18B9402973
:1063800084BF4021116054F8201052590D69511EEC
:106390002944B1FBF5F142EAC14203F1A04142F0C8
:1063A0000052C1F81029C1E7D8190020F8080020D0
:1063B0001E4A10B5040102EB00111359CB6018B945
:1063C000402B84BF40231360194B125953F82010FF
:1063D000CB68013A1A44B2FBF3F25343033323F080
:1063E0000303400143EAC24300F1A04243F0C0432B
:1063F000C2F8103B8B68012B0ED14FF0A043D3F8AD
:10640000083813F4807FD2F8003B14BF43F0805368
:1064100043F00053C2F8003B00F1A040D0F8003B2D
:1064200043F00443C0F8003B10BD00BF481B0020F0
:10643000F8080020002211464FF0FF30530103F10D
:10644000A0430132042AC3F80019C3F81019C3F895
:106450000809C3F8001BC3F8101BC3F8080BEDD1E3
:106460004FF0A0434FF00112C3F81C2870470729D2
:1064700010B54FF00F0308D8046889008B4024EA58
:1064800003038A401343036010BD08394468890040
:106490008B4024EA03038A4013434360F4E7836894
:1064A00003F08203022BFAD17047D0E900210123C7
:1064B0008B4013617047D0E9002101238B40536169
:1064C00070470000144A1549536943F0030310B59F
:1064D000536142680C235343CC18CB58BBB1104BCB
:1064E0009B56A26803F1604101F561411201D2B2ED
:1064F00081F8002303F01F015B099B0003F1604357
:1065000003F5614301228A40C3F880211A600368C1
:1065100000221A6010BD00BF001002400C080020CD
:1065200028030108104B984203F564430ED00F4A2C
:1065300090420BD002F5C052904207D002F5806223
:10654000904203D002F58062904207D1084A5B680E
:10655000106813F4005F18BF400070475B68054A7D
:1065600013F4806F1068F6E7002C014000340140FE
:10657000F8360020F436002010B50B4C20680F28A8
:1065800008D80A4B1B682BB1094AC0F110001188CA
:10659000C0B29847074B1A68D36823F00103D36051
:1065A0004FF0FF33236010BD9C080020F44600200C
:1065B000F8460020F0460020884230B515D0421E33
:1065C00012F8015F11F8014BA5F1410019286BB2D7
:1065D00060B2A4F1410498BF2033192C98BF203039
:1065E000181A01D1002DEBD130BD0020FCE7D0F806
:1065F000A438B3F5006F16D2D0F89C385A1CC0F8F6
:106600009C281970D0F89C2800F698039A4224BF61
:1066100000F19803C0F89C38D0F8A4380133C0F8D2
:10662000A438002070470D2070472DE9F04385B055
:1066300098469DF9309001AB0646002508461F4656
:10664000B0FBF2F402FB1401092984462046CCB2C7
:1066500094BF3034373464B2944503F8014B05F1EC
:106660000105EDD22C46336844451B6809D33368D5
:10667000013D1B6879573046984730B9002DF6D157
:1066800004E049463046984718B10D2005B0BDE8F2
:10669000F0830134E7E72DE9F04F054685B0144655
:1066A0000E4616F9013B33B92B685B68284605B0E6
:1066B000BDE8F04F1847252B06D02A681946126806
:1066C0002846904788B3EFE791F90180B8F1300F81
:1066D0000CBF8E1C4FF020084FF0000916F9011B6B
:1066E000A1F13002D2B2092A04D852B20A2303FB24
:1066F0000929F3E72A2902D114F9042BF6E72E29F8
:106700000AD116F9011BA1F13003DBB2092BF8D92C
:106710002A2901D10434F4E7632936D015DC412954
:1067200063D004DC252900F089803146B8E753297D
:1067300032D05829F9D1CDF800804B46102254F8B8
:10674000041B2846FFF771FFBCE7732924D015DC32
:10675000642901D06929E8D154F8047B002F07DAB5
:106760002B682D211B682846984700289CD17F4222
:10677000CDF800804B460A223946E2E77529D4D18C
:10678000CDF800804B460A22D9E72B6814F9041B88
:106790001B682846984795E7D4F800A053461F4643
:1067A00013F9012B002AFAD10AF1FF3BBBF1FF3F9D
:1067B00002D01BF9011F21B9A7EB0A07A9EB0707B4
:1067C0000FE02B6828461B6898470028EED06BE73F
:1067D0002B6841461B6828469847013F00287FF4F4
:1067E00063AF002FF4DC04349FE7D4E90093D4F8BE
:1067F0000880039300274FFA88FA4FF0300B039B71
:106800009F4201DB0C3490E76FB919F80710CDF8FF
:1068100000B0022310222846FFF707FF00287FF46C
:1068200043AF0137EBE7B8F1000FEED02B685146CC
:106830001B68284698470028E7D035E72B681B6877
:10684000A7E700000649002331F8022B22B182425B
:1068500003D1044A32F8130070470133F4E700BF54
:1068600010040108F00501080068704783690239C7
:10687000023B8B4283BF4389C06A01FB03000020B7
:106880007047026830B55AB111460B4611F9014BF9
:10689000E5B21F2D0DD93A2CF7D1511C8B4202D0F5
:1068A0004FF0FF3006E092F90020302AF8D1013392
:1068B0000360002030BD10B560B103685BB11A7889
:1068C0005AB18288DC88944216BF09200020002338
:1068D0000B6010BD03460920FAE71346FBE70138B9
:1068E0000A4411F8013B00F8013F9142F9D1704789
:1068F000024B1B6803B11847704700BF20370020C8
:10690000002905DB14BF01230023436000207047EA
:106910000820704783698B4206DCC36901338B42D0
:1069200002DB41600020704708207047B1F5803FCE
:106930003ABF4160002008207047000010B5074AA8
:10694000002352F8044BA14204D00133102BF8D19C
:10695000082010BD416083610020FAE778FE00083E
:1069600072B6FEE7074B70B5D3E97B460546B442E5
:1069700000D170BD54F8040B036829465B68984742
:10698000F5E700BF6862002010B584682046FFF775
:10699000C9FDE36A0133B0FBF3F08842B0FBF1F3C9
:1069A00028BF03F1FF33A362002363620123636105
:1069B00010BDD0E90E3103EB8103002282645A63DB
:1069C00070470000084B1B6A412B0ADC074B187804
:1069D00040B9074B1A689B889068D84000F00100C6
:1069E00070470120704700BF1C620020171E002066
:1069F000106200204FF0FF32C0E9061103684262C6
:106A0000002202621B681847002070473030FFF7F1
:106A100052BD10B5D0E90C14C3690122A2405C68D4
:106A200024B94A610833C361002010BD0A61F9E747
:106A3000D0E90E3203EB820300225A637047000054
:106A4000054AD2E9083282B09A4201D102B07047B9
:106A500043F8040BF8E700BF1C1B00200146074861
:106A6000D0F8083133B9D0F80C311BB911B1F0307E
:106A7000FFF7C0BFC0F81011704700BF606400206E
:106A80002DE9F04784460246104612F9013BA3F176
:106A90000904E4B2042CF7D9202BF5D02D2B2FD1EB
:106AA00090F90130821C4FF0010E302B30D192F959
:106AB000000020F0200058282CD192F90130102736
:106AC00002320EF10046013E0024B6FBF7F82046E4
:106AD00007FB1869DDB2A5F1300ABAF1090F1BD81E
:106AE000303B9F4228DD651C07D0804521D301D172
:106AF00099451EDB00FB0730012412F9013BE9E751
:106B00002B2B04BF90F90130821C4FF0000ECCE714
:106B10000A27D6E70827D4E7A5F1410ABAF1190FE9
:106B200005D9613D192D07D857255B1BD9E73725B6
:106B3000FBE74FF0FF34E0E7631C0BD0BEF1000F22
:106B400000D0404221B10CB102F1FF3CC1F800C0BD
:106B5000BDE8F08730460029F6D1F9E7144B98429A
:106B600005D1144A936943F0040393617047124BB3
:106B7000984204D10F4A936943F00803F5E70F4B9D
:106B8000984204D10B4A936943F01003EDE70C4B94
:106B9000984204D1074A936943F02003E5E7094B83
:106BA0009842E3D1034A936943F04003DDE700BF15
:106BB0000008014000100240000C0140001001409C
:106BC0000014014000180140F8B51E461746FFF7B3
:106BD000C5FF46EA87020D46FFF749FCC36B012259
:106BE00002FA05F123EA0101C163F8BD70B515464B
:106BF0000E46FFF7B3FF25B9BDE870400422FFF74A
:106C000036BC0822FFF733FC012303FA06F1C36800
:106C1000022D0CBF8B430B43C36070BD38B5848815
:106C20000568827921462846FFF7E0FFA3089B000C
:106C300003F1804303F5803304F003029968920066
:106C40000F20904021EA0001996026498D4233D1FE
:106C50009868012101FA02F202439A60224B012254
:106C60001968A24011431960596821EA020159606C
:106C7000996811439960D968092C21EA0201D96009
:106C80005A615A612AD8042C2AD8063464B204F115
:106C9000604303F56143F02283F8002304F01F02F0
:106CA0006409A40004F1604404F5614401239340A5
:106CB000C4F88031236038BD0C498D4202D19868F8
:106CC0000221C7E70A498D4202D198680321C1E732
:106CD00008498D42C2D198680421BBE72824D6E731
:106CE0001724D4E7000C01400004014000100140CB
:106CF0000014014000180140F8B517461C46FFF784
:106D00002DFF0A4A936943F00103936144EA870225
:106D100042F008020E46FFF7AAFBC36B012202FAFB
:106D200006F123EA0101C163F8BD00BF0010024073
:106D30000023C0E90033124BD3F8081410B539B161
:106D4000D3F8042403EB821343604023036010BD97
:106D5000D3F80C44002CFAD0D3F80424C3F80C1454
:106D600003EB8212C0E90042D3F800240132102A5A
:106D700028BF0022C3F800240122C3F80824E6E754
:106D80002C30002030B508B9086850B103461846C9
:106D90000E4D13F9012B15F9014B1CB942B90A60CC
:106DA000104630BDA242F6D1F1E713460CE014B90B
:106DB00013F9012B054D15F9014BA242F7D1002A19
:106DC000F3D0002203F8012C0B60EAE714E8000876
:106DD00090F888301B4A10B5044633B9536AB0F8AE
:106DE0008A001B1A9BB2632B04D9002384F88830D5
:106DF000C4F88430536AA4F88A300829D4F884305F
:106E000005D1ABB1013BC4F88430002310E00D295B
:106E100001D00A290ED15BB10022E25404F18001B5
:106E20002046FFF7AFFF0123C4F88C0084F88830B8
:106E3000184610BD7E2B9EBF5A1CC4F88420E15416
:106E4000E3E700BF0054014080014FF0A04340F051
:106E5000200018611A699206FCD41220FFF742BA8A
:106E6000044B1B68D8609A68D207FCD5D86880B2FA
:106E7000704700BF881B0020034B1B689A68D2072D
:106E800000D47047DA68F9E7881B0020384B984235
:106E900005D1384A936943F4006393617047B0F1B8
:106EA000804F05D1334AD36943F00103D361704762
:106EB000314B984204D12F4AD36943F00203F5E7DE
:106EC0002E4B984204D12B4AD36943F00403EDE7DB
:106ED0002B4B984204D1274AD36943F00803E5E7D6
:106EE000284B984204D1234AD36943F01003DDE7CD
:106EF000254B984204D11F4AD36943F02003D5E7BC
:106F0000224B984204D11B4A936943F40053C4E7CF
:106F10001F4B984204D1174A936943F40023BCE7FE
:106F20001C4B984204D1134A936943F48013B4E78D
:106F3000194B984204D10F4A936943F40013ACE70C
:106F4000164B984204D10B4AD36943F04003ADE796
:106F5000134B984204D1074AD36943F08003A5E755
:106F6000104B9842A3D1034AD36943F480739DE741
:106F7000002C0140001002400004004000080040C6
:106F8000000C00400010004000140040003401409C
:106F9000004C0140005001400054014000180040E6
:106FA000001C00400020004010B50446427C81884F
:106FB00000680123FFF7A0FEA1680846FFF766FFFF
:106FC0004FF440434B640B68E26843F080030B606E
:106FD0006369CB62237C012B0CBF07230623032AA2
:106FE0000BD8DFE802F0020F171F8A6942EA031389
:106FF0008B610B6A43F001030B620B6843F00103E2
:107000000B6010BD8A6942EA03338B610B6A43F05F
:107010001003F1E7CA6942EA0313CB610B6A43F438
:107020008073E9E7CA6942EA0333CB610B6A43F430
:107030008053E1E713B5044630300190FFF7B4FF09
:10704000E16C0198FFF7A0FCD4E90E3103EB81035A
:107050000022A2645A6302B010BD0000074A5368C0
:1070600023F0030343F002035360054B5168C1F35F
:107070008101022901D0013BF8D170470010024084
:107080009F86010084B0F8B5064607AC84E80E0080
:1070900035463022002107F045FA4FF0FF370A4B02
:1070A00077624FF0000C86F82DC045F8303B0FCCCE
:1070B0000FC594E8030085E80300C6E912C7BDE8E0
:1070C000F84004B0704700BFEC03010803284B8B65
:1070D00004BF8A8A43EA024318467047036823F0D4
:1070E000010303607047036843F0010303607047C6
:1070F000FFF7CCBE036823F001030360704702462C
:1071000010B5C068FFF7EAFF1069FFF7F3FF01232E
:107110001376D36913B1BDE81040184710BD03685A
:1071200043F0010303607047D0F80428D0F810182A
:1071300000F604039B1A8B4228BF0B46C0F8143894
:107140008BB1002380F80C38D0F8A038DA60B0F8A2
:1071500014285A60026851680A6822F040020A60E6
:107160001846FFF7DCBF7047024608B5D0F8A00804
:10717000FFF7C0FFD2F81408D2F81038D2F804187C
:107180001B1A014402F60400814228BF111DC2F8F7
:107190001038C2F804181BB9012382F80C3808BD56
:1071A000BDE808401046FFF7BFBF90F8A03813B104
:1071B0009430FFF7B9BF70472DE9F04F85B0454CCB
:1071C000019145498DF80C200B608DF80E200021AF
:1071D000424A8DF80D108DF80F101368DDF80CC0C1
:1071E00026468B423BDC23EAE3730021576806EB1B
:1071F00083030C468F4203EB810534DCD2E902ABFA
:1072000027EAE7718C0000942BEAEB7E2AEAEA7801
:10721000002403EB81034FEA8E0E4FEA88082546CF
:1072200001998C4226DB116900221046914203EB42
:10723000820447DC21EAE171294A03EB81039B1BAD
:107240001360284A10689BB2C6604360FFF767FF6F
:10725000254B186805B0BDE8F04FFFF744BF44F870
:1072600004CB0131BDE703F821406C70AC70EC70C9
:107270000131BFE710F4004F4FF0000106D18B45FC
:1072800012DC734405E043F821C001318A45FADC81
:10729000434400218F4203EB810909DC009940003F
:1072A0000B4480B20134BBE743F821C00131E6E76B
:1072B00003F8215089F8015089F8025089F80350E9
:1072C0000131E7E703F822006070A070E07001323E
:1072D000ACE700BF2C37002024370020C846002030
:1072E000DC460020E04600202837002008B5084B87
:1072F000084A1868FFF7FEFE074BC360242343606B
:10730000FFF70DFFD36943F48063D36108BD00BF6D
:10731000E02F00200038004074010108044B1B7866
:1073200023B1044B1B680BB9FFF7E0BF704700BFE8
:107330004C620020146600208949002370B50B764A
:107340000B688C689B69182BD1E9082500F0F38045
:1073500004F59873AA4200F0F28092F90160507827
:10736000002EB4BF2A26142610F0400F23F8406CDC
:1073700014BF2A26142610F0200F23F83E6C14BFE9
:107380002A26142610F0100F23F83C6C14BF2A266E
:10739000142610F0080F23F83A6C14BF2A2614267E
:1073A00010F0040F23F8386C14BF2A26142610F0AE
:1073B000020F23F8366C14BF2A26142610F0010F92
:1073C00023F8346C18BF2A2092F9006008BF1420FB
:1073D00023F8320C1078002EB4BF2A26142610F0A1
:1073E000400F23F8306C14BF2A26142610F0200F0B
:1073F00023F82E6C14BF2A26142610F0100F23F841
:107400002C6C14BF2A26142610F0080F23F82A6CBF
:1074100014BF2A26142610F0040F23F8286C14BF7A
:107420002A26142610F0020F23F8266C14BF2A26F1
:10743000142610F0010F23F8246C18BF2A2092F9AB
:10744000026008BF142023F8220C9078002EB4BFED
:107450002A26142610F0400F23F8206C14BF2A2689
:10746000142610F0200F23F81E6C14BF2A261426B1
:1074700010F0100F23F81C6C14BF2A26142610F0ED
:10748000080F23F81A6C14BF2A26142610F0040FD4
:1074900023F8186C14BF2A26142610F0020F23F8C4
:1074A000166C14BF2A26142610F0010F23F8146C52
:1074B00018BF2A2092F9036008BF142023F8120C89
:1074C000D078002EB4BF2A26142610F0400F23F8DF
:1074D000106C14BF2A26142610F0200F23F80E6C0F
:1074E00014BF2A26142610F0100F23F80C6C14BFBA
:1074F0002A26142610F0080F23F80A6C14BF2A2637
:10750000142610F0040F23F8086C14BF2A26142642
:1075100010F0020F23F8066C14BF2A26142610F070
:10752000010F14BF2A20142023F8046C23F8020C46
:10753000043240330EE704F59073AA4212D1CA68B0
:107540001046FFF7CBFD0869FFF7D4FD8B88C460B8
:107550004360FFF7E4FDBDE870401046FFF7C3BD90
:107560001C1B002092F901605078002EB4BF2A261F
:10757000142610F0400F23F8306C14BF2A2614266E
:1075800010F0200F23F82E6C14BF2A26142610F0BA
:10759000100F23F82C6C14BF2A26142610F0080FA5
:1075A00023F82A6C14BF2A26142610F0040F23F89F
:1075B000286C14BF2A26142610F0020F23F8266C1C
:1075C00014BF2A26142610F0010F14BF2A201420FD
:1075D00023F8246C92F9006023F8220C1078002E16
:1075E000B4BF2A26142610F0400F23F8206C14BFD5
:1075F0002A26142610F0200F23F81E6C14BF2A260A
:10760000142610F0100F23F81C6C14BF2A26142621
:1076100010F0080F23F81A6C14BF2A26142610F055
:10762000040F23F8186C14BF2A26142610F0020F3A
:1076300023F8166C14BF2A26142610F0010F14BF6D
:107640002A20142023F8146C92F9026023F8120CFB
:107650009078002EB4BF2A26142610F0400F23F88D
:10766000106C14BF2A26142610F0200F23F80E6C7D
:1076700014BF2A26142610F0100F23F80C6C14BF28
:107680002A26142610F0080F23F80A6C14BF2A26A5
:10769000142610F0040F23F8086C14BF2A261426B1
:1076A00010F0020F23F8066C14BF2A26142610F0DF
:1076B000010F14BF2A20142023F8046C23F8020CB5
:1076C0000432303339E700BF70B50D4C0160A14280
:1076D0008ABF0C4C0C4D64184FF0140684BFB4FBE9
:1076E000F6F10731094C9CBF6D18B5FBF6F141600E
:1076F0000C204143601862504360049B836070BD5E
:1077000080000240F8FBFDBFF8FFFDBF0C08002021
:107710000FB407B504AA054852F8041B0192FEF7FE
:10772000BAFF03B05DF804EB04B0704710580020B6
:107730000148FFF7EDBF00BF17E800080EB403B51E
:1077400003AA52F8041B0192FEF7A5FF02B05DF8F0
:1077500004EB03B0704700001FB5034608465A69A2
:1077600002929A6801925A6800921B69034910229A
:10777000FFF7E4FF05B05DF804FB00BF21E8000857
:1077800002460846536802491269FFF7D7BF00BF97
:1077900040E8000810B4044613460846226902492E
:1077A0005DF8044BFFF7CABF4AE800087FB50346FF
:1077B00008465A690492DA6903929A6902929A68B1
:1077C00001925A6800921B6903491022FFF7B6FF25
:1077D00007B05DF804FB00BF5CE8000802460846FD
:1077E000536802491269FFF7A9BF00BF40E80008CB
:1077F00010B4044613460846226902495DF8044B5A
:10780000FFF79CBF4AE8000807B5034608469A6898
:1078100001925A6800921B6903491022FFF78EFFFC
:1078200003B05DF804FB00BF90E80008024608467C
:10783000536802491269FFF781BF00BF0DE90008D4
:1078400010B4044613460846226902495DF8044B09
:10785000FFF774BF1BE900081FB5034608465A69C5
:1078600002929A6801925A6800921B690349102299
:10787000FFF764FF05B05DF804FB00BF31E90008C5
:1078800002460846536802491269FFF757BF00BF16
:1078900040E8000810B4044613460846226902492D
:1078A0005DF8044BFFF74ABF4AE800080149FFF7BB
:1078B00045BF00BF8EE90008024B034A0349FFF7AA
:1078C0003DBF00BF93E90008A1E90008A8E900084E
:1078D00007B5064B064A1B680093064B12681B68E7
:1078E0000549FFF72BFF03B05DF804FB5062002051
:1078F0000C62002064620020AFE90008024B0349DB
:1079000000221A70FFF71ABF171E00208EE9000828
:107910002DE9F041D0F89070184904463846FEF73A
:107920004BFE88B91649174E174F2046FFF706FF42
:107930000E25736856F80C2B39462046FFF7FEFEDD
:10794000013DF6D1BDE8F0810E4D0E26296838467E
:10795000FEF732FE58B9AB682BB90C492046BDE89A
:10796000F041FFF7EBBE2046BDE8F0411847013E6D
:1079700005F10C05EAD10649F0E700BFCDE90008A2
:10798000D2E90008381E0020F1E90008FAE90008F1
:1079900009EA00087FB5044608462568A3880E2D2D
:1079A000114613D194F90560002E0FDB2179C1F344
:1079B0008306890902916179039601F07F01CDE97F
:1079C00000510549FFF7BAFE04B070BD0A460095A4
:1079D0000249FFF7B3FEF7E716EA000846EA000897
:1079E0000FB41FB506AC094854F8041B0191224698
:1079F0000394FEF750FE0199054803942246FEF7D2
:107A00004AFE04B0BDE8104004B070471058002092
:107A10001866002008B570B1B0F1005F06D3B0F170
:107A2000804F01D306F0DEFB06F0D9FBBDE808402D
:107A3000800006F0C3BB08BD72B61B4B18601B4B21
:107A4000D3F89420D3F834495168CA6822F400521C
:107A5000CA60226822F00F022260D3F83849062C4F
:107A60004FF00F028BBF073CA240A240104C88BFD2
:107A7000104C6260012283F8A0280F4AC3F89828AE
:107A8000C3F89C28CB6843F40053CB60013810F94D
:107A9000013F03B9FEE7DBB20A681206FCD54B6072
:107AA0000B681B06FCD5F2E7045800201058002094
:107AB0000000024000040240A858002008B520231E
:107AC00083F31188054BD3E901210A4302D004480E
:107AD000FFF7B2FF01229A6008BD00BF04580020E2
:107AE0005AEA0008064A08B5536813B99168002994
:107AF00002DC0448FFF7A0FF936083F3118808BD00
:107B00000458002064EA00080FB41FB506AB53F810
:107B1000041B03930191FFF7D1FF039A01990548D4
:107B2000FEF7B9FDFFF7DEFF05B05DF804EB04B02A
:107B3000704700BF10580020F8B51B4E1B4BF48A4D
:107B4000D6F811101B6864BA09BAA4B262180027EB
:107B50009A4205460770416084600ED92246144857
:107B6000FFF7D2FF134B9A785F73052161F303028D
:107B70009A7021221A7301232B700F4AB36812687E
:107B80005443A3420ED00D48FFF7BEFF094B9A782D
:107B9000052161F303029A7020221A7300225A739E
:107BA00001232B702846F8BD3C340020EC46002011
:107BB00070EA000895360020E84600208FEA0008A9
:107BC0002DE9F74300F18408064641460020FFF7FF
:107BD000D9F838B101A9FEF753FF019B93F9005082
:107BE000074665B31849304603B0BDE8F043FFF7D8
:107BF000A5BD302A04F1FF341EBF09FA04F22A435E
:107C000095B21CB113F9012F002AF2D14146002090
:107C1000FFF7B8F818B1002C01DD431EF2E7D4F1EC
:107C20001004DFD0094822462946FFF76DFF2146A0
:107C30000023FAB22846FFF7BFFA0549D3E710241C
:107C40004FF00109E2E700BF9DEA0008A8EA00083A
:107C50008EE9000808B5202383F31188054B5A6884
:107C6000002A01DD9A6812B10348FFF7E5FE012200
:107C70009A6008BD04580020C6EA000808B5074B02
:107C80005A68002A02DD9A68002A02DC0448FFF7DD
:107C9000D3FE00229A6082F3118808BD04580020A8
:107CA000D3EA000810B50446FFF7D4FF2368204646
:107CB0001B689847BDE81040FFF7E0BF08B5FFF725
:107CC000C9FF084B1868FFF709FA074B1868FFF758
:107CD00011FA064B1B6803B19847BDE80840FFF74F
:107CE000CDBF00BF28370020E04600202437002009
:107CF00008B5202383F31188064A5368002B01DB63
:107D0000916811B10448FFF797FE0133536081F386
:107D1000118808BD04580020E2EA000808B52021B7
:107D200081F31188194A5368002B01DD906810B166
:107D30001748FFF781FE013B536080F3118881F300
:107D40001188144B5B6813F400631BD0F1EE103AFA
:107D5000EFF309834FF0807243F84C2C0E4AD26B3C
:107D600043F8082CA3F1680282F309880B4A1168D2
:107D7000D2688968926891428CBF094A094A43F8DF
:107D8000502C08BD83F31188FBE700BF0458002086
:107D9000F0EA000800ED00E000EF00E0EC2F00202A
:107DA0008F6100089A61000808B5EFF309830A693A
:107DB000643B9A4202D90348FFF73EFEBDE8084003
:107DC000FEF7CEB9FEEA00082DE9F041404A8E6880
:107DD00042F820104FF0A0454FEA4018721E0446AA
:107DE000431E08EB0500022A4FF00002C0F8102BDA
:107DF00098BFB604CA688CBF364E06F1805604F1AF
:107E0000100C4FF0010798BF06F5004607FA0CF773
:107E100022B342EA060042462A44C2F8000BD5F8D3
:107E20001C283A43C5F81C284FF0A045A84400225E
:107E3000C8F810290F694033A7B3DFF8A4C0496917
:107E4000DCF80000BA084A4311040244B2F5A07FEE
:107E5000CCF800200DD92048FFF7EEFDD0F8002B1C
:107E600022F40042C0F8002BD5F81C2822EA0702B1
:107E7000D8E79A0002F1A042014351602046FEF784
:107E8000E3FF620102F1A04247EA84533343C2F8A0
:107E90000039D5F81C280123A3401343C5F81C382A
:107EA000BDE8F0819B0003F1A0430C4A5A602046D4
:107EB000FEF7CAFFD8F8003923F40043C8F80039A8
:107EC000D5F81C380122A24023EA0203E6E700BFEE
:107ED000F8080020008000100DEB000800040002EC
:107EE000FC2F002008B5054B5A6812B99B68002B7F
:107EF00002DC0348FFF7A0FD08BD00BF04580020C6
:107F000026EB000870B5094C0546FFF7EBFF20682B
:107F1000E6680368756123605C600123E0603146B8
:107F20004361BDE87040FFF73FBF00BFEC2F00206A
:107F300038B50446FFF7D6FFA3682268002B07DB9D
:107F4000A24207D1013B002BA36006DB002038BD15
:107F5000A242F7D10948FFF76FFD094D6268EB684F
:107F60009C611C605A6013606360FFF7BBFF0520D3
:107F7000FFF7C8FFEB68187EE9E700BF31EB0008A8
:107F8000EC2F002008B5054B5A68002A02DB9B68DD
:107F9000002B02DC0248FFF74FFD08BD045800200B
:107FA00048EB0008F8B50D46044616461F46FFF795
:107FB000E9FFCDB1C4E90367204F214E3A68736AE7
:107FC000012D08BF0225BA429BB210D1E918538196
:107FD00089B20023C2E900442581C4E9002271630B
:107FE00033610223F360F8BD1648FFF725FD788959
:107FF0001B1A15FA83F11FFA83FC89B261451389B4
:1080000003D2C91A126889B204E08B4202D908442B
:1080100080B2706313898B420CD353686360226013
:108020001C605460218113895B1A13814FF6FF7322
:108030003B81D8E7A242E4D10348D6E700300020D4
:108040000054014053EB000861EB000838B50446CA
:10805000FFF798FFE36813B91548FFF7EDFC154BE0
:1080600021681D680022A542E2600AD060680160B4
:1080700022689A42506003D0138921890B441381EE
:1080800038BD99420C4819604B6001D1C260F7E7D6
:108090000A892C895B89224492B20A81416AC91AF1
:1080A00089B28A4281BF2A899B189BB24363E7E762
:1080B00075EB00080030002000540140C3680BB18C
:1080C000FFF7C4BF70471FB50446CDE902210193F5
:1080D000FFF7F4FFDDE901320399204604B0BDE863
:1080E0001040FFF75FBF0000024A818A0346FFF796
:1080F000EABF00BF79AD00083A4B3B48012210B5FA
:108100001A703A4B3A4A00241C703A4B1A60022308
:1081100019462246FEF758FD022322460A21FEF7A1
:1081200053FD022322460B21FEF74EFD0223224679
:108130000821A0F58060FEF747FD2F4B2F4A1868F5
:108140002F49FEF7D7FFD36923F48063D3612D4B0A
:108150001A6822F080521A604BF680300722013AEA
:1081600001F1140110D128484BF68031FFF7D0FA05
:108170002648FFF7C9FCFFF7A1FC2548FFF7B4FF2D
:10818000BDE81040FFF7AEBC0C688442E7D14A68F6
:10819000D86A013A120120F0F000D2B20243DA624A
:1081A000DA6A886822F4704242EA0032DA62D1E97F
:1081B0000320124942EA00220A621A6842F0805201
:1081C0001A60144A1968890005D4013AFAD1124894
:1081D000FFF79EFACCE7114B114A1A60FFF786F8B9
:1081E000C9E700BF4C620020000C01408C47002012
:1081F00031770008F4460020E02F002000380040CE
:10820000840201080010024098EB0008ADEB000862
:10821000DC6500209F860100BCEB000820370020B1
:108220001D73000870B505460C464FF47A7640F28F
:10823000E73000214FF47A720023E4FB0601FEF7D9
:1082400035F82B4681B2034A281DBDE87040FFF780
:108250003ABF00BFA57C0008C369826C70B59D68F9
:10826000AA4207D0846B5968C66B343431B985642F
:1082700044F826500C33C361002012E0AA4211D208
:1082800001328264826C44F8262099689142F1D0D0
:1082900092B259680432B1FBF2F10131FFF7C2FF2B
:1082A000012070BDEED9013AEBE7000070B505463C
:1082B0000C464FF47A7640F2E73000214FF47A72A0
:1082C0000023E4FB0601FDF7F1FF2B4681B2034AD0
:1082D000281DBDE87040FFF7F6BE00BFA57C000872
:1082E000F8B50446D4E90E31E66903EB8103726800
:1082F0005A63D6E9027530303DB9A7643946FEF7B6
:1083000043FB1036E6610020F8BDA36CBB420FD2E0
:108310006433A364A16CFEF737FB8F42F1D0204693
:108320000431B5FBF1F10131FFF7C0FF0120EBE7AC
:10833000F0D9643BEDE7836910B5044643B10369A6
:1083400013B10430FFF7BAFE0023C4E906332362F9
:10835000236820465B68BDE81040184770B5FFF7FA
:10836000ADFB4C4B1868FEF7C5FE4B4B1C68204616
:10837000FEF7B4FE494B4A48002601259E60656120
:10838000FEF793F8474B484A9B88484805FA03F3A1
:108390005361474B9B889D40464B55611E70464B31
:1083A000464D1E70464BD5F884201A60454BD5F8D3
:1083B000A4201A60FFF782FE434B6A6E1A60434B9B
:1083C000D5F864115A6A424B20461A80FEF7AAF883
:1083D000A36A404A4D000133B0FBF3F08542B0FB85
:1083E000F5F398BF03F1FF33E362012366624FF4B4
:1083F000166063614FF496654FF4167348434B4320
:10840000694300F5F41003F5F41301F5F411324C4F
:1084100000F27F4003F27F43B0FBF4F0B3FBF4F3D0
:1084200010605360D36001F27F411061B1FBF4F141
:1084300091601944C21802EB01120244B2F57A7F2E
:1084400004DB264840F2E731FFF75EFBFFF74AFB0B
:10845000234B244D00241C60FFF730FB2248FFF71C
:108460006AFFFFF73FFBFFF729FB2048FFF763FF99
:10847000FFF738FBFFF722FB28195034FFF75BFFAB
:10848000FFF730FBB4F5A07FF4D1BDE87040184889
:10849000FFF7A6BAE046002028370020007400400D
:1084A0005462002010620020000401405861002046
:1084B00040620020181A0020171E00206862002069
:1084C00064620020506200200C62002000540140D1
:1084D0001C1E0020C846002080841E00CAEB000835
:1084E000F0360020606400206C610020BC61002038
:1084F000F0EB000807B50190FFF730FF0349019842
:1085000003B05DF804EBFFF719B900BF8EE900086E
:108510002DE9F04FDFF8A0A085B004464FF0000829
:1085200000F1840B59460020FEF72CFC0646A0B152
:108530000020FEF727FC80B103A9FEF7A1FA039BF8
:1085400093F90030074643B9DAE97B934B450ED1E6
:10855000174932462046FFF7F1F8164942462046B1
:10856000FFF7ECF805B0BDE8F04FFFF7F7BE59F89C
:10857000045B019329693046FEF71EF8019B002831
:10858000E4D12B6839461B68284698472B6830B9D8
:108590009B6821462846984708F10108C2E7DB6836
:1085A0003A462146284605B0BDE8F04F184700BFBF
:1085B000F9EB000807EC00086862002030B587B0CE
:1085C0000446FFF78FFC4FF6FF739C420D4D06D11A
:1085D0000620FFF797FCEB68187E07B030BD00233C
:1085E000CDE90433084AEB68214601A8FFF7DAFC1D
:1085F0000620FFF787FC049B002BECD001A8FFF7B7
:1086000025FDE8E7EC2F0020B1AC00083D4B2DE93B
:10861000F7431F683C4D00FB07F6281D574389466A
:10862000FDF749FFEB20FEF71BFCFEF725FC2C684D
:108630002046FDF734FF0123C4F88030C6F307401D
:10864000FEF70EFCC6F30720FEF70AFCF0B2FEF7B9
:1086500007FCF020FEF704FCA3681906FCD40323F2
:10866000C4F88030A3689A07FCD50023E360A368B0
:108670009B07FCD5BAB2D5F81480EF6800260DF13F
:108680000703E660C8F80C90C8F80420FB6042F2CB
:1086900010037A6020468DF807603B60FDF7FFFE0F
:1086A000FEF7EAFB636843F003036360FFF706FA33
:1086B000164B4046DB68EB61FEF731FD3846FEF7AE
:1086C0002EFD4FF48770FFF779FF04466869FEF7C7
:1086D00011FDE868FEF70EFDFFF704FA0C48FDF700
:1086E000E4FE2868436823F003034360FDF7D7FEE8
:1086F000FEF7C2FBFDF7D3FEC0F88060204603B052
:10870000BDE8F083E8460020881B0020EC2F002005
:108710008C1B00202DE9F047DFF8B8809A460368EB
:1087200001261B68C8F800600D463E2181461446AC
:1087300098470746002847D1D9F8003048465B687B
:10874000DFF894909847FFF7B9F94FF47A7C3946EF
:1087500040F2E730EAFB0C014FF47A720023FDF798
:10876000A5FDD9F82460DFF874A0B6B287B24CB981
:108770000023C8F80030FFF7B5F9201E18BF01200C
:10878000BDE8F087D9F824309BB29A1B92B2974289
:10879000EED30E4AF31AD1680D4A3B4498B21160E9
:1087A000FFF70CFF0228E3D0DAF80030A34288BFBD
:1087B000CAF800402846DAE9002105F059FEDAF847
:1087C0000030E41A1D44D2E73046D9E7EC2F0020F0
:1087D000044700208847002000540140FC46002048
:1087E00038B504464FF47A75FFF768F940F2E73080
:1087F000002100234FF47A72E4FB0501FDF756FDDA
:1088000080B2FFF7DBFEBDE83840FFF76BB9000030
:10881000F8B50120104EFFF7E3FF1048756AFDF729
:108820004AFE0520FEF71CFBADB240F2E637736A44
:108830005B1B9BB2BB4201D9022408E00120FFF779
:10884000CFFF0020FEF70CFB10F00104EFD103482E
:10885000FDF72BFE2046F8BD005401408C1B002084
:108860002DE9F74FDFF85C91DFF85CB1D9F80040F3
:1088700005468846174600FB04F69246BAF1000FFB
:1088800011D1D9F80030DFF844B107FB04F24C4FA6
:108890005D4322F0FF042C442E4607F1040AA64251
:1088A0002AD100201FE05846FDF705FE0620FEF7FE
:1088B000D7FA5846FDF7F9FDFDF7FDFD2020FEF73C
:1088C000CFFAC6F30740FEF7CBFAC6F30720FEF750
:1088D000C7FAF0B2FEF7C4FA5846FDF7E6FDFFF717
:1088E00097FF18B1012003B0BDE8F08FD9F8003030
:1088F0000AF1FF3A1E44C1E75046FDF7DCFD0620B1
:10890000FEF7AEFA5046FDF7D0FDFDF7D4FD32205C
:10891000FEF7A6FAC6F30740FEF7A2FAC6F3072051
:10892000FEF79EFAF0B2FEF79BFAD7F80C90386883
:10893000A8EB05033344C9F80C304FF48073C9F831
:10894000043042F29203C9F80030FDF7A8FD01237C
:10895000C0F88030436843F002034360FFF7AEF88D
:10896000DBF80C30FB614846FEF7D9FB4FF487700B
:10897000FFF724FE0190F868FEF7BCFBFFF7B2F8A2
:10898000D7F800904846FDF78AFD5046FEF774FA86
:10899000FDF78BFDD9F8042022F00202C9F804206B
:1089A0004846FDF77CFD019B0022C9F88020002B82
:1089B00098D1FFF72DFF002894D106F580766EE759
:1089C000881B0020E84600208C1B0020EC2F002094
:1089D000F8B5C37804460BB90020F8BD056B00F16B
:1089E0003407012239462846FFF73AFF88B9636AFF
:1089F000E269E070EB1A9342EED2A678012EEBD931
:108A0000E3691D44012239462846FFF729FF013E4C
:108A1000F4E70120E1E738B5036B8B4205460C46CD
:108A20000FD0FFF7D5FF58B92046012205F13401D8
:108A3000FFF7ECFD00281CBF4FF0FF3401202C6332
:108A400038BD0020FCE701292DE9F84305460E4614
:108A5000144678D983698B4275D90378022B3FD0AD
:108A6000032B51D0012B6ED101EB5107416A01EB71
:108A70001731FFF7D0FF034638BB05F1340807F183
:108A80000109C7F30B0716F001061FBF18F80720EE
:108A9000230103F0F00302F00F0214BF1343E3B20B
:108AA00008F80730696A0123EB7001EB1931284699
:108AB000FFF7B1FF034640B9C9F30B0946B1C4F350
:108AC000071408F809400122EA701846BDE8F88347
:108AD00018F80920C4F3032422F00F021443F0E72E
:108AE000416A01EBD621FFF796FF03460028ECD13F
:108AF00040F6FE7205F1340102EA460288188C54F1
:108B0000C4F307244470DEE7416A01EB9621FFF7C6
:108B100082FF03460028D8D140F6FC7101EA8601A5
:108B200005F134077A181046FDF79EFE24F07044D4
:108B300000F0704004437C54210A5170210C240E33
:108B40009170D470BFE70223BFE70000002310B587
:108B5000C3704FF0FF3303630446FFF75CFF034627
:108B600018BBB4F832124AF6552291421FD194F83C
:108B70003420E92A05D0626B0F4902F0FF128A42C5
:108B800017D104F16A00FDF76FFE0C4A20F07F4018
:108B9000904208D004F18600FDF766FE084BC01A2B
:108BA00018BF01204300184610BD0423FBE7032330
:108BB000F9E70223F7E700BFEB00900046415400BD
:108BC000464154330129F8B505460E464FD983690D
:108BD00099424CD20378022B29D0032B35D0012B9C
:108BE00045D101EB5104416A01EB1431FFF713FF4A
:108BF00010B14FF0FF30F8BD671C696AC4F30B0475
:108C00002C4401EB1731284694F83440FFF703FF5A
:108C10000028EED1C7F30B072F4497F8343044EA0D
:108C20000320F3074CBF0009C0F30B00E3E7416AE0
:108C300001EBD621FFF7EFFE0028DAD140F6FE73F4
:108C400003EA46032B44988ED5E7416A01EB96214F
:108C5000FFF7E1FE0028CCD140F6FC70343500EA85
:108C600086002844FDF700FE20F07040C3E7012095
:108C7000C1E72DE9F041056880460F4671B92E69BC
:108C8000EEB1AB699E4228BF01263446AB69013480
:108C9000A34217D8012E14D1002406E02846FFF77E
:108CA00091FF0128044603D801242046BDE8F08145
:108CB000431C30D0AB698342F7D83E46E5E7012636
:108CC000E3E70224D8F800002146FFF77BFF30B12C
:108CD0000128E9D001301ED0B442D7D1DCE74FF0F3
:108CE000FF3221462846FFF7AEFE90B957B9D5E9C5
:108CF0000532023A93422C6110D32B7943F00103E1
:108D00002B71D2E7224639462846FFF79CFE002801
:108D1000EDD00128C8D14FF0FF34C6E7013B6B61AD
:108D2000EBE7B1F5001FF8B5056806460C4601D320
:108D30000220F8BDCA06FBD182680161BAB92B785E
:108D4000022B01D9AB6A9BB92B89B3EB541FEFD926
:108D5000A86AC6E905200028EAD000EB14303435B3
:108D6000C4F30B042544B061F5610020E1E713462C
:108D70006F891A463F03BC42114603D22846FDF7CD
:108D800075FDE6E73068FFF71DFF431C024606D07D
:108D90000128CDD9AB698342CAD9E41BEBE7012096
:108DA000C7E703692DE9F04703F120088369054609
:108DB0008A468BB1B8F5001F0ED2C8F30B070468C2
:108DC000002F51D141690133836139B92389B3EB54
:108DD000581F49D80023AB6104200DE0B4F80A9075
:108DE00009F1FF3919EA18393ED12046FFF7EAFEAA
:108DF0000128064602D80220BDE8F087421C01D1B6
:108E00000120F9E7A369834228D8BAF1000FE1D025
:108E100069692846FFF72DFF0646002837D001284C
:108E2000E9D0431CECD02046FFF7D2FD0028E7D163
:108E300004F5815304F13402143302F8010B9A4211
:108E4000FBD131462046FDF711FD4FF0010A638941
:108E5000206399450FD3A0EB090020636E61314672
:108E60002046FDF703FDA86134343C44C5F810806A
:108E7000EC610020C0E784F803A02046FFF7A8FDBE
:108E80000028BDD1206B09F101090130DFE707207F
:108E9000B2E700002DE9F04F002187B0D0F800B014
:108EA0000446FFF73EFF002840F09C804FF0FF3A59
:108EB0004FF0FF08C4F82CA04746A1695846FFF7B9
:108EC000AAFD002840F08E80E5692E78002E00F083
:108ED0008C80EA7AE52E02F03F03A37103D01007DD
:108EE00004D50F2B04D0C4F82CA04EE00F2B53D187
:108EF00094F82B3059063FD4720644D5236995F86F
:108F00000D80E36206F0BF066B7B43453DD16B8B62
:108F1000002B3AD12978DBF80C30019301F03F07A0
:108F2000013F0D23DFF8D0905F43012219F8013B88
:108F3000EB5A62B37F2F059127D818460493FDF7AB
:108F400081FC7B1C0293019B039033F81700FDF713
:108F500079FC039A824218D1049B029F05991A4614
:108F6000244B4B45E2D14B0604D51AB1019B33F893
:108F7000173053B9013EF7B200212046FFF711FF29
:108F800000289AD02EE0B742BED0FF27F4E74FF674
:108F9000FF708342E4D0F8E777B905F10B012A4668
:108FA000FB0143EA570712F8013B53FA87F78A425D
:108FB000FFB2F5D1B8451AD094F82B0010F001009B
:108FC00091D104F1200205F10B0115F8013B12F8D3
:108FD000016B8D42A3EB060302D0002BF5D082E794
:108FE000002B80D107B0BDE8F08F0420FAE7002005
:108FF000F8E700BF38F900082BF900082DE9F04F19
:1090000097B0B54B009003A80393FDF73AFC0028F6
:1090100004DA0B20B14B00221A600CE3B04B53F87A
:109020002040002C00F025812578002D40F0D280D2
:10903000607029462046FFF789FD022840F0008134
:1090400009AF04F5FD7304F23A213A4613F8040C13
:1090500010B11846FDF708FC1033994242F8040B92
:10906000F4D14FF0000857F8045B002D00F0DE80CB
:1090700029462046FFF76AFD012800F2D880B4F89F
:109080003F30B3F5805F40F0E280B4F84A2022B967
:1090900004F15800FDF7E8FB024694F84410E26141
:1090A0004B1E012BA17000F2D28094F841706781B1
:1090B000002F00F0CC807B1E3B4240F0C880B4F80B
:1090C0004580A4F8088018F07F0F40F0C080B4F805
:1090D000473023B904F15400FDF7C6FB0346B4F84A
:1090E00042E0BEF1000F00F0B28002FB01F00EEB97
:1090F000D81C84449C4500F2AA80A3EB0C03BB421D
:10910000B3FBF7F1C0F0A3804FF6F573994200F27C
:10911000A08040F6F577B9428CBF022701270231C3
:109120000EEB0503AC44032FA16125626362C4F812
:109130002CC040F09080B4F85E3058EA030340F051
:10914000868004F16000FDF78FFB8B0003F6FF7350
:10915000B2EB133FA0627AD34FF0FF33C4E904337C
:10916000032F4FF0800323712BD1B4F86430012B0F
:1091700027D1691C2046FFF74EFC10BBB4F8322201
:1091800020714AF655239A421BD104F13400FDF7B1
:109190006BFB544B984214D104F50670FDF764FB49
:1091A00003F1FF5303F500532033984209D104F52E
:1091B0000770FDF759FB606104F50870FDF754FB7B
:1091C0002061494A2770138801339BB21380E380E2
:1091D000464BE360039B0994984613F9012B2F2A11
:1091E000FAD05C2AF8D000210B9198F800301F2BA0
:1091F00000F20981802309A88DF84F30FFF791FD17
:10920000002800F05C81009B13F01C0F00F05082DE
:10921000002800F0E98104287FF4FCAE9DF84F504F
:1092200015F0A00500F054810620F3E6032008F1B4
:109230000108B8F1040F7FF416AF042807D101E04C
:10924000042801D10120E5E601287FF618AF0D20A2
:10925000E0E6032763E7B8F1000FF8D0022F1844C7
:109260004FEA41031EBF5B1801F0010101EB5303FC
:109270006CE70C20CEE60130DBE0812801D106202E
:10928000C1E7BCF1000FDBB2BEBF1949803B31F82A
:109290001330002BF3D07F2B07D8DFF858C01CF910
:1092A000011B11B18B42FAD1E9E725F8023F0146D3
:1092B000B2E032F81100202802D02E2840F0C580FC
:1092C0000139BFE00130CDE0BC4515D28E4556D105
:1092D0000B2F4DD112E000BF17EC0008DC47002037
:1092E0009C09002052526141D41900201A1A002012
:1092F00048F9000824EC00080B2F34D143F0030395
:109300000B279DF84410E52904BF05218DF8441072
:10931000082F04BF9200D2B202F00C010C2903D036
:1093200002F00300032801D143F00203980709D497
:1093300002F00302012A08BF43F01003042908BF0A
:1093400043F0080309A88DF84F30FFF7A3FD9DF8FF
:109350004F30002847D004287FF455AF13F0040F96
:1093600008BF05204FE78E4502D043F00303C8D85D
:109370009200D2B28E460B274FF0080C9DE07F285A
:109380001AD9DFF8C4A24FF000093AF8026BB042D4
:109390001FFA89F505D009F10109B9F1800FF4D15F
:1093A0004D46803515F0FF0543F002030DD0A3486C
:1093B000054415F8800C40B1DFF8909219F9015B73
:1093C000002D00F06A82A842F8D143F003035F2029
:1093D0000CF158056D440CF1010C05F8140C6CE00F
:1093E00042F00202F4E75A0769D49DF82A30DB06FE
:1093F0006CD50D9B2078C3F30B0304F134011944A1
:10940000FDF764FE0B90099BD3F80CB0ABF10202A0
:1094100008F1FF371546002117F901CF1FFA8CF329
:109420001F2B01F101000CD92F2B02D05C2B7FF4F4
:1094300024AF18F900502F2D3FF41DAF5C2D3FF4E1
:109440001AAF804400297FF434AF00202BF81100BC
:1094500000293FF414AF0B2011AD2027013805F887
:10946000017BFBD13BF81050202D3FF42BAF2E2D6C
:109470003FF428AF1F2B8CBF002301239B0008B1B2
:1094800043F0030332F811502E2D01D00139F9D1E8
:109490004FF0000C0827624600F1010E3BF8100067
:1094A00000283FF42EAF202805D02E287FF40CAFE3
:1094B0008E453FF40DAF43F003037046ECE79DF992
:1094C0004F30002BFFF6DBAE00209CE605209AE62D
:1094D000DDF82480D8F80C2032F81530002B61D14B
:1094E0000C2211A906A8FDF7FAF99DF82330DF0731
:1094F00040F1FB804023524F8DF84F304FF001096F
:109500000B2206A911A8D8F80CA0FDF7E8F9B9F1CB
:10951000050F56D9AAF102014B4631F8022F002A55
:1095200042D106A8072203F00F0C0CF130013929B3
:1095300088BF0CF137010F2B00F8011D02F1FF323B
:109540004FEA13113FD802F158036B447E2103F810
:10955000481C0DF143010023934205D011F8010F7F
:10956000202803F1010C30D1072A9CBF02F15801D9
:10957000694403F1010309A8184496BF11F8481C77
:1095800020210132072BC177EED909A8FFF782FC11
:10959000002840F0A38009F10109B9F1640FAFD1AF
:1095A000072037E5013597E7102002F0010C0CEB9E
:1095B0004303DE0348BF7B4001384FEA5202F4D137
:1095C000ABE74B46ADE70B46ADE76346C4E707465E
:1095D000012109A8FFF7E5FB002800F09C80042882
:1095E000DED017E53846B5E09DF82A3013F0110FAC
:1095F000D6D1009B1F0700F12181124D236B1099DA
:109600002B6269622078FDF761FDA86001F11C0002
:10961000FDF72AF9E388AB80009B2B740023E860F8
:109620002C606B74EB616B614FF48050283501380E
:1096300005F8013BFBD117B0BDE8F08F87F80008B3
:1096400021100100DC47002048F900082DEC00083B
:10965000BB69984280F01E8105462946099801950C
:10966000FFF7B0FA0546D0B1012800F01381461C7F
:109670003FF4E8AD019900223846FFF7E4F90028ED
:109680007FF4C8ACD7E90532911E8B4205D2013375
:109690007B613B7943F001033B719542DDD3494641
:1096A0002046FFF7B8F908F1FF33236168B1B1E450
:1096B00000287FF4AFAC9DF82A30DD060CD4009A68
:1096C000900702D5D9073FF56BAF009B1A0744BF3F
:1096D00043F04003009390E704209BE404287FF4C8
:1096E00099AC9DF823308DF84F309DF82330DDF88C
:1096F00024909B0748BF0C354FF0000109A849BFD3
:109700000D230125B5FBF3F50135FFF70AFB002812
:109710007FF465AF07460F994846FFF77CF90028AC
:109720007FF45DAF109B1B78E52B02D0002B7FF4FC
:109730004EAF0137BD427FF44BAF013D5ED00D9976
:1097400009A8A1EB4511FFF7ECFA00287FF462AC01
:109750000B2311AA12F8011BC70147EA500751FA5F
:1097600087F7013BFFB27FF43DAF4FF6FF790F99CA
:109770004046FFF750F9034600287FF44BAC109A9F
:10978000D8F80CE0DFF830B110734FF00F015FFA3A
:1097900085FCD1729076D0760CF1FF310D204143DB
:1097A000577318461BF801AB4B4518BF3EF81130F4
:1097B00002F80A3002EB0A0600F1010018BF01317D
:1097C0004FEA132A002B08BF4B460D2886F801A04C
:1097D000E8D14B4502D03EF811300BB94CF0400CAB
:1097E000012382F800C0002188F8033009A8FFF7A0
:1097F000D8FA00287FF40EAC013DB8D10F9940464D
:10980000FFF709F900287FF405AC109B03F1200253
:1098100003F8010B9342FBD10B22109811A9FDF71D
:109820005EF89DF84F30109A03F01803137301236C
:1098300088F80330009B43F008030093109B002539
:10984000212156225A749D73DD731974109B5A7628
:109850009D75DD751976109B2022DA72109920789B
:10986000FDF734FC8D76CD762378032B04BF0D7580
:109870004D75109B1D775D779D77DD7701238046C1
:10988000E37000283FF421AF9842D4F83090099F4C
:109890007FF4DEAE0220FFF7BDBBA0F14105192D1C
:1098A0007FF69EADA0F16105192D9EBF203842F0D4
:1098B000010280B28CE500BF2BF900082DE9F04FC2
:1098C000994685B000238846C9F8003003A90446AC
:1098D0001746FCF7F0FF054638BB657C2DBB237CA3
:1098E0009A0740F1A7806369FB4228BFDF4304F178
:1098F000280AB7B16369C3F30B02002A40F08880DD
:10990000DDF80CB0BBF80A20013A12EA13320192DA
:109910001ED173B9A06870B901462046FFF7A9F9B6
:1099200048B9237C43F040032374284605B0BDE8C2
:10993000F08FA169F1E7012802D102256574F4E7EF
:10994000431C01D10125F9E7A368A06103B9A06018
:1099500094F91030002B0ADAE06901225146FEF733
:109960007FFF0028EED1237C03F07F032374A169DD
:109970005846FCF77BFF0028DFD0019BB7F5805FDE
:10998000034434D30199BBF80A2001EB173191420B
:1099900088BF019901934FEA173688BF561AF2B271
:1099A00041461846FEF75CFF0028CBD1E169019BD8
:1099B000C91AB1420AD24FF4805208EB0131504625
:1099C000FCF78DFF237C03F07F0323743603636968
:1099D000E268334463619A422CBFE260E360D9F8E5
:1099E00000303344B044C9F80030BF1B81E7E1695F
:1099F000626999420BD0E168914208D91846012268
:109A000051460193FEF702FE019B00289AD1E361C3
:109A10006069C0F30B00C0F58056BE4228BF3E46C9
:109A2000324641465044FCF75AFF237C63F07F03E3
:109A30002374CCE7072578E74368002B37B5044645
:109A400014DB5D1C03443C2D19730BDD01AB2A466E
:109A500000F10C010068FFF731FF019B5D1B18BF8F
:109A60004FF0FF35A36865600133A36003B030BDDC
:109A70000EB42DE9F04FA0B095490D9129AA00210F
:109A8000CDE90E1152F8043B03920A2693F9001017
:109A9000002900F00681252904D05C1C0DA8FFF7E1
:109AA000CBFFE2E093F90110302905D193F90210C0
:109AB000DC1C012200250CE02D2930D193F9021085
:109AC000DC1C0222F6E706FB0511A1F1300514F9B2
:109AD000011BA1F13003DBB2092BF4D921F02003E3
:109AE0004C2B04BF14F9011B42F00402002900F0C2
:109AF000D880CBB2A3F1610019289ABF203B5BB29A
:109B00000B46582BCADC4E2B0CDC432B00F0B580E7
:109B1000442B00F0BA80422BC0D102271FE09C1CCE
:109B20000022C7E7A3F14F000928B7D801A757F8CB
:109B300020F000BF5D9B00089D9A00089D9A0008D8
:109B40009D9A0008139C00089D9A00088B9C0008B1
:109B50009D9A00089D9A0008879C00080827039892
:109B6000442B00F1040CCDF80CC0006804D100288F
:109B7000BCBF404242F0080278290DF1140C0CBF22
:109B80004FF0270E4FF0070E0021E146B0FBF7F82B
:109B900007FB1803092B88BF734482465BB230333E
:109BA000574540460CF8013B01F1010803D8B8F1D4
:109BB000200F6CD11F21130708D508F180030DEB8E
:109BC00003082D2308F86C3C01F1020812F0010F84
:109BD00014BF4FF0300A4FF0200AC34602F00207CC
:109BE0000BF1010317B95D4553D89B4608F1FF38C7
:109BF0000DA819F90810FFF71FFFB8F1000FF5D1F4
:109C00005D4532D951460DA8FFF716FF0BF1010B48
:109C1000F6E7039B191DD3F8008003914FF000096C
:109C200018F909304F4609F10109002BF8D19207C4
:109C30000FD4BA4605E020210DA8FFF7FDFE0AF17A
:109C4000010A5545F7D8EB1BBD4238BF002303EB93
:109C5000090708F1FF3802E00DA8FFF7EDFE18F93B
:109C6000011F0029F8D1BD4201D823460EE720216B
:109C70000DA8FFF7E1FE0137F5E7039B1A1D93F9E5
:109C8000001003920AE7102769E70A2767E74146B1
:109C90007CE751460DA80193FFF7CEFE019B9B4642
:109CA0009EE70E9A002A06DA4FF0FF3020B0BDE89A
:109CB000F04F03B070470D9804AB10A9FFF7FEFDFD
:109CC0000028F1D10E9A049B9A42EDD10F98EDE74E
:109CD000DC47002070B5084D08490446D0E906234A
:109CE0002846FFF7C5FE6368226905492846BDE896
:109CF0007040FFF7BDBE00BFDC47002034EC000819
:109D000047EC000837B5C36982680192084D0949DC
:109D10005A1C0092044682692846FFF7A9FE636830
:109D200022690549284603B0BDE83040FFF7A0BED0
:109D3000DC47002051EC000847EC000837B50D4D1A
:109D400042690D4904462846FFF792FEE369A2687E
:109D500001925A1C00920949A2692846FFF788FE21
:109D6000636822690649284603B0BDE83040FFF722
:109D70007FBE00BFDC4700207EEC000851EC0008ED
:109D800085EC000837B50C4D42690C49044628465D
:109D9000FFF76EFEA36800930949D4E9062328461D
:109DA000FFF766FE636822690649284603B0BDE8EE
:109DB0003040FFF75DBE00BFDC4700207EEC0008AE
:109DC00091EC000885EC00082DE9F74F3D4CDFF8D9
:109DD000F880002704F128093A4801A9FCF76BFD37
:109DE00060BB667C56BB237CDA0727D5E3686269D3
:109DF0009B1A012B28BF01230DEB060A93B163695F
:109E0000C3F30B02002A4ED1019DB5F80AB00BF145
:109E1000FF3B1BEA133B25D1D3B9A06801281CD80E
:109E200002236374012E09D19DF9003008F8013B2B
:109E30000A2B07F1010701D0FF2FCDD100232248C3
:109E400088F800309F4208BF184603B0BDE8F08F85
:109E5000A1692068FEF7B6FEE0E7431C01D10123AB
:109E6000DFE7A061A1692846FCF700FD0028D7D0F4
:109E70000BEB0005E069854214D094F91030002BFB
:109E800009DA01224946FEF7EBFC0028E7D1237CE2
:109E900003F07F032374012249462846FEF7B6FBF0
:109EA0000028DCD1E5616169C1F30B01012249445D
:109EB0005046FCF714FD63690133636101360023EA
:109EC0009AE700BFDC470020E01E002073B5514D2B
:109ED00001A92846FCF7EFFC002840F099802B7C74
:109EE0005A0640F18F801B060CD5E869012205F166
:109EF0002801FEF7B5FC002840F08A802B7C03F097
:109F00007F032B74019C296A2046FEF784FD0028FC
:109F10007ED16B6A2968DA7A42F02002DA72AA6886
:109F20009A76C2F30720D8760978032901BF120C6C
:109F30001A75120A5A75EA681A77110A5977110CBC
:109F40009977120E2121DA771976002256219A7517
:109F5000DA7559769A74DA740123E3702046FEF7B5
:109F600037FD0646002848D12378032B45D12379B5
:109F7000012B42D104F1340104F5815314330A4614
:109F800002F8016B9A42FBD1552384F83232AA239E
:109F900084F83332522384F8343084F83530612326
:109FA00084F8363084F81B32636984F81C3241220D
:109FB00084F8372084F81A221A0A84F81D221A0C11
:109FC0001B0E722084F81F32236984F8180284F86B
:109FD0001902206A84F81E221A0A84F8203284F8B2
:109FE000212201301A0C1B0E84F8222284F823321D
:109FF00020630122FEF734FC26712B7C23F0400302
:10A000002B742EB9034801A9FCF755FC00B9286050
:10A0100002B070BDDC47002038B505460A20FEF7C7
:10A02000EDFF0246002840F08480454C45494648F3
:10A03000FFF71EFD45494448FFF71AFD2046FFF78C
:10A0400049FE04F12000FFF745FE04F14000FFF750
:10A0500099FE3F493C48FFF70BFD04F16000FFF714
:10A0600051FE04F18000FFF74DFE04F1A000FFF760
:10A0700049FE38493448FFF7FBFC04F1C000FFF704
:10A080005DFE04F1E000FFF759FE04F58070FFF774
:10A0900055FE31492C48FFF7EBFC04F59070FFF7B3
:10A0A00071FE2E492848FFF7E3FC04F5A070FFF786
:10A0B00069FE04F5B070FFF765FE29492248FFF7F5
:10A0C000D7FCD4F88431D4F8902126491E48FFF7F4
:10A0D000CFFC25491C48FFF7CBFCD4F89C31D4F8C1
:10A0E000A82120491848FFF7C3FC04F5DA70FFF7F0
:10A0F00049FE1E491448FFF7BBFCD4F8E8211C496F
:10A100001148FFF7B5FCD4F8DC211A490E48FFF7D7
:10A11000AFFC1949D4F8D831D4F8E4210A48FFF744
:10A12000A7FCFFF7D3FE15492846BDE83840FDF7E8
:10A1300005BB13491348FDF7E7FC1349F4E700BFDB
:10A1400068620020B0EC0008DC470020CFEC00087B
:10A15000D7EC0008E4EC0008F1EC0008FCEC000887
:10A1600007ED00081BEE00082BEE0008A6EE000825
:10A170007EEC0008B5EE000885EC0008C4EE00088F
:10A1800017EC0008CCEE0008DFEE00082DE9F74FD1
:10A19000704FD7F8F031D7F8EC810093009B43451E
:10A1A00005D16D4803B0BDE8F04FFDF7ADBC58F8E0
:10A1B000046B0120D6E903A9FEF720FF0546C0B1D4
:10A1C000042810D165496648FDF79EFCD7E97B312C
:10A1D000994240F0B980D6E90312624803B0BDE865
:10A1E000F04FFDF791BC02465C495F48FDF78CFCDF
:10A1F000ECE75E4BDB682BB9FFF768FE5C48FDF7C8
:10A2000083FCE3E75046FCF749F82C468346FFF70A
:10A21000DBFD30B957485146FDF776FCFFF756FE97
:10A22000D4E7554B93F90020184601334AB1202A50
:10A23000F8DD5B2A05D15D21019304F09DF8019BB7
:10A2400004465A465146184604F0A3F80028DED1C9
:10A250004846FCF723F88246FFF7B6FD48B1464A68
:10A2600092F900309346013253B1202BF8DD5B2B7D
:10A2700002D142484946CFE73B2B07D0232B05D0DC
:10A280003D21584604F078F80446F0B12246934543
:10A29000134603D212F9011D2029F8DDA3EB0B03AD
:10A2A0009A45D9D152464946584604F072F80028DA
:10A2B000D2D1FFF70BFE013494F90030A1460134EE
:10A2C0000BB1202BF8DD4B460CE00346E6E71946C0
:10A2D000222A11F9010F2FD1222833D085F0010550
:10A2E000EDB2013393F9002042B13B2A01D0232A79
:10A2F00000D11DB1A3EB0901FF29E8D94FF00002FD
:10A300001A700021484604F037F88145034603D20D
:10A3100010F9012D202AF8DD4FF000021A700021FB
:10A320004846FCF7ADFB336801461B68304698474A
:10A3300000283FF433AF49E75C2AD2D1222808BF76
:10A340000B46CEE70B46CCE753F8042B90685060E1
:10A350003EE700BF6862002063EF000817EC0008CA
:10A36000EDEE00083EEF0008FCEE0008DC470020A0
:10A3700014EF000820EF0008E01E002031EF000875
:10A3800008B5FFF703FFBDE80840FDF7E7BF000091
:10A3900010B50446FDF7F6FD14B90B48FDF74CFB6C
:10A3A00063690BB90948F9E700236361A268084BA8
:10A3B0001B6899689142FBD85A6823606260204606
:10A3C00014605C6010BD00BF75EF0008AAEF0008C4
:10A3D000EC2F002070B504460E461546FDF7D2FD61
:10A3E0000C4A116821FA04F313F0010002D00A4864
:10A3F000FDF722FB0123A3400B431360074A210111
:10A4000002EB041355509E6058602046BDE8704032
:10A41000FBF77CBF201E002081EF0008D819002028
:10A42000154B07B5D3F8081451B1D3F80424013201
:10A43000102A28BF00220139C3F80424C3F80814E5
:10A440000E4A1268032A14D1D3F80824D3F80C3426
:10A450001A430ED06846FCF76BFCFDF7FBFBDDE909
:10A4600000210120FFF7B6FF03B05DF804EBFDF714
:10A4700005BC03B05DF804FB2C3000205C340020E8
:10A48000214B1B68032B73B50C463AD1FDF716FB25
:10A490001E4BD3F808140F29E4B203D9D3F80C24C7
:10A4A0003F2A2CD8D3F80C54D3F80024681C03EBB3
:10A4B00082163F287455C3F80C044FF000040AD9E3
:10A4C0000132102A28BF22460131C3F80C44C3F8D8
:10A4D0000024C3F80814D3F808345BB10C4B1B6894
:10A4E0009B0707D46846FCF723FCDDE90021012027
:10A4F000FFF770FFFDF7F6FA204602B070BD0D249D
:10A50000E9E71424F8E700BF5C3400202C30002079
:10A51000201E0020104B1B68032B07B519D10F4BD1
:10A520001B689B0715D40E4AD2F80834D2F80C24C5
:10A5300013430ED0FDF7C2FA6846FCF7F9FBDDE9DC
:10A5400000210120FFF746FF03B05DF804EBFDF7A3
:10A55000C9BA03B05DF804FB5C340020201E002063
:10A560002C3000202DE9F84F1D462D4B1B68C3F3FE
:10A57000400A9B070E46174650D4DFF8B080DFF83C
:10A58000B090DFF8B0B0FDF799FA01234FF47A7C70
:10A59000514640F2E730C8F80030E5FB0C014FF4BB
:10A5A0007A720023FBF782FED9F82440DFF888A0F6
:10A5B000A4B285B2D9F824309BB21A1B92B295424C
:10A5C00021D3E31A2B44DBF80C20CAF8002098B200
:10A5D000FDF7F4FF022816D0124AD2E900231A44EC
:10A5E0009342E7D013F8011B3E29F9D10E4B1B68AB
:10A5F0000024032BC8F800400ED13A463146012012
:10A60000FFF7E8FE03E00023C8F800300224FDF75E
:10A6100069FA2046BDE8F88F1424F8E70424F8E727
:10A62000201E0020FC4600205C34002088470020CB
:10A6300000540140EC2F00200447002013B50446CD
:10A640000191FDF73BFA094B019AD968084B0320A9
:10A6500019602146FFF7BEFE4FF6FF70FDF7AEFF13
:10A6600002B0BDE81040FDF73DBA00BFEC2F00205E
:10A670000C30002070B504460E461546FDF782FCEE
:10A68000094A01231168A3400B431360074A2101C3
:10A6900002EB0413555000229E6020465A60BDE82C
:10A6A0007040FBF785BE00BF181E0020481B00202D
:10A6B000F7B5470107F1A0430446D3F80859C3F89A
:10A6C0000859E9071ED54FF0A043D3F81038DA0730
:10A6D00018D556494FEA001C01EB001351F80C60E5
:10A6E000DA68964229D29868921B304441F80C20CF
:10A6F000002298605A60FDF7ADFA2046FBF706FE8F
:10A70000FDF7BCFA2B0640F18E804FF0A0430126E6
:10A71000D3F83438A640334200F085804349DFF84F
:10A720002CE12301250305F1A04551F803C005F5EF
:10A730008055194407F1A0476AE03D4901220B68A2
:10A74000824023EA02030B60002844D1394E33686B
:10A75000062B3ED8DFE803F02A041A242A2A2D000B
:10A76000354B1A68354BDB8893420FD912F03F0204
:10A770000CD10192FDF76EFA019A11461046FFF7CF
:10A7800029FEFDF77BFA02233360BBE70423336025
:10A79000FDF760FA002211461046FFF76BFFAFE7A6
:10A7A000274B1B6803B198470023EDE72548FDF7C9
:10A7B00043F94FF0A043D3F8002942F40012C3F844
:10A7C0000029D3F8002B42F40012C3F8002B062313
:10A7D000DAE71D48EBE7FBF78FFD93E75EF824000F
:10A7E0000069ACEB0203834228BF0346D7F818097F
:10A7F00080B2B3EB800F16D8886810441A444A60C0
:10A80000021F184452F8043F2B60831A042BF9D816
:10A810004A689445E2D84FF0A042D2F8343823EA8F
:10A820000603C2F8343803B0F0BD00BFD8190020C9
:10A83000201E002008370020003700201837002095
:10A840000437002096EF0008A3EF0008F808002066
:10A850002DE9FF48C14CDFF848A3FDF72FF9C04AA6
:10A86000DAF80C3013604FF6FF70FDF7A7FE0546CF
:10A87000FDF738F9002D7AD1E17B352909D819295E
:10A8800015D8032900F08780122900F09080002954
:10A890004CD0B448FDF738F9B34B9A78052161F3F1
:10A8A00003029A7020221A7300225A7323E1A1F145
:10A8B0001A031B2BEDD801A252F823F0D3A90008EC
:10A8C000E1A9000893A800080DAA0008C1AB000880
:10A8D00093A8000893A8000893A8000893A800086C
:10A8E00039AA000893A8000865AA000893A80008E0
:10A8F00093A8000885AA000893A80008DFAA00080A
:10A9000093A8000893A8000893A8000893A800083B
:10A91000C1AB000893A8000893A8000893A80008FA
:10A9200093A8000893A80008C1AB00088F4B2172C0
:10A9300055221A704220532298705A70DA70626859
:10A940005A608B4A61721078A172874AE17219725B
:10A9500059729972D972A0B119739378117361F316
:10A9600003039370517381480D21FFF767FEFDF7D4
:10A97000A5F81F2221460320FFF77CFEFDF7B2F861
:10A9800069E7022119739378507361F3030393709D
:10A990003A231373E7E7E67C7348122E28BF12268A
:10A9A0003146FFF74BFEA3689B1BA36020E0668A3D
:10A9B000237C76BADB07B6B205D5072E28BF07265B
:10A9C0006C483146EDE7242E28BF24266A483146DC
:10A9D000E7E7E67C6948082E28BF08263146E0E70D
:10A9E000E37C03F00303022B0BD1614B00221A70AE
:10A9F0005D4B9A786FF303029A7000221A735A73B0
:10AA000008E0032BF4D15A4B0122F0E75C48FDF734
:10AA10007BF80725554B5521197042205321597059
:10AA20009870D970616859600022002D40F0CE8086
:10AA30001D73A2689A6096E752480823C370524B70
:10AA40001B681BBA436002230372504B1B68C3721E
:10AA50001A0C42721A0A82720C21FFF7EFFDA368EA
:10AA60000C3BA2E7484B1B68013B1BBA48480360FC
:10AA7000464B1B681BBA08214360FFF7DFFDA36844
:10AA8000083B92E703A8FDF757F89DF80C30DDE985
:10AA9000049783BBDFF8F4A0DFF8FC80002FA7D079
:10AAA000DAF800604FF48053B3FBF6F2BA4228BFE5
:10AAB0003A464146484693465643FDF7A7FD50B9EE
:10AAC00031464046FFF7BAFDA168891BA160A7EB9C
:10AAD0000B07D944E2E72F48FDF716F80BE094F98D
:10AAE0000C30002B09DA204B9A78052161F3030220
:10AAF0009A7020221A7301258CE703A8FDF71CF831
:10AB00009DF80C20DDE90479002AF4D1DFF87CB04F
:10AB1000B9F1000F3FF46CAFDBF8006009FB06F8F9
:10AB2000B8F5805F28BF4FF48058FCF7C7FFB8FB2B
:10AB3000F6F60B4BDAF80C2017491A600320424650
:10AB4000FFF798FD4FF6FF70FDF738FD0190FCF719
:10AB5000C9FF0198104928B31048BDE73C340020D4
:10AB60000C300020DEEF00089536002088360020EB
:10AB70000808002040F9000807F9000838F9000823
:10AB8000B8EF00082C1E0020EC460020E84600200C
:10AB9000241E0020CBEF0008E01F0020D4EF0008A7
:10ABA000EC2F002032463846FDF75AFE0028A2D18D
:10ABB000A268A2EB0802A260A9EB06093744A7E746
:10ABC000002323726372A372E37211E702211973E7
:10ABD0001A725A729A72DA72C5E600BF10B504464C
:10ABE000FDF7D0F9236883B159690022226061B171
:10ABF0001A765A619968054A126890688842FBD2B1
:10AC000051681A6059600B60536010BDEC2F002032
:10AC100008B5FDF71FF80648036823B15B69062BEA
:10AC200001D1FFF7DBFFBDE80840FDF727B800BF03
:10AC30000C30002008B5FDF70DF80648036823B175
:10AC40005B69062B01D1FFF7C9FFBDE80840FDF79E
:10AC500015B800BF0C30002010B50446FCF7FAFF11
:10AC600004F11C00FFF7BAFFBDE81040FDF706B87D
:10AC700010B50446FDF786F914B90A48FCF7DCFE66
:10AC800063690BB90848F9E700236361A268074BC1
:10AC90001B6899689142FBD25A6823606260146015
:10ACA0005C6010BD75EF0008AAEF0008EC2F0020D3
:10ACB00010B50446FCF7CEFF6369052B07D8DFE823
:10ACC00003F00B060603130FA36900221A60022388
:10ACD00023762046FFF7CCFFBDE81040FCF7CEBF3F
:10ACE000A269936801339360D4E9003213605A601B
:10ACF000EDE7000010B50446FDF744F9A3682068AD
:10AD0000002B0EDBA0420ED10133002BA3600DDC23
:10AD1000036823605C600023BDE810400376FFF702
:10AD2000A7BFA042F0D10248FCF786FE10BD00BFCD
:10AD300031EB00080E4B5A6F002A10B516DD013AB0
:10AD40005A67DA6D046802F10801D9651460406839
:10AD5000506003F15802914238BFDA6D054828BFB0
:10AD60001A46DA65FFF7C6FF002010BD0220FCE797
:10AD7000080900206809002013B50446FCF76AFFA3
:10AD8000A37D8DF80530002268460092FFF7D2FFC0
:10AD9000A369012B02D12046FDF7A6F902B0BDE858
:10ADA0001040FCF76BBF00002DE9FF47430103F1A2
:10ADB000A0430646D3F8087BC3F8087BA8BB380736
:10ADC00033D54FF0A043D3F8143819072DD5DFF849
:10ADD000B482D8F800300BB1C8F80060A74BA84A7D
:10ADE000D3E9004504F06009B9F1200F1460556003
:10ADF00040F00482AAB2012AC4F3072343D1212BD5
:10AE00003DD81F2B00F2F7814FF0A043D3F8002963
:10AE100042F40012C3F80029D3F8002B42F40012C8
:10AE2000C3F8002B0623C8F80030F80740F1C881AA
:10AE30004FF0A043D3F81438D90740F1C181002E58
:10AE400040F0C1818F4C2068031F012B00F2B881B4
:10AE50008D4B59688A0640F09B811D68DA689542DF
:10AE600080F09681521BC3E90026FCF7F3FE3046C2
:10AE7000FBF79EFA04B0BDE8F047FCF7FFBE222BBB
:10AE8000C2D1002312E022060CD5FE2BBCD12B0C24
:10AE9000012BB9D17D4A002111707D490A607D4A9C
:10AEA0001360CCE1FF2BAFD12B0CADD11A46F4E7E8
:10AEB000B3F5817F00F0298140F202318B42A3D1AA
:10AEC00014F47F0FA0D12B07E9B200F0D0801379E2
:10AED00003F00F035B0111F0800F03F1A04300F0BA
:10AEE0003281D3F8002942F4001222E1B3F5006F59
:10AEF00060D00FD8A3F5C063012B85D8230E022B99
:10AF000000F07681032B48D0012B7FF47DAF624B9C
:10AF100012224BE0B3F5106F53D040F60242934239
:10AF200085E15B4A02A911605A4A022111605B4A1D
:10AF3000136017E04FF0A042C4F30741D2F8003885
:10AF400023F4FE6343EA0113C2F80038544B022293
:10AF50001A604F4BC3F800904E4BC3F800904F4B14
:10AF6000C3F800904B4B19682A0CB1EB154F88BF02
:10AF70001A601A680192240640F1F780002A00F056
:10AF8000E7800123C8F80030FCF764FE404B019ACB
:10AF900019680020FFF71EFAE4E0C4F30743032B0F
:10AFA0003FF632AF3F4A52F823301A7838490B60E7
:10AFB000384B43E1364B3C4A1A60364B01221A604B
:10AFC000CDE7DFF8DCA0DAF80030032B18D1FCF76E
:10AFD00041FE364A136803F001031360344A1368D4
:10AFE00003F001031360334B80221A60FBF722FA4F
:10AFF000FCF744FE2C4B83F800900223CAF8003083
:10B0000014F47F0FC4F3074231D0274B4FF00309EC
:10B010001A70CAF80090FCF71DFE27490120FCF7C2
:10B02000D3FE26490220FCF7CFFE254A25481368A7
:10B030002549834218BF0146116001204022FFF7D5
:10B0400019FB22494846FCF7BFFE21491F2248460A
:10B05000FFF710FB1F4B01221A7000204FF4A06372
:10B06000CDE9020302A8FFF765FEFCF707FE084AD8
:10B0700000231360074A136059E700BF1037002010
:10B080001837002008370020481B0020E82F002038
:10B090000C37002000370020ECFF000804370020A8
:10B0A0005C34002068000108101E0020201E0020D3
:10B0B000181E0020FC2F0020CCFA000850000108C8
:10B0C000A00800200847002048470020100301087E
:10B0D0003C34002008080020137903F00F035B01C3
:10B0E000290603F1A0430DD503F510631B681A046C
:10B0F0007FF58AAE13F4001F18BF534A534B08BFA5
:10B10000534A98E003F53063F0E714F47F0F7FF4BF
:10B110007BAE2807E9B2AAD0137903F00F035B01D5
:10B1200011F0800F03F1A04306D0D3F8002922F4D8
:10B130000012C3F800299AE7D3F8002B22F400127A
:10B14000C3F8002B93E7D3F8002B42F40012F7E783
:10B150000423C8F80030FCF77DFD019A1146002059
:10B16000FFF788FAFCF78AFD5FE642B10523C8F8CD
:10B170000030FCF76FFD354B019A1968EFE70323A8
:10B18000C8F80030FCF766FD019A1146104601E749
:10B19000304A1368052823F00103136009D1032303
:10B1A0002360FCF757FD002211461046FFF712F905
:10B1B00060E629B9284B1B6803B198470023236038
:10B1C00004B0BDE8F087234901220B68B24023EAAE
:10B1D00002030B60214B03EB06135868204B53F816
:10B1E00026301B68002BEBD004B0BDE8F0471847B1
:10B1F0001C4B6222DAE61C4A07234EE6B9F1000F27
:10B200007FF402AE137804F47F4103F01F030B4375
:10B21000B3F5A06F3FF48EAE3FF668AE022B3FF45D
:10B220005BAF3FF645AE002B3FF47BAE012B7FF4C6
:10B23000EBAD064B0D4A1A600D4B02221A60064B0D
:10B2400000221A608EE600BF84FF00080C37002041
:10B2500030FF0008181E002004370020481B002083
:10B26000F80800208AFF000800080020C8FA00083B
:10B270000037002013B50446FCF7ECFC104B114AD4
:10B2800018681149C2E90040104A904218BF11469F
:10B29000402201201960FFF7EDF90D4B1B685BB9E7
:10B2A000009368464FF4C0630193FFF743FD02B07B
:10B2B000BDE81040FCF7E2BC0648FFF78FFCF6E75C
:10B2C000A0080020FC460020484700200847002036
:10B2D0008847002004470020F8B50369044613B1ED
:10B2E0000430FCF7EBFE4FF0FF35002604F1280791
:10B2F000E3691A68042AFDD8DFE802F0030A243261
:10B300001400236820469B6898470128F0D1F8BDB7
:10B3100059681033E3610029EAD02046BDE8F840BF
:10B32000FCF7C4BF626A013204BF5A686262626A93
:10B330001AB910336562E361DAE7A369E361013AA0
:10B340006262D5E75A68A36903EB0213E36194F8DC
:10B350002D301BB104F12800FFF7ECFC0121DCE7E4
:10B3600094F82D3013B13846FFF7E4FC236A13B983
:10B37000C4E90633CBE7C4E9063365622662B7E762
:10B38000054B4FF0FF325A620022C3E906001A62F1
:10B390001846FFF7A1BF00BF9047002070B53B4B98
:10B3A0003B4D3C4C3C4E01221A70D5F8D8312BB1A4
:10B3B0003A4B1A6822609B88A3802EE0D5F89C3017
:10B3C000D5F88420013393421EBF336803F1FF3365
:10B3D000336000236370A370E370D5F88431A380D9
:10B3E00023F480711022B1F5004F22709AB248D038
:10B3F0009BB96B6AD5F8B0116A6801F00F019B0127
:10B4000043EA8103217901F003010B43237163793E
:10B410000E2062F3060320706371214A21491D4802
:10B42000FCF7B8FA1E4A20491A48FCF7B3FA21681B
:10B43000A08895F844211D4BFBF7BEFE1C4B5A6AB1
:10B440001C4B1A80FCF73AFB1B48FFF799FFFCF7EF
:10B4500049FBFCF733FB19491948FBF7CBFAFCF71A
:10B4600041FBFCF72BFB15491648FBF7C3FAFCF729
:10B4700039FB154B31681A681448BDE87040FCF779
:10B48000AFBA95F8B831134396E700BF181A0020F9
:10B49000686200205C62002064620020111E0020AF
:10B4A000F6EF00081058002018660020B9B7000811
:10B4B00000540140546100200402010854020108B4
:10B4C0006C610020BC61002050620020FCEF00088D
:10B4D000054A9169034621B9D16911B908B1FFF74D
:10B4E0004FBF1362704700BF90470020F8B5036953
:10B4F000044613B10430FCF7E1FD4FF0FF350026A0
:10B5000004F12807E3691A68042AFDD8DFE802F08D
:10B51000030A24331400236820469B6898470128B7
:10B52000F0D1F8BD59680C33E3610029EAD0204618
:10B53000BDE8F840FCF776BE626A013204BF5A6883
:10B540006262626A1AB90C336562E361DAE7A36981
:10B55000E361013A6262D5E75A68A3690C2101FBF5
:10B560000233E36194F82D301BB104F12800FFF79A
:10B57000E1FB0121DBE794F82D3013B13846FFF7EA
:10B58000D9FB236A13B9C4E90633CAE7C4E9063311
:10B5900065622662B6E7000003692DE9F0410446C2
:10B5A00013B10430FCF78AFD4FF0FF35002604F19B
:10B5B0002807E3691A68042AFDD8DFE802F0030BC4
:10B5C00035452500236820469B6898470128F0D11F
:10B5D000BDE8F08158680833E3610028E9D04FF4F2
:10B5E0007A7640F2E7350021E0FB06514FF47A729B
:10B5F00000232846FAF75AFE1B4A234681B2BDE8CB
:10B60000F041181DFCF75FBD626A013204BF5A6841
:10B610006262626A1AB908336562E361C9E7A369C5
:10B62000E361013A6262C4E75A68A36903EBC203AB
:10B63000E36194F82D301BB104F12800FFF77AFB89
:10B64000094A23460121DAE794F82D3013B1384630
:10B65000FFF770FB236A13B9C4E90633B8E7C4E9FE
:10B66000063365622662A4E7A57C00080B4B5A6C82
:10B67000002A11DDD96A0068013A5A640A1DDA62AB
:10B68000086003F124018A4238BFDA6A044828BFFF
:10B690001A46DA62FFF72EBB704700BFA8360020BB
:10B6A000D8360020174A184B13B591885C690123DE
:10B6B0008B4023420ED0154910894B6A1B1A9BB24E
:10B6C000232B07D94B6A138101A84FF08073019394
:10B6D000FFF7CCFF0E4A918801238B4023420ED006
:10B6E0000A4910894B6A1B1A9BB2232B07D94B6A54
:10B6F000138101A84FF080730193FFF7B7FF02B0E9
:10B7000010BD00BF40620020000401400054014011
:10B710001062002013B50446FCF79CFA21680A6900
:10B720000B69920703F0040315D443B9226A32B1BE
:10B7300023624FF0C06301A80193FFF797FF0E4A01
:10B7400023461B2104F10C00FCF7BDFC02B0BDE850
:10B750001040FCF793BA002BF1D04A6B8B6B1AB1F7
:10B7600064214B43B3FBF2F2236A991A48BFD11A02
:10B770000929E4DD2262DCE715B7000807B50523D7
:10B780008DF8060001A8ADF804108DF80730FFF71A
:10B790006DFF03B05DF804FB13B50446FCF75AFADD
:10B7A000002301A801938DF80740FFF75FFF02B067
:10B7B000BDE81040FCF762BA07B54FF0007301A86E
:10B7C0000193FFF753FF03B05DF804FB70B5124D12
:10B7D0000446FCF787FB2A68EE68AA42B36805D0E6
:10B7E0009268934202D20D48FCF726F90022227695
:10B7F000A2689A4204D82046BDE87040FFF738BAE4
:10B800003046FEF7C5FD01230146EC60636120462A
:10B81000BDE87040FCF7C8BAEC2F002010F000081B
:10B8200008B5054BD3E901210A4302D00348FCF7D0
:10B8300003F901229A6008BD045800205AEA000862
:10B8400008B5054B5A6812B99968002902DC03480B
:10B85000FCF7F2F89A6008BD0458002064EA00087A
:10B86000084B10B51C68D86822681A605360DC6009
:10B8700001236361FEF78CFD01462046BDE81040C0
:10B88000FCF792BAEC2F002008B5FCF72BFBFCF775
:10B8900079FB064B1A68DB6892689B689A4203D969
:10B8A000BDE80840FFF7DCBF08BD00BFEC2F00205B
:10B8B00007B50190FCF702F90198FFF7D7FEFFF7F3
:10B8C000E3FF03B05DF804EBFCF70CB913B5084BCC
:10B8D000002204461A7001A84FF080730193FFF70D
:10B8E000E7FF0449204602B0BDE81040FBF726BF41
:10B8F000171E00208EE9000813B5084B01220446EC
:10B900001A7001A84FF080730193FFF7D1FF04492B
:10B91000204602B0BDE81040FBF710BF171E002004
:10B920008EE900082DE99F489A4C04F1300BFCF792
:10B93000C5F85846FCF7FCFAB0B9A36A964853F824
:10B94000045B834228BF23461830A362FFF7D2F975
:10B95000FFF79AFFFCF7C6F8904B1F7837B140F21B
:10B96000E730FCF73DFFE2E70025F3E72B0E02D1BD
:10B97000FCF7F4FCDBE7052B40F07B81C5F30743C4
:10B98000874A8849884E029302A8ADF80C50FCF70C
:10B9900001F8834A854902A8FBF7FCFFD6F8D85185
:10B9A000029BBDB1824A834E1360BDF80C30938078
:10B9B000FCF784F88048FFF7E3FC3D467F4F7019A1
:10B9C00039465035FBF716F8B5F5A07FF7D1FCF7EF
:10B9D00089F8ACE70E2B40F09B809DF90D30002BD1
:10B9E000A5DB774F3A68002AA1DD9DF80D807368CA
:10B9F00008F07F0898459AD0736C98451BD1DFF802
:10BA000008923D60FCF75AF86E486A4EDFF8ACA128
:10BA1000FFF7B6FC0025701951465035FAF7EAFFDA
:10BA2000B5F5A07FF7D1684B1B68032B31D8DFE851
:10BA300003F02A454A409DF80C10736AB3EB911F3E
:10BA40003FF475AF614B586A614B1B88C01AD6F83A
:10BA50000431C3EB431C03EB8C03DB0080B29BB2CD
:10BA60009842FFF464AF5B4BC1F3830153F821901C
:10BA7000F36F716E01339942C4D04A45C8BFA2EB3F
:10BA800009053D60BEE70020FFF722FD0020FAF720
:10BA9000E5FFFCF727F83B684F484A464146FBF76D
:10BAA0009FFF3B68002B13DD484B5A6A484B1A80B6
:10BAB0003DE74A48FFF70CFD4948E8E74948FFF7EA
:10BAC00007FD4948E3E74948FFF702FD4848DEE73C
:10BAD000FBF7F4FF474B41489A693A4B9A4214D11D
