:020000040800F2
:2000000000040020A1010008A3010008A3010008A3010008A3010008A3010008A30100080A
:20002000A3010008A3010008A301000845380008A3010008A3010008A3010008A301000887
:20004000A3010008A3010008A3010008A3010008A3010008A3010008A3010008A301000840
:20006000A3010008A3010008A3010008313C00085D3C0008893C0008B93C0008E93C00086F
:20008000193D0008493D0008A3010008A3010008A3010008A3010008A3010008A30100086C
:2000A000A3010008A301000865380008A3010008A3010008A3010008A3010008A3010008E7
:2000C000A3010008A3010008A3010008A3010008A3010008A3010008A3010008A3010008C0
:2000E000A3010008A3010008A3010008A3010008A3010008A3010008A3010008A3010008A0
:20010000A3010008A3010008A3010008A3010008A3010008A3010008A3010008A30100087F
:20012000793D0008A53D0008D13D0008013E0008313E0008A3010008A3010008A30100083F
:20014000A3010008A3010008A301000815390008054F0008FFFFFFFFFFFFFFFFFFFFFFFFF5
:200160002DE9F04F2DED108AC1F80CD0C3689D46BDEC108ABDE8F08F03F06CF9002383F37B
:2001800011882846A0474FF0000300F087FE03F051F903F06FF903F05DF900DFFEE7000015
:2001A00002E003F0ADFBC04672B6304880F308882F4880F309882F484EF60851CEF20001C9
:2001C000086040F20000CCF200004EF63471CEF200010860BFF34F8FBFF36F8F40F2000043
:2001E000C0F2F0004EF68851CEF200010860BFF34F8FBFF36F8F4FF00000E1EE100A4EF66B
:200200003C71CEF200010860062080F31488BFF36F8F4FF055301849144A91423CBF41F899
:20022000040BFAE71549124A91423CBF41F8040BFAE71349134A144B9A423EBF51F8040BD4
:2002400042F8040BF8E700201049114A91423CBF41F8040BFAE70F4C0F4DAC4203DA54F8DD
:20026000041B8847F9E703F0FDBD000000040020000800200000000800000020000400206B
:20028000805E000800080020A0080020A008002058580020500100085401000853B94AB92B
:2002A000002908BF00281CBF4FF0FF314FF0FF3000F00CB8ADF1080C6DE904CE04F0F8FEF6
:2002C000DDF804E0DDE9022304B07047704700BF30BFFDE782B00190019B5A1E0192002B31
:2002E000FAD102B070470000034B53F820305B6803B11847704700BFFC1C002030B5264A08
:20030000264C050102EB00135159D960430169BB4FF0A0424FF40021C2F8101954F8202026
:200320009268012A10D14FF0A04203F1A041D2F8082812F4807FD1F8002914BF42F08052F9
:2003400042F00052C1F8002903F1A043D3F8002942F00442C3F800294FF0A0420123D2F801
:20036000341883400B43C2F8343830BD18B9402984BF4021116054F8201052590D69511EB2
:200380002944B1FBF5F142EAC14203F1A04142F00052C1F81029C1E75C2E0020FC1C00205A
:2003A0001E4A10B5040102EB00111359CB6018B9402B84BF40231360194B125953F82010D7
:2003C000CB68013A1A44B2FBF3F25343033323F00303400143EAC24300F1A04243F0C0435E
:2003E000C2F8103B8B68012B0ED14FF0A043D3F8083813F4807FD2F8003B14BF43F08053E9
:2004000043F00053C2F8003B00F1A040D0F8003B43F00443C0F8003B10BD00BFEC2F002059
:20042000FC1C0020002211464FF0FF30530103F1A0430132042AC3F80019C3F81019C3F89E
:200440000809C3F8001BC3F8101BC3F8080BEDD14FF0A0434FF00112C3F81C287047000019
:2004600090F88830284A30B533B9536AB0F88A401B1B9BB2632B04D9002380F88830C0F8D1
:200480008430536AA0F88A300829D0F8843005D133B3013BC0F88430002321E00D2901D05D
:2004A0000A292AD1E3B10022C25403461946174D13F9012B15F9014BA4B9DAB113F9012B84
:2004C000124D15F9014BA24211D172B1002203F8012CC0F880300123C0F88C1080F8883020
:2004E000184630BDA242E5D1E0E71346F1E7002CE7D1E3E713461146EBE77E2B9EBF5A1C73
:20050000C0F88420C154C7E70054014090530008072910B54FF00F0308D8046889008B4056
:2005200024EA03038A401343036010BD0839446889008B4024EA03038A4013434360F4E764
:20054000836803F08203022BFAD17047144A1549536943F0030310B5536142680C235343F0
:20056000CC18CB58BBB1104B9B56A26803F1604101F561411201D2B281F8002303F01F013F
:200580005B099B0003F1604303F5614301228A40C3F880211A60036800221A6010BD00BFD3
:2005A000001002400C080020685A0008104B984203F564430ED00F4A90420BD002F5C0522A
:2005C000904207D002F58062904203D002F58062904207D1084A5B68106813F4005F18BFA7
:2005E000400070475B68054A13F4806F1068F6E7002C0140003401404C5600204856002045
:2006000000F5805310B5D3F8A420B2F5805F18D2D3F89C20541CC3F89C401170D3F89C10C8
:2006200000F5845218329142D3F8A42028BF983002F1010228BFC3F89C00C3F8A4200020C1
:2006400010BD0D20FCE72DE9F04385B098469DF9309001AB0646002508461F46B0FBF2F4AA
:2006600002FB1401092984462046CCB294BF3034373464B2944503F8014B05F10105EDD275
:200680002C46336844451B6809D33368013D1B6879573046984730B9002DF6D104E0494694
:2006A0003046984718B10D2005B0BDE8F0830134E7E72DE9F04F054685B014460E4616F98D
:2006C000013B33B92B685B68284605B0BDE8F04F1847252B06D02A68194612682846904760
:2006E00088B3EFE791F90180B8F1300F0CBF8E1C4FF020084FF0000916F9011BA1F13002E3
:20070000D2B2092A04D852B20A2303FB0929F3E72A2902D114F9042BF6E72E290AD116F98B
:20072000011BA1F13003DBB2092BF8D92A2901D10434F4E7632936D015DC412963D004DC0E
:20074000252900F089803146B8E7532932D05829F9D1CDF800804B46102254F8041B284692
:20076000FFF771FFBCE7732924D015DC642901D06929E8D154F8047B002F07DA2B682D218A
:200780001B682846984700289CD17F42CDF800804B460A223946E2E77529D4D1CDF8008061
:2007A0004B460A22D9E72B6814F9041B1B682846984795E7D4F800A053461F4613F9012B0F
:2007C000002AFAD10AF1FF3BBBF1FF3F02D01BF9011F21B9A7EB0A07A9EB07070FE02B685E
:2007E00028461B6898470028EED06BE72B6841461B6828469847013F00287FF463AF002FEB
:20080000F4DC04349FE7D4E90093D4F80880039300274FFA88FA4FF0300B039B9F4201DB49
:200820000C3490E76FB919F80710CDF800B0022310222846FFF707FF00287FF443AF0137B6
:20084000EBE7B8F1000FEED02B6851461B68284698470028E7D035E72B681B68A7E70000B7
:200860000649002331F8022B22B1824203D1044A32F8130070470133F4E700BFB85A00081B
:20088000985C00080068704783690239023B8B4283BF4389C06A01FB0300002070470000FE
:2008A00003685A1C02601A78A2F16103192B104603D8A2F1200080B270477F2A82BF024B24
:2008C0009B1813F8800C70474B5700087FB5044601911D46114629B994F900305BB955B1EA
:2008E000012006E001A8FFF7DBFF01390028F2D1002004B070BD019B03940293039890F966
:2009000000303F2B01D02A2B1FD100231A4610F9011B3F2990F900100CBF013201233F29F4
:20092000F5D02A29F3D0029E03903146FFF7CEFF0028D5D196F9001089B201A8FFF7B0FF79
:20094000002DD5D00029D6D1D2E703A8FFF7A8FF064602A8FFF7A4FF86420146EDD1002E6A
:20096000CCD1BDE7026830B55AB111460B4611F9014BE5B21F2D0DD93A2CF7D1511C8B42AD
:2009800002D04FF0FF3006E092F90020302AF8D101330360002030BD10B560B103685BB172
:2009A0001A785AB18288DC88944216BF0920002000230B6010BD03460920FAE71346FBE74F
:2009C00000207047D0E90D3103EB8103002242645A6370470A480B49426A92B2CB68DB07F0
:2009E00006D5436A9B1A9BB22C2BF7D904207047CB6813F01C0F14BF01200020704700BF80
:200A0000005401400020024008B5FFF7E3FF034A136943F08003136108BD00BF0020024071
:200A2000144B984205D1144A936943F0040393617047124B984204D10F4A936943F00803C9
:200A4000F5E70F4B984204D10B4A936943F01003EDE70C4B984204D1074A936943F020039D
:200A6000E5E7094B9842E3D1034A936943F04003DDE700BF0008014000100240000C01409E
:200A8000001001400014014000180140F8B517461C46FFF7C5FF0A4A936943F001039361B6
:200AA00044EA870242F008020E46FFF731FDC36B012202FA06F123EA0101C163F8BD00BFE0
:200AC000001002400023C0E90033124BD3F8081110B539B1D3F8042103EB8213436040235C
:200AE000036010BDD3F80C41002CFAD0D3F80421C3F80C1103EB8212C0E90042D3F8002197
:200B00000132042A28BF0022C3F800210122C3F80821E6E7C852002080014FF0A04340F0AE
:200B2000200018611A699206FCD41220FFF7D2BB034BD3E9012101238B405361704700BF37
:200B40002C300020044B1B68D8609A68D207FCD5D86880B2704700BF2C30002008B5FFF74C
:200B6000F1FFC1F30740FFF7EDFFC1F30720FFF7E9FFBDE80840C8B2FFF7E4BF034BD3E9E5
:200B8000012101238B401361704700BF2C300020034B1B689A68D20700D47047DA68F9E785
:200BA0002C300020384B984205D1384A936943F4006393617047B0F1804F05D1334AD369C4
:200BC00043F00103D3617047314B984204D12F4AD36943F00203F5E72E4B984204D12B4A62
:200BE000D36943F00403EDE72B4B984204D1274AD36943F00803E5E7284B984204D1234A40
:200C0000D36943F01003DDE7254B984204D11F4AD36943F02003D5E7224B984204D11B4A37
:200C2000936943F40053C4E71F4B984204D1174A936943F40023BCE71C4B984204D1134A9D
:200C4000936943F48013B4E7194B984204D10F4A936943F40013ACE7164B984204D10B4A89
:200C6000D36943F04003ADE7134B984204D1074AD36943F08003A5E7104B9842A3D1034A5C
:200C8000D36943F480739DE7002C0140001002400004004000080040000C00400010004083
:200CA0000014004000340140004C0140005001400054014000180040001C004000200040A4
:200CC000814230B518D0013810F8015F11F8014BA5F14102192A6BB262B2A4F1410498BF10
:200CE0002033192C98BF20329B1A01D1002DEBD1B3FA83F0400930BD0023F9E703284B8BE9
:200D000004BF8A8A43EA024318467047036843F001030360704700F580521346516810B41C
:200D2000043314695B1AA34228BF234653618BB100231373D2F8A0305DF8044BD960928A29
:200D40005A60026851680A6822F040020A601846FFF7DCBF5DF8044B704700F5805310B4B0
:200D6000D3F8A0100A6822F001020A60D3E904245968121B21441C460434A14228BF011D4E
:200D80001A61596022B901225DF8044B1A7370475DF8044BFFF7BFBF00F5805393F8A030FE
:200DA00013B19430FFF7B7BF7047000070B50D4C0160A1428ABF0C4C0C4D64184FF01406F7
:200DC00084BFB4FBF6F10731094C9CBF6D18B5FBF6F141600C204143601862504360049B79
:200DE000836070BD80000240F8FBFDBFF8FFFDBF0C0800200FB407B504AA054852F8041BA8
:200E00000192FFF756FC03B05DF804EB04B07047683000200EB403B503AA52F8041B0192BA
:200E2000FFF747FC02B05DF804EB03B07047000070B5D0F89050114904462846FFF740FF05
:200E400028B10F492046BDE87040FFF7E3BF0D492846FFF735FF38B120460B4B0B4A0C49D1
:200E6000BDE87040FFF7D6BF0A492846FFF728FF08B172B6FEE70849E4E700BF9353000825
:200E8000985300089D530008A5530008B3530008C4530008CB530008D253000872B61B4B59
:200EA00018601B4BD3F89420516803F58053CA68D3F8344122F40052CA60226822F00F02A0
:200EC0002260D3F83841062C4FF00F028BBF073CA240A2400F4C88BF0F4C6260012283F81C
:200EE000A0200E4AC3E92622CB6843F40053CB60013810F9013F03B9FEE7DBB20A681206C4
:200F0000FCD54B600B681B06FCD5F2E71057002068300020000002400004024000310020FF
:200F200008B5202383F31188054BD3E901210A4302D00448FFF7B2FF01229A6008BD00BFC1
:200F400010570020DF530008064A08B5536813B99168002902DC0448FFF7A0FF936083F3F2
:200F6000118808BD10570020E95300080FB41FB506AB53F8041B03930191FFF7D1FF039A0B
:200F800001990548FFF795FBFFF7DEFF05B05DF804EB04B0704700BF68300020F8B51B4E20
:200FA0001B4BF48AD6F811101B6864BA09BAA4B2621800279A4205460770416084600ED9F9
:200FC00022461448FFF7D2FF134B9A785F73052161F303029A7021221A7301232B700F4AD3
:200FE000B36812685443A3420ED00D48FFF7BEFF094B9A78052161F303029A7020221A733C
:2010000000225A7301232B702846F8BDD85300207C560020F55300083556002078560020D9
:201020001454000808B5202383F31188054B5A68002A01DD9A6812B10348FFF72FFF0122C0
:201040009A6008BD105700202254000808B5074B5A68002A02DD9A68002A02DC0448FFF7A6
:201060001DFF00229A6082F3118808BD105700202F54000810B50446FFF7D4FF236820468A
:201080001B689847BDE81040FFF7E0BF08B5202383F31188064A5368002B01DB916811B188
:2010A0000448FFF7FBFE0133536081F3118808BD105700203E54000808B5202181F3118810
:2010C000194A5368002B01DD906810B11748FFF7E5FE013B536080F3118881F31188144B91
:2010E0005B6813F400631BD0F1EE103AEFF309834FF0807243F84C2C0E4AD26B43F8082C59
:20110000A3F1680282F309880B4A1168D2688968926891428CBF094A094A43F8502C08BD98
:2011200083F31188FBE700BF105700204C54000800ED00E000EF00E0A45200208F01000886
:201140009A01000808B5EFF309830A69643B9A4202D90348FFF7A2FEBDE80840FFF700B87C
:201160005A5400082DE9F041404A8E6842F820104FF0A0454FEA4018721E0446431E08EBA5
:201180000500022A4FF00002C0F8102B98BFB604CA688CBF364E06F1805604F1100C4FF0BB
:2011A000010798BF06F5004607FA0CF722B342EA060042462A44C2F8000BD5F81C283A433B
:2011C000C5F81C284FF0A045A8440022C8F810290F694033A7B3DFF8A4C04969DCF80000DD
:2011E000BA084A4311040244B2F5A07FCCF800200DD92048FFF752FED0F8002B22F40042BC
:20120000C0F8002BD5F81C2822EA0702D8E79A0002F1A042014351602046FFF77DFC62016A
:2012200002F1A04247EA84533343C2F80039D5F81C280123A3401343C5F81C38BDE8F081D3
:201240009B0003F1A0430C4A5A602046FFF764FCD8F8003923F40043C8F80039D5F81C38D3
:201260000122A24023EA0203E6E700BFFC1C0020008000106954000800040002B452002012
:2012800008B5054B5A6812B99B68002B02DC0348FFF704FE08BD00BF10570020825400087C
:2012A00070B5094C0546FFF7EBFF2068E6680368756123605C600123E06031464361BDE80F
:2012C0007040FFF73FBF00BFA452002008B5054B5A68002A02DB9B68002B02DC0248FFF773
:2012E000DDFD08BD105700208D540008F8B50D46044616461F46FFF7E9FFCDB1C4E9036761
:20130000204F214E3A68736A012D08BF0225BA429BB210D1E918538189B20023C2E9004408
:201320002581C4E90022716333610223F360F8BD1648FFF7B3FD78891B1A15FA83F11FFACD
:2013400083FC89B26145138903D2C91A126889B204E08B4202D9084480B2706313898B42DE
:201360000CD35368636022601C605460218113895B1A13814FF6FF733B81D8E7A242E4D14C
:201380000348D6E7B85200200054014098540008A654000838B50446FFF798FFE36813B9B5
:2013A0001548FFF77BFD154B21681D680022A542E2600AD06068016022689A42506003D0BD
:2013C000138921890B44138138BD99420C4819604B6001D1C260F7E70A892C895B89224438
:2013E00092B20A81416AC91A89B28A4281BF2A899B189BB24363E7E7BA540008B8520020E2
:2014000000540140C3680BB1FFF7C4BF704700002DE9F041061D044630460D464FF47A776F
:20142000FFF7F0FF40F2E73000214FF47A720023E5FB0701FEF732FF234681B2024A30469F
:20144000BDE8F041FFF752BF75100008C369426C70B59D68AA4207D0446B5968866B343492
:2014600031B9456444F826500C33C361002012E0AA4211D201324264426C44F826209968D9
:201480009142F1D092B259680432B1FBF2F10131FFF7BEFF012070BDEED9013AEBE70000E7
:2014A00013B5818A01910446FFF7ACFF044A01992346204602B0BDE81040FFF717BF00BFF3
:2014C000A12D000830B587B00446FFF7D9FE4FF6FF739C420D4D06D10620FFF7E1FEEB68EF
:2014E000187E07B030BD0023CDE90433084AEB68214601A8FFF7FAFE0620FFF7D1FE049B75
:20150000002BECD001A8FFF745FFE8E7A4520020D92C00082DE9F3412B4B2C4F1D68884681
:2015200000FB05F1019155430B20FFF701FB0199FFF714FB0020FFF705FBFFF729FB3C6800
:201540007E69236823F040032360236843F4806323606368ADB243F001036360C6F80C80AA
:201560007560FFF7DDFC1A4B3046DB68FB61FFF7CDFB236843F0400323604FF48770FFF7DB
:20158000A1FF7A69136823F0010313600446FFF7DBFCFFF7F3FA3868026822F04002026009
:2015A000026822F480620260426822F001024260026842F040020260FEF7C2FFFFF7E8FA38
:2015C000204602B0BDE8F081785600202C300020A45200202DE9F047DFF8B8809A460368B6
:2015E00001261B68C8F800600D463E218146144698470746002847D1D9F8003048465B6890
:20160000DFF894909847FFF78BFC4FF47A7C394640F2E730EAFB0C014FF47A720023FEF739
:201620003DFED9F82460DFF874A0B6B287B24CB90023C8F80030FFF787FC201E18BF0120C7
:20164000BDE8F087D9F824309BB29A1B92B29742EED30E4AF31AD1680D4A3B4498B211603A
:20166000FFF730FF0228E3D0DAF80030A34288BFCAF800402846DAE9002103F003FDDAF821
:201680000030E41A1D44D2E73046D9E7A4520020885600200C5700200054014080560020AA
:2016A00038B504464FF47A75FFF73AFC40F2E730002100234FF47A72E4FB0501FEF7EEFD14
:2016C00080B2FFF7FFFEBDE83840FFF73DBC000070B501200F4DFFF7E3FF05206C6AFFF76E
:2016E00027FAFFF72FFAA4B240F2E6366B6A1B1B9BB2B34201D9022008E00120FFF7D0FFEF
:201700000020FFF71FFA10F00100EFD1FFF736FA70BD00BF005401402DE9F047484F3C68AA
:2017200005468846164600FB04FA9146B9F1000F0ED13B68DFF810A1424F06FB04F25D4379
:2017400022F0FF042C442E46A6421BD1002012E00620FFF7EDF9FFF7F5F9FFF70FFA202085
:20176000FFF7E6F95146FFF7F9F9FFF707FAFFF7AFFF10B10120BDE8F0873B6809F1FF39A7
:201780009A44D3E70620FFF7D3F9FFF7DBF93220FFF7F4F9FFF7CCF9FFF7D4F9C6F307404C
:2017A000FFF7D0F9C6F30720FFF7CCF9F0B2FFF7C9F9D7F80C903868A8EB05033344C9F897
:2017C0000C304FF48073C9F8043042F29203C9F80030FEF7B5FE0123C0F88030436843F0D6
:2017E00002034360FFF79CFBDAF80C30FB614846FFF78CFA4FF48770FFF764FEFA681368D1
:2018000023F0010313608146FFF79EFB3868FEF797FEFFF7BDF9FFF7B1F9436823F00203AF
:201820004360FEF78DFE0023C0F88030B9F1000FA0D1FFF74DFF00289CD106F5807683E79E
:20184000785600202C300020A4520020F8B5C37804460BB90020F8BD056B00F1340701227E
:2018600039462846FFF758FF88B9636AE269E070EB1A9342EED2A678012EEBD9E3691D442D
:20188000012239462846FFF747FF013EF4E70120E1E738B5036B8B4205460C460FD0FFF75F
:2018A000D5FF58B92046012205F13401FFF732FE00281CBF4FF0FF3401202C6338BD00202F
:2018C000FCE70000002310B5C3704FF0FF3303630446FFF7DEFF034618BBB4F832124AF6CA
:2018E000552291421FD194F83420E92A05D0626B0F4902F0FF128A4217D104F16A00FEF7B6
:20190000C1FF0C4A20F07F40904208D004F18600FEF7B8FF084BC01A18BF0120430018464B
:2019200010BD0423FBE70323F9E70223F7E700BFEB00900046415400464154332DE9FF414F
:2019400000260E600D46FFF70DF80028C0F2FD80814B53F82040002C00F0F9802C60257819
:20196000002D40F0F680607029462046FFF7AAFF022840F0CD806E4604F5FD7304F23A213B
:20198000324613F8040C10B11846FEF77BFF10338B4242F8040BF4D14FF0000856F8047BF4
:2019A000002F00F0AA8039462046FFF78BFF012800F2A480B4F83F30B3F5805F40F0AC803C
:2019C000B4F84A1021B904F15800FEF75BFF014694F84420E161531E012BA27000F29C8055
:2019E00094F841606681002E00F09680731E334240F09280B4F84580A4F8088018F07F0F2C
:201A000040F08A80B4F8470018B904F15400FEF739FFB4F84230002B7ED001FB02FE03EBD1
:201A2000D81CF444604577D3A0EB0C00B042B0FBF6F271D34FF6F570824274D840F6F576D0
:201A4000B2428CBF0226012602323B440CEB0700032EA26127626362E06266D1B4F85E3012
:201A600058EA030358D104F16000FEF70BFF920002F6FF72B1EB123FA0624DD34FF0FF3326
:201A8000C4E90433032E4FF0800323712BD1B4F86430012B27D1791C2046FFF7FAFE10BBC7
:201AA000B4F8322220714AF655239A421BD104F13400FEF7E7FE294B984214D104F5067070
:201AC000FEF7E0FE03F1FF5303F500532033984209D104F50770FEF7D5FE606104F5087031
:201AE000FEF7D0FE20611E4A2670138801339BB21380E3801B4BE3600FE0032008F10108D5
:201B0000B8F1040F7FF44AAF042805D1012504E00428FBD0012804D90D25284604B0BDE89B
:201B2000F0812F4646E703268EE7B8F1000FF3D0022E03EB0E004FEA42031BBF9B1802F050
:201B400001021A4602EB530292E70B25E5E70C25E3E73546E1E700BF881D00205252614163
:201B6000582E00209C2E00200129F8B505460E464FD9836999424CD20378022B29D0032B83
:201B800035D0012B45D101EB5104416A01EB1431FFF77FFE10B14FF0FF30F8BD671C696A34
:201BA000C4F30B042C4401EB1731284694F83440FFF76FFE0028EED1C7F30B072F4497F835
:201BC000343044EA0320F3074CBF0009C0F30B00E3E7416A01EBD621FFF75BFE0028DAD10A
:201BE00040F6FE7303EA46032B44988ED5E7416A01EB9621FFF74DFE0028CCD140F6FC70C1
:201C0000343500EA86002844FEF73CFE20F07040C3E70120C1E7B1F5001FF8B505680646F2
:201C20000C4601D30220F8BDCA06FBD182680161BAB92B78022B01D9AB6A9BB92B89B3EBE7
:201C4000541FEFD9A86AC6E905200028EAD000EB14303435C4F30B042544B061F561002033
:201C6000E1E713466F891A463F03BC42114603D22846FEF709FEE6E73068FFF775FF431CE7
:201C8000024606D00128CDD9AB698342CAD9E41BEBE70120C7E700002DE9F04F89B0036842
:201CA000019304468B4611F9013B2F2BFAD05C2BF8D00021A1609BF800301F2B00F2A88172
:201CC0008023204684F82B3009B0BDE8F04FFFF7A2BF0130B1E181280FD0002FDBB2BEBFAC
:201CE000A349803B31F813303BB17F2B07D8A14F17F9011B19B18B42FAD106204DE125F86D
:201D0000023F01468DE132F81100202802D02E2840F09F81013999E10130ABE1B74204D292
:201D20008C4556D10B2E4ED101E00B2E46D143F003030B2694F82010E52904BF052184F889
:201D40002010082E04BF9200D2B202F00C010C2903D002F00300032801D143F00203980774
:201D600009D402F00302012A08BF43F01003042908BF43F0080384F82B300021236803930C
:201D80002046FFF748FF002840F001814FF0FF334FF0FF0AE3625546A1690398FFF779FD1C
:201DA000002840F0F480E6693378002B42D194F82B30590700F18A810520EEE08C4502D046
:201DC00043F00303B6D89200D2B28C460B2608277AE17F281AD9DFF898914FF0000E39F881
:201DE00002AB50451FFA8EF505D00EF1010EBEF1800FF4D17546803515F0FF0543F002036E
:201E00000DD05D48054415F8800C40B1DFF870E11EF9015B002D00F05B81A842F8D143F0F3
:201E200003035F20E519013785F820004CE142F00202F7E7F17AE52B01F03F02A27103D076
:201E4000090705D50F2A05D04FF0FF33E36264E00F2A69D194F82B20520641D45F065AD545
:201E600003F0BF05236996F80DA0E362737B534553D1738B002B50D1039BDFF80881DB686A
:201E80000493337803F03F070D22013F57430120424418F8011B36F8019000283FD07F2F47
:201EA00007933AD84846FEF7DBFC049B0590791C33F817000691FEF7D3FC059B83422CD154
:201EC00006992E4A079B48460F464245E1D15E0604D518B1049B33F81730F3B9013DEDB28D
:201EE0002369266803F12008A369002B3FF45FAFB8F5001FBFF45BAFC8F30B07002F69D175
:201F000061690133A36100294AD13389B3EB581F60D8A1614BE7AB42A8D0FF25E0E74FF6A9
:201F2000FF718945D1D0F8E775B906F10B033246E90141EA550512F8011B51FA85F5934209
:201F4000EDB2F5D1AA454BD094F82B0010F001007FF47AAF029A06F10B0116F8013B12F8CB
:201F6000015BB142A3EB05030ED0002BF5D06BE70C580008DD5400084B570008FC570008B2
:201F8000E6540008EF570008002B7FF45DAF94F82B3058B304283FF40CAF09B0BDE8F08F1E
:201FA000B6F80A9009F1FF3919EA183912D13046FFF7DAFD0128014614D9481C14D0B3696C
:201FC000994202D3C4F81890F1E661613046FEF75BFCA06134363E44C4F81080E661DBE651
:201FE0000020D4E70220D2E70120D0E75A07D4D4A379DB067FF5E0AE019B03F134012369FA
:020000040800F2
:20200000C3F30B031944019B1878FEF777FEA0602368D3F80C80A8F102020BF1FF361546FE
:20202000002116F9017FBBB21F2B01F101000CD92F2B02D05C2B7FF44EAE1BF900502F2D7F
:202040003FF447AE5C2D3FF444AE834400297FF45AAE002028F8110000293FF44EAE04F1A1
:202060002000029004F12B05202600F8016BA842FBD1002038F81050202D3FF44DAE2E2DA3
:202080003FF44AAE1F2B8CBF002301239B0008B143F0030332F811502E2D01D00139F9D1F1
:2020A000002708263A4600F1010C38F8100000283FF440AE202805D02E287FF42FAE8C4530
:2020C0003FF430AE43F003036046ECE7042064E7A0F14105192D7FF6AAAEA0F16105192DA7
:2020E0009EBF203842F0010280B29BE62DE9F84FFF27D0F8008005463C460426A96919B99D
:20210000002E00F0898008E04046FFF7C2FB064618B9EB691A781AB904260023AB617CE0EC
:20212000D97AE52A01F03F01A9715FD02E2A5DD021F02000082859D00F295ED1500653D5CF
:2021400002F0BF042A695F7BEA625A7BBA424DD1598B00294AD11A78D8F80C00DFF804E1D0
:2021600002F03F02013A4FF00D0C0CFB02F24FF0010A1EF801CB33F80CC0BAF1000F37D0BA
:202180007F2A33D820F812C0E246013201310D29EFD11B78590604D57F2A27D8002320F870
:2021A0001230013CE4B22B69AA69D5F800A003F12009002AB0D0B9F5001FADD2C9F30B0B11
:2021C000BBF1000F08D169690132AA6161BBBAF80820B2EB591F9FD90AF1340A0AEB0B039C
:2021E000C5F81090EB6189E7A242AED0FF24DAE74FF6FF79CC45C9D0F8E78CB903F10B01F5
:2022000013F8010BE20142EA540250FA82F29942D4B2F5D1A74203D100263046BDE8F88FD8
:202220004FF0FF33EB62F8E7BAF80A20013A12EA1932D1D15046FFF797FC012801460CD98D
:20224000431C0CD0DAF818209042BFF465AF68615046FEF719FBA861BEE702265DE70126F7
:202260005BE700BFEF57000838B50446FFF7EEFA0546002848D12378032B45D12379012BC7
:2022800042D104F1340104F5815214320B4603F8015B9A42FBD1552384F83232AA2384F8FE
:2022A0003332522384F8343084F83530612384F8363084F81B32636984F81C32412284F8DF
:2022C000372084F81A221A0A84F81D221A0C1B0E722084F81F32236984F8180284F81902A9
:2022E000206A84F81E221A0A84F8203284F8212201301A0C1B0E84F8222284F82332206353
:202300000122FFF709FA2571284638BD37B52A4C01A92046FEF740FB00284AD1237C5A06C4
:2023200041D51B060BD5E069012204F12801FFF7F3F900283DD1237C03F07F032374019D9B
:20234000216A2846FFF7A5FA002832D1636A2168DA7A42F02002DA72A2689A76C2F3072084
:20236000D8760978032901BF120C1A75120A5A75E2681A77110A5977110C9977120E2121B5
:20238000DA771976002256219A75DA7559769A74DA740123EB702846FFF766FF237C23F041
:2023A0004003237428B9044801A9FEF7F5FA00B9206003B030BD00BFA00C002010B5044615
:2023C000FEF784FF14B90B48FEF768FD63690BB90948F9E700236361A268084B1B68996882
:2023E0009142FBD85A6823606260204614605C6010BD00BFED54000822550008A452002030
:2024000070B504460E461546FEF760FF0C4A116821FA04F313F0010002D00A48FEF73EFD11
:202420000123A3400B431360074A210102EB041355509E6058602046BDE87040FDF75EBF36
:2024400088420020F95400085C2E0020144B07B5D3F8081151B1D3F804210132042A28BF5A
:2024600000220139C3F80421C3F808110D4A1268032A12D1D3E942231A430ED06846FEF76C
:2024800021FBFEF7CFFDDDE900210120FFF7B8FF03B05DF804EBFEF7D9BD03B05DF804FB21
:2024A000C8520020F85300207FB5204B1B68032B3AD11F4BD3E942040328C9B201D93F2CC5
:2024C00030D8D3F80021651C03EB82163F2D3155C3F80C514FF000040AD90132042A28BF89
:2024E00022460130C3F80C41C3F80021C3F80801D3F808319BB10F4B1B689B070FD402A83F
:20250000FEF7E0FA0399029A01910092FEF708FDDDE900210120FFF773FFFEF715FD2046B9
:2025200004B070BD0D24E3E71424F8E7F8530020C8520020884200201FB5114B1B68032B38
:202540001BD1104B1B689B0717D40F4AD2E94232134312D002A8FEF7B5FA0399029A01914C
:202560000092FEF7DDFCDDE900210120FFF748FF05B05DF804EBFEF7E7BC05B05DF804FB1C
:20258000F853002088420020C85200202DE9F84F1D462D4B1B68C3F3400A9B070E4617469E
:2025A00050D4DFF8B080DFF8B090DFF8B0B0FEF7B7FC01234FF47A7C514640F2E730C8F8FD
:2025C0000030E5FB0C014FF47A720023FDF766FED9F82440DFF888A0A4B285B2D9F824304E
:2025E0009BB21A1B92B2954221D3E31A2B44DBF80C20CAF8002098B2FEF764FF022816D04B
:20260000124AD2E900231A449342E7D013F8011B3E29F9D10E4B1B680024032BC8F8004010
:202620000ED13A4631460120FFF7EAFE03E00023C8F800300224FEF787FC2046BDE8F88F9F
:202640001424F8E70424F8E78842002080560020F85300200C57002000540140A4520020E3
:202660008856002013B504460191FEF759FC094B019AD968084B032019602146FFF7C0FE34
:202680004FF6FF70FEF71EFF02B0BDE81040FEF75BBC00BFA4520020C452002070B5044647
:2026A0000E461546FEF712FE094A01231168A3400B431360074A210102EB04135550002294
:2026C0009E6020465A60BDE87040FDF769BE00BF84420020EC2F0020F7B5470107F1A043BD
:2026E0000446D3F80859C3F80859E9071ED54FF0A043D3F81038DA0718D556494FEA001C6E
:2027000001EB001351F80C60DA68964229D29868921B304441F80C20002298605A60FEF7A1
:2027200081FC2046FDF7EAFDFEF790FC2B0640F18E804FF0A0430126D3F83438A64033420F
:2027400000F085804349DFF82CE12301250305F1A04551F803C005F58055194407F1A047D6
:202760006AE03D4901220B68824023EA02030B60002844D1394E3368062B3ED8DFE803F054
:202780002A041A242A2A2D00354B1A68354BDB8893420FD912F03F020CD10192FEF742FCC4
:2027A000019A11461046FFF72BFEFEF74FFC02233360BBE704233360FEF734FC00221146C0
:2027C0001046FFF76BFFAFE7274B1B6803B198470023EDE72548FEF761FB4FF0A043D3F883
:2027E000002942F40012C3F80029D3F8002B42F40012C3F8002B0623DAE71D48EBE7FDF74B
:2028000073FD93E75EF824000069ACEB0203834228BF0346D7F8180980B2B3EB800F16D81D
:20282000886810441A444A60021F184452F8043F2B60831A042BF9D84A689445E2D84FF096
:20284000A042D2F8343823EA0603C2F8343803B0F0BD00BF5C2E0020884200205C5600209F
:202860005456002070560020585600200E5500081B550008FC1C00202DE9FF48C54CDFF87A
:2028800054A3FEF74DFBC44ADAF80C3013604FF6FF70FEF717FE0546FEF756FB002D7AD1AE
:2028A000E17B352909D8192915D8032900F0B380122900F09A8000294CD0B848FEF756FB2F
:2028C000B74B9A78052161F303029A7020221A7300225A73EFE0A1F11A031B2BEDD801A271
:2028E00052F823F0D92B0008BF290008BB280008472A0008E72B0008BB280008BB2800082B
:20290000BB280008BB280008732A0008BB280008252A0008BB280008BB2800083D2B0008B4
:20292000BB2800089F2A0008BB280008BB280008BB280008BB280008E72B0008BB2800082A
:20294000BB280008BB280008BB280008BB280008E72B0008934B217255221A704220532268
:2029600098705A70DA7062685A608F4A61721078A1728B4AE172197259729972D972A0B14B
:2029800019739378117361F303039370517385480D21FFF767FEFEF7C3FA1F222146032028
:2029A000FFF77CFEFEF7D0FA69E7022119739378507361F3030393703A231373E7E7E37CAE
:2029C00003F00303022B0BD1774B00221A70744B9A786FF303029A7000221A735A7336E0B3
:2029E000032BF4D1704B0122F0E7668A237C76BADB07B6B209D5072E28BF07266B483146D5
:202A0000FFF730FEA3689B1B1BE0242E28BF242667483146F4E7E67C6148122E28BF1226E8
:202A20003146EDE7634B1B68013B1BBA62480360624B1B681BBA08214360FFF713FEA36819
:202A4000083BA360C3E75E48FEF790FA0725554B552119704220532159709870D9706168DD
:202A600059600022002D40F0C4801D73A2689A608DE754480823C3704E4B1B681BBA436044
:202A8000022303724D4B1B68C3721A0C42721A0A82720C21FFF7E6FDA3680C3BD1E794F9BD
:202AA0000C30002B09DA3E4B9A78052161F303029A7020221A730125C9E703A8FEF76EFAFB
:202AC0009DF80C20DDE90479002AF4D1DFF8ECB0B9F1000F3FF47BAFDBF8006009FB06F845
:202AE000B8F5805F28BF4FF48058FEF719FAB8FBF6F6294BDAF80C2033491A60032042468E
:202B0000FFF7CCFD4FF6FF70FEF7DCFC0190FEF71BFA01982C4918B12C48FEF727FACAE7C8
:202B200032463846FEF7F8FD0028C4D1A268A2EB0802A260A9EB06093744C9E703A8FEF7E7
:202B40002DFA9DF80C30DDE90498002BB3D1DFF878B04FF48057B8F1000F3FF438AF174B1F
:202B60001E68B7FBF6F2424528BF42465946484692465643FEF7CEFC50B931465846FFF7CE
:202B800071FDA168891BA160A8EB0A08D144E2E70F48C2E7D8530020C45200205655000862
:202BA00035560020285600200808002004580008CB5700087C5600208C4200207856002040
:202BC0003055000894420020A0420020435500084D550008A4520020E67C0948082E28BF40
:202BE000082631460CE7002323726372A372E372EDE6022119731A725A729A72DA72C6E668
:202C0000FC57000810B50446FEF760FB236883B159690022226061B11A765A619968054A28
:202C2000126890688842FBD251681A6059600B60536010BDA452002008B5FEF7F3F90648B2
:202C4000036823B15B69062B01D1FFF7DBFFBDE80840FEF7FBB900BFC452002008B5FEF761
:202C6000E1F90648036823B15B69062B01D1FFF7C9FFBDE80840FEF7E9B900BFC4520020EF
:202C800010B50446FEF7CEF904F11C00FFF7BAFFBDE81040FEF7DAB910B50446FEF716FB17
:202CA00014B90A48FEF7FAF863690BB90848F9E700236361A268074B1B6899689142FBD2E7
:202CC0005A682360626014605C6010BDED54000822550008A452002010B50446FEF7A2F973
:202CE0006369052B07D8DFE803F00B060603130FA36900221A60022323762046FFF7CCFF76
:202D0000BDE81040FEF7A2B9A269936801339360D4E9003213605A60EDE7000010B5044642
:202D2000FEF7D4FAA3682068002B0EDBA0420ED10133002BA3600DDC036823605C60002350
:202D4000BDE810400376FFF7A7BFA042F0D10248FEF7A4F810BD00BF6E5500080E4B5A6FB2
:202D6000002A10B516DD013A5A67DA6D046802F10801D96514604068506003F1580291429B
:202D800038BFDA6D054828BF1A46DA65FFF7C6FF002010BD0220FCE7101D0020701D00207B
:202DA00013B50446FEF73EF9A37D8DF80530002268460092FFF7D2FFA369012B02D1204661
:202DC000FEF76EFB02B0BDE81040FEF73FB900002DE9FF47430103F1A0430646D3F8087BF0
:202DE000C3F8087BA8BB380733D54FF0A043D3F8143819072DD5DFF8B482D8F800300BB1C7
:202E0000C8F80060A74BA84AD3E9004504F06009B9F1200F1460556040F00482AAB2012A11
:202E2000C4F3072343D1212B3DD81F2B00F2F7814FF0A043D3F8002942F40012C3F8002946
:202E4000D3F8002B42F40012C3F8002B0623C8F80030F80740F1C8814FF0A043D3F8143883
:202E6000D90740F1C181002E40F0C1818F4C2068031F012B00F2B8818D4B59688A0640F02A
:202E80009B811D68DA68954280F09681521BC3E90026FEF7C7F83046FDF782FA04B0BDE8BF
:202EA000F047FEF7D3B8222BC2D1002312E022060CD5FE2BBCD12B0C012BB9D17D4A0021D2
:202EC00011707D490A607D4A1360CCE1FF2BAFD12B0CADD11A46F4E7B3F5817F00F029817E
:202EE00040F202318B42A3D114F47F0FA0D12B07E9B200F0D080137903F00F035B0111F02A
:202F0000800F03F1A04300F03281D3F8002942F4001222E1B3F5006F60D00FD8A3F5C06380
:202F2000012B85D8230E022B00F07681032B48D0012B7FF47DAF624B12224BE0B3F5106F7F
:202F400053D040F60242934285E15B4A02A911605A4A022111605B4A136017E04FF0A04270
:202F6000C4F30741D2F8003823F4FE6343EA0113C2F80038544B02221A604F4BC3F8009083
:202F80004E4BC3F800904F4BC3F800904B4B19682A0CB1EB154F88BF1A601A68019224061B
:202FA00040F1F780002A00F0E7800123C8F80030FEF738F8404B019A19680020FFF720FAD8
:202FC000E4E0C4F30743032B3FF632AF3F4A52F823301A7838490B60384B43E1364B3C4A96
:202FE0001A60364B01221A60CDE7DFF8DCA0DAF80030032B18D1FEF715F8364A136803F029
:2030000001031360344A136803F001031360334B80221A60FDF706FAFEF718F82C4B83F851
:2030200000900223CAF8003014F47F0FC4F3074231D0274B4FF003091A70CAF80090FDF7C5
:20304000F1FF27490120FEF78DF826490220FEF789F8254A254813682549834218BF0146C6
:20306000116001204022FFF719FB22494846FEF779F821491F224846FFF710FB1F4B01222C
:203080001A7000204FF48063CDE9020302A8FFF765FEFDF7DBFF084A00231360074A136028
:2030A00059E700BF68560020705600205C560020EC2F0020A052002060560020545600208E
:2030C000A659000858560020F8530020D0590008804200208842002084420020B4520020A7
:2030E00010590008B85900089C0800208C560020CC560020145A0008D8530020080800204D
:20310000137903F00F035B01290603F1A0430DD503F510631B681A047FF58AAE13F4001FFC
:2031200018BF534A534B08BF534A98E003F53063F0E714F47F0F7FF47BAE2807E9B2AAD0C9
:20314000137903F00F035B0111F0800F03F1A04306D0D3F8002922F40012C3F800299AE7C4
:20316000D3F8002B22F40012C3F8002B93E7D3F8002B42F40012F7E70423C8F80030FDF7AA
:2031800051FF019A11460020FFF788FAFDF75EFF5FE642B10523C8F80030FDF743FF354BFE
:2031A000019A1968EFE70323C8F80030FDF73AFF019A1146104601E7304A1368052823F075
:2031C0000103136009D103232360FDF72BFF002211461046FFF714F960E629B9284B1B68E7
:2031E00003B198470023236004B0BDE8F087234901220B68B24023EA02030B60214B03EBFB
:2032000006135868204B53F826301B68002BEBD004B0BDE8F04718471C4B6222DAE61C4A60
:2032200007234EE6B9F1000F7FF402AE137804F47F4103F01F030B43B3F5A06F3FF48EAE88
:203240003FF668AE022B3FF45BAF3FF645AE002B3FF47BAE012B7FF4EBAD064B0D4A1A60B1
:203260000D4B02221A60064B00221A608EE600BF3E590008605600203C5900088442002040
:2032800058560020EC2F0020FC1C002044590008000800200C5900085456002013B50446D7
:2032A000FDF7C0FE104B114A18681149C2E90040104A904218BF1146402201201960FFF795
:2032C000EDF90D4B1B685BB9009368464FF4A0630193FFF743FD02B0BDE81040FDF7B6BEB9
:2032E0000648FFF78FFCF6E79C08002080560020CC5600208C5600200C57002088560020A3
:2033000038B50369044613B10430FEF77BF84FF0FF35E3691A68042AFDD8DFE802F0030AA0
:2033200014232E00236820469B6898470128F0D138BD59680C33E3610029EAD02046BDE844
:203340003840FEF765B85A68A3690C2101FB0233E36194F829301BB104F12400FFF7FEFCB9
:203360000121EBE794F829301BB104F12400FFF7F5FC0023C4E90633DAE7226A013204BF5C
:203380005A682262226A1AB90C332562E361C0E7A369E361013A2262BBE7000007B50190D9
:2033A000FDF7BEFD0B484FF0FF3303620A4BC0E90633FFF7A5FFFDF7C7FD01990748FDF7CF
:2033C000D5FDFDF7ADFD0720FEF77CF8FDF7BCFDFEE700BFA02F00202C5A00084757000879
:2033E00070B5124D0446FDF74BFF2A68EE68AA42B36805D09268934202D20D48FDF74EFDC6
:2034000000222276A2689A4204D82046BDE87040FFF742BC3046FEF7D1FF01230146EC608F
:2034200063612046BDE87040FDF78CBEA45200208555000808B5054BD3E901210A4302D0CD
:203440000348FDF72BFD01229A6008BD10570020DF53000808B5054B5A6812B9996800299E
:2034600002DC0348FDF71AFD9A6008BD10570020E9530008084B10B51C68D86822681A60AE
:203480005360DC6001236361FEF798FF01462046BDE81040FDF756BEA452002083B59D48EC
:2034A0009D4EFDF763FD9D4B4AF6AA221A609C4B1A78702161F306021A700A22DA71FDF704
:2034C0002FFD984800F5D273C0F81432964BC0F8E431964BC0F804328023C0F810324FF04F
:2034E000A0440223C0F81C32C0F8180200F50270FFF776FFFDF728FDD4F8043843F00203C0
:20350000C4F804386320FEF7CBF8FDF709FD316800294FD1864B5A6942F480525A619A6A41
:2035200042F480529A629A6A22F480529A629B6A804BE02283F843230822C3F888219A6064
:203540007D4BE3600323C4F80038C4F8001E236943F0010323610C20FCF7BCFE256915F0B9
:203560000105FBD11220FCF7B5FE4FF43413A363A36B43F48013A3631420FCF7ABFED4F897
:20358000043843F00203C4F804380920FCF7A2FEA560FCF747FF694BC4F81058C4F81458C5
:2035A000C4F81C58A3614FF0FF336361A36843F00103A36001233360FDF7C6FC4FF0A042CF
:2035C0005F4CD2F8043823F00203C2F80438FDF7A7FC5C48FDF764FFFDF7B6FC04F160059A
:2035E00000238DF80530FDF79BFCFDF749FEA26E236E002A21DBAB4221D1013A524EA2669F
:20360000002AF3681EDBA26D504802F10803834228BF23465268A36514300192FFF77EFB6A
:20362000FDF72EFEFDF752FE3268F36892689B689A4216D9FFF71EFF13E0AB42DDD144483C
:20364000FDF72CFC626E9D611D605A6013606366FDF716FE0520FDF723FEF3681B7E002BAC
:20366000D1D0FDF771FC9DF80530042B49D0052B16D1384F384EA7F104083368002BAFD029
:20368000013B3360736838465A1C93F900107260FCF7E6FE0128F0D14046FDF7C9FBECE74C
:2036A000012B9DD11D4B2D4F4AF6AA221A602C4AD36883F48063D360A7F58056D7F83C311A
:2036C000D7F8B0205B689BB2C3F180039B1A48BF8033002B84D0531C41F2B40132447F2B9F
:2036E000515CC7F8B03002DD0023C7F8B0301D4849B2FCF7B5FE0128E0D13046FDF798FB00
:20370000DCE71948FDF732FC184A136843F02003136065E79E550008F8530020003000409B
:20372000355600200054002079280008790100080010024000E100E040140040003C30C06C
:20374000101D00204C300020A4520020681D00206E550008B041002080560020684000202B
:20376000000801406C300020AD55000800C800402D4C08B501464AF6AA252C48FDF7F6FB4D
:203780002560FDF7CDFB0720FDF79CFEFDF7DCFB274B1B68013304D12648FDF7E7FBFFF730
:2037A0007DFE256072B6244B1A6842F001021A60224A1968890701D4013AFAD15A6822F015
:2037C00003025A601D4A596811F00C0F01D0013AF9D11A6892B21A60D3F8C02022F480325D
:2037E000C3F8C0204FF0FF31002299629A62986A19611A611869D960DA60D868C3F8E010D0
:20380000C3F8E020D3F8E01014215961DA619A61C3F8E4200A4A064B93601A6882F308882F
:203820005B689847FEE700BF003000400A57000800600008B8550008001002409F86010074
:2038400000ED00E0064A536B23F001035363EFF30983683383F30988002383F311887047C7
:2038600000EF00E02DE9F843234FFDF70FFC3B699B073CD5214C4FF00008C7F81080FDF769
:20388000D1FB25687B6A628929899BB29E1AB6B2B1421BD82B896289D5F80C901A44F31A87
:2038A0009EB22B686281A3425C602360C5F80C8008BFC7F80C80FDF7C9FB2869C847FDF777
:2038C000B1FB25682B89B342E4D9DBE72168A1420BD0088963810244D21A0A812A89022A2F
:2038E0002CBF9B1802339BB27B63FDF7AFFBBDE8F843FDF7E1BB00BF00540140B85200203E
:2039000008B502490248FDF775FAFEE7C7550008475700082DE9F0474FF0A045FDF7B6FB2D
:203920006C69AB691C4014F480566C6160D0B24B01221A60B14B00211960B14B1960B14BC6
:203940001970B14BC3E90011D960B04B0846C3E90011D960FDF7E0F84FF00113C5F8341885
:203960004FF00060C5F81C384FF0FF324B0103F1A04301310429C3F80009C3F8000BC3F860
:203980000829C3F8082BF1D180236B6210232B614FF0A0410C6914F01004FBD11220FCF779
:2039A00099FCD1F8003823F4FE63C1F800388B6943F4402343F010038B610923C1F810381B
:2039C000C1F81438924B1C604FF0C043C1F8103B904BC1F8003BC1F81049C1F800398E4B97
:2039E00090221A608D4B8B62BDE8F047FDF764BB002C16DAD5F8003E9F0718BFD5F8003E38
:203A00004FF0A0421CBF23F00303C5F8003ED2F8043823F00103C2F80438814B1A68764B74
:203A20001A60200505D5744B7D4A1968116004221A60A1040ED54FF0A043D3F8082812F04E
:203A4000060FDA6822F470520CBF42F4105242F4A052DA60E2022CD50125DFF8A0812F46FA
:203A60006B0103F1A043D3F8002902F44022B2F5802F1BD1D3F80029002A17DAD3F8002972
:203A800042F09042C3F80029D3F80029002AFBDB2846FDF741F8D8F8003007FA05F223EAAA
:203AA00002032846C8F80030FCF71EFC0135042DD6D1A30227D50125544FDFF84481DFF8AB
:203AC0006CA1A9466B0103F1A043D3F8002B02F44022B2F5802F11D1D3F8003B002B0DDA09
:203AE000D8F80030786909FA05F223EA0203C8F800305AF825301B6803B198470135042DC5
:203B000007F11007DED1E7060CD54FF0A0431B6A03F4F012B2F5802FC3F30A1047D0B2F595
:203B2000402F40D04FF0A0432103D3F8185813D5EA0302D50020FFF74BF9AB0302D50120D9
:203B4000FFF746F96F0302D50220FFF741F92E0302D50320FFF73CF964037FF545AFE80781
:203B600002D50020FEF7B8FDA90702D50120FEF7B3FD6A0702D50220FEF7AEFD2B077FF5A7
:203B800033AF0320FEF7A8FD2EE7950708BF0E68072A98BF03F8016B02F1010298BF360A1C
:203BA0009042F2D1BEE71F4B1F490022F8E7174ADFF874E003F00F034FEA031C02EB03130C
:203BC000D3E9011352F80C500B446F1A0025A84203D1624401445160A4E715F0030F08BFAF
:203BE000DEF80060AF4288BF03F8016B05F1010588BF360AEBE700BFF85300208842002087
:203C000084420020804200205C2E0020EC2F00205C56002040800010B4520020800010009F
:203C2000404200206856002000100050FC1C002008B5FDF72BFA074B012219685A60064A96
:203C400013681BB1506801F00F019847BDE80840FDF732BA000002400C08002008B5FDF791
:203C600015FA074B102219685A60064AD3681BB11069C1F303119847BDE80840FDF71CBA48
:203C8000000002400C08002008B5FDF7FFF9084B4FF4807219685A60064A93691BB1D069F1
:203CA000C1F303219847BDE80840FDF705BA00BF000002400C08002008B5FDF7E7F9084B94
:203CC0004FF4805219685A60064A536A1BB1906AC1F303319847BDE80840FDF7EDB900BFB4
:203CE000000002400C08002008B5FDF7CFF9084B4FF4803219685A60064A136B1BB1506BFD
:203D0000C1F303419847BDE80840FDF7D5B900BF000002400C08002008B5FDF7B7F9084B74
:203D20004FF4801219685A60064AD36B1BB1106CC1F303519847BDE80840FDF7BDB900BFA0
:203D4000000002400C08002008B5FDF79FF9084B4FF0807219685A60064A936C1BB1D06C8E
:203D6000C1F303619847BDE80840FDF7A5B900BF000002400C08002008B5FDF787F9074B55
:203D8000012219685A60064A536D1BB1906D01F00F019847BDE80840FDF78EB9000402409E
:203DA0000C08002008B5FDF771F9074B102219685A60064A136E1BB1506EC1F303119847F3
:203DC000BDE80840FDF778B9000402400C08002008B5FDF75BF9084B4FF4807219685A608F
:203DE000064AD36E1BB1106FC1F303219847BDE80840FDF761B900BF000402400C080020FC
:203E000008B5FDF743F9084B4FF4805219685A60064A936F1BB1D06FC1F303319847BDE849
:203E20000840FDF749B900BF000402400C08002008B5FDF72BF9094B4FF4803219685A60B2
:203E4000074AD2F8843023B1D2F88800C1F303419847BDE80840FDF72FB900BF00040240C8
:203E60000C0800202DE980481D4C636A43F00103A3B06362636A9E07FCD51A4B45F2555225
:203E80001A6007225A6040F2A5129A604AF6AA221A604CF6CC421A60134A136843F4C2635E
:203EA0001360E36943F08053E361136823F0070343F001031360D4F8C03043F48033C4F855
:203EC000C0300A4BD4F8C020950300F1A387013BF8D16368C3F38103012B0BD1044B2FE0CE
:203EE0000010024000300040002002409F860100001BB700022B40F0EE816368D90340F102
:203F0000D881E36A13F4803FE36A40F0B581BC4A13F0804FBB4B08BF1346E26A02F00F0235
:203F20000132B3FBF2F361686268520E02F01002C1F383410A430C2A00F2BD8102325343CF
:203F4000B14A0DF1540C02F110051646674610685168E646AEE803000832AA42F446F6D1DA
:203F6000626830696968A94DA94EDFF800C3C2F3031288326A4412F8342CD340A54A136075
:203F800008AA03C26268A448C2F3022288326A4412F8682C23FA02F22A606168C1F3C2211A
:203FA0008831694411F8681CCB403360A16941F00101A161416821F0E06141F000714160F3
:203FC0009649D1F89400D0E90019E14540F08581B3FBF1F3A26942F48042A261C9F80830E6
:203FE000DFF838A2818980680AF5805B03230022FCF74CFD8A48FCF7A9FADBF8343109F126
:020000040800F2
:2040000004029A6092221A60DAF8943001934FF00109B3F8148018698BF8A090FCF700FD9C
:2040200041460822FCF774FA019BC2685B6809FA08F11143C16004330BF59E700193FCF7A8
:2040400085FADBF83C01019B83600BF1B403C36080224FF4855303604260FCF757FEDAF8A0
:2040600094305B680C21D9604FF0000AC021C3F810A05961D96841F40051D96069496A4B9D
:204080004FF6FF7BC1E90011C1F808B06749C3F808A0D960C3E90033654B8A60C1E9043989
:2040A000644B654AD96821F4E0610904090C0A43DA60D3F8FC20614942F08072C3F8FC20D6
:2040C0000A6842EA09020A605D491022DA77202283F822200846FCF765FDDFF894C1DCF802
:2040E000043043F08043CCF80430FCF75FFA4FF47A73B0FBF3F0534B013820228862C1F8D8
:204100002CB0C1F818A0C1F834A0C1F80CA0C1F804A0C1F81490C1F8009083F81A234FF066
:204120008062C3F880211A608AF3118862B6FCF7F7FE4548DFF83C81C0F8209100F1B4037F
:20414000C0F82431414BC0F8F430414BC0F814310223C0F82C31C0F8280100F58C70FFF75F
:204160003FF9FCF7F1FE3B4B3B493C48C3F868A003F16C02C3E91B220B225A6703F1600245
:20418000C3E91822364AC3E91633FCF7EFFE21483449006833682A68B3FBF1F3B2FBF1F247
:2041A000B0FBF1F13048FCF7E1FE4B4698F83D20B8F83010D8F82C00FCF768FCD8F8341053
:2041C0000846FCF7EFFC4FF440434B640B68D8F838B043F080030B60D8F84030CB6298F8F5
:2041E0003C304B450CBF07230623BBF1030F00F29D80DFE81BF0930015011D01250100BF5A
:20420000001BB700006CDC0278530008485600204C56002050560020000001406830002070
:204220009C410020B8520020A4520020444200200004002000ED00E00003FA05001000E0B8
:204240000054014000E100E020570020D102000879010008101D0020B3530008DF5500087D
:20426000A553000840420F00E855000800380140002004E0A02F0020C3F30323052B16D901
:204280000D2B14D00F2B03F1020208BF1422E16AE36ABD4813F0804FC1F30311BB4B01F1A4
:2042A000010108BF0346B3FBF1F3534335E60022EDE7B74B37E60D2A02D153435B083FE66C
:2042C0000E2A01D11B013BE61F2A0CBFC3EB431302FB033334E6AF4B32E6AF4B994508D16F
:2042E000E36943F40033E361B2FBF1F2C9F8082076E6AA4B994503D1E36943F48023F2E749
:20430000A74B994503D1E36943F40023EBE7A54B9945E9D1E36943F48013E4E78A6942EAF9
:2043200003138B610B6A43F001030B620B68D8F8489043F001030B600846FCF737F9CB6AFF
:204340000133B0FBF3F08145B0FBF9F301F1340098BF03F1FF334FF000094FF0010A8B621C
:20436000C1F82490C1F814A040F82B90D8F83820FF23C8F8443040F822306320FDF790F968
:20438000894ADFF85882536843EA0A035360D8E9010BFCF745FB59460322FCF7B9F8C36B5B
:2043A0000AFA0BFA23EA0A03C363FCF7E7FB03237E4819464A46FCF769FB03234A460421D2
:2043C000FCF764FB03234A460521FCF75FFB03234A460621FCF75AFB03234A460721FCF76C
:2043E00055FBD8F80030724A934231D1A26942F48052A2614FF441721A6000225A606C4AC2
:2044000093420CBF316829686A4AB1FBF2F2202A2DDC102A40F3B2801A6842F0200229E0BD
:204420008A6942EA03338B610B6A43F010037CE7CA6942EA0313CB610B6A43F4807374E782
:20444000CA6942EA0333CB610B6A43F480536CE7594A934204D1E26942F48042E261C9E746
:20446000564A9342C6D1E26942F40042F6E71A6842F028021A601A68514842F040021A602F
:20448000FCF764F8D8F80030D8F814200C33936042F2820313600838FCF758F8D8F80030E8
:2044A000D8F80C200C339360FCF73AFD6620FCF73FFBFCF747FBFCF761FB00BF00BF00BF30
:2044C00000BF9920FCF734FBFCF73CFBFCF756FBFCF73AFD0120FDF7E3F8AB20FCF728FBD9
:2044E000FCF730FB0020FCF72DFB0020FCF72AFB0020FCF727FB0020FCF724FB9F20FCF712
:204500003DFBFCF715FBFCF71DFB0020FCF71AFB01020020FCF716FB084301020020FCF7A5
:2045200011FB0843FCF72AFB264B984265D00233984267D0244B1B68013366D000210A4679
:20454000224B234C1960234B23481A60FCF70EFD2046FCF765FA08221146FBF7D9FFE36867
:2045600043F48073E3600720FDF79AF8A3686FEA132313F001044BD0FEF790FF082A2FDDA2
:204580001A6842F0180275E7001BB700006CDC0200093D0000127A000044004000480040F7
:2045A000004C00400050004000000140000C01400030014000EA320600380040003C0040CA
:2045C000403000201640EF00006000087C5600200008014078560020305600082C3000206B
:2045E000042A03DD1A6842F0100243E7022A7FF742AF1A6842F008023CE74FF480614FF4E2
:2046000080529DE74FF40061F9E7B048FEF7C6FEAF4D15953846FCF7A5F9002802DAAD4861
:20462000FFF7A6F8AC4B53F8202002B11470AB49AB4C43F820100022AA4B0A702363394641
:2046400004A80495FDF77AF9002840F02081159D049925602046FDF71FFB002840F017817D
:2046600094F92B30002B08DBA379DA0640F10F812878E169FCF742FBA060EB889848A380F7
:204680000021FDF7C8FA002840F00181DFF85082954D39464046FCF77FF9002840F0F9809D
:2046A0004046FDF723FD10F0FB0040F0F280D4F818902668A875B9F1000F71D0E36A013329
:2046C0000BD0D6F80CE0DFF83CC23EF81030002B40F0E18028440023837595F91600E169C9
:2046E00083B20193002301F1FF3B9C461BF9012F202A0CF1010C36D0052A08BF6FF01A02B1
:20470000BCF1090F0ED1019828B905EB030E4FF02E008EF8160005EB030E4FF02E008EF87D
:204720000900013305EB030E01988EF80920C8B95FFA82FEAEF1410ABAF1190F0ED8BCF149
:20474000080F087B8CBF4FF0100A4FF0080A10EA0A0F1CBF0EF1200E4FFA8EF205EB030EE5
:204760008EF816200133BCF10B0FBFD1019A32B9EA18019890750A7B002A08BF00232B44C4
:2047800000225A72CB7A2B7201F11C00FCF77AF8286001F11600FCF775F8E880000CA8804A
:2047A000236903F1200BB9F1000F16D0BBF5001F13D2CBF30B0ABAF1000F40F0BC80616938
:2047C00009F10103A361002940F0A0803389B3EB5B1F00F2B0800023A36195F91630002B42
:2047E00000F07B8300234149206B1A46FCF76EF800283FF44EAF3D493D48FCF7B7FB3B4B4C
:204800000593012208A905A8FDF798F8002840F0D782089E059915963846FDF73DFA00288A
:2048200040F0CE829DF97F30324C002BC0F2C3829DF85A5015F0100540F0B982336B1C99FC
:20484000236261623078FCF759FAA06001F11C00FCF718F8F388A38001232382E0602660E4
:20486000E56165614FF4805304F12802013B02F8015BFBD1D4F80CA0BAF1000F61D1FDF741
:2048800045FD1A491C48FCF771FB1C48C8E6002323601B48C4E67F2B10D9DFF86CA0002154
:2048A0003AF802BB5B458AB203D001318029F7D10A4602F1800313F0FF0305D0013081283D
:2048C00002D00CF8013F00E7002003E717560008AC5500084F560008881D0020241E00207F
:2048E000C81C0020585600088C1D0020A21D002040570008A00C002060560008925600083D
:204900001D570008A11D00200C5800087389013B13EA1B330FD13046FDF726F9831E04330D
:204920000146B6D8B3699842BFF455AF60613046FBF7AAFFA06134365644C4F810B0E6615B
:204940004BE7BAF17F0F01D88C4869E6BAF5D03F01D98B4864E68B4D8B4B6B6003F1883313
:204960006B608A4B01938A4B8A484AF6AA221A6015A9FCF711F8637C184310F0FF0074D19E
:20498000237CDB0771D5E6686369DFF820B2F61AB6F5806F28BF4FF48066564528BF5646B5
:2049A0008146002E50D12B6823F400432B60FCF7B7FA754B6B6003F188336B603C23EB6016
:2049C000FCF708F809F10307BF080646002840F0C6802B6943F002032B61019B6B612B69DB
:2049E00043F040032B61FBF7F5FF2B6923F002032B610646002840F0B280019BDFF8AC8121
:204A000003EB8703019F0293029B9F4200F0AA8058F8042B0392FBF7DDFF039A834670B9E0
:204A2000296941F0010129613A60FBF7D3FF2A6922F001022A618346002800F09C805648FB
:204A4000FCF7D8F95E468DE06169C1F30B03002B71D1159A5389013B13EA113317D141B99E
:204A6000A06801280ED802236374FBF7CDFF4B48CCE5A1692068CDE90223FDF775F8DDE98D
:204A80000223EEE7471C01D10123EDE7A061A16902931046FBF7F8FE0028E4D0029BB6F5ED
:204AA000805F03EB00082CD3528903EB163191424FEA163788BFD71AFAB259464046FCF7BD
:204AC00029FD0028E0D194F91030002B07DB3F0363693B44BB446361B944F61B61E7E3690B
:204AE000A3EB08039F42F2D90BEB03332C495A1E03F6FF7311F8010B02F8010F9342F9D12F
:204B0000E5E7E069804514D094F91030002B09DA23490122FCF700FE0028B5D1237C03F03C
:204B20007F0323741E4901224046FCF7F3FC0028AAD1C4F81C806369194AC3F30B03C3F5C4
:204B40008057B742134428BF37460BF1FF32D91913F8010B02F8010F9942F9D1B8E71148ED
:204B6000FCF748F9FBF750FFFCF7EEF906B3FBF74BFF0D484AE5043746E700BFA256000846
:204B8000AD56000800200240230167450060000800300040A00C0020DA560008BC560008E2
:204BA000C80C0020C7560008ED560008A00800209148FCF7DBF9019BBAEB090A4B440193B2
:204BC0007FF4D1AEFBF720FFFDF7A0FB8B4B0793022206A907A8FCF7B1FEDDF81880CDF87D
:204BE000208000285AD1079908A8FDF755F8002854D19DF94B30002B50DB9DF82640E0079B
:204C00004CD40F9998F80000FCF778F8E106064637D413990C9B089C01934A1C04D008A826
:204C2000FCF7F9FF002839D1E5274FF001090E992046FCF72EFE88BB0F9B1F7084F803904B
:204C40000C9D019BAB4240F21E810E9ADDF820B020351AB3B5F5001F20D2C5F30B0ABAF1AF
:204C6000000F08D10D9901320E92C9B9BBF80820B2EB551F12D90BF1340050440C950F9076
:204C8000D5E71790514615A8CDF85480FCF7C3FF20B915A8FDF72AFA0428BAD0584A12E116
:204CA000BBF80A20013A12EA1532E4D15846FCF75BFF821E04320146F0D8DBF81820904237
:204CC000ECD20D905846FBF7DFFD0E90D3E70128E4D0431CE2D0012DE0D9A3699D42DDD246
:204CE0002378022B3ED0032B4AD0012BD6D1616A05EB550301EB133120460193FCF7C9FDCD
:204D00000028CBD1019B03F1010BC3F30B0315F001051CBFF85C00F00F00F854616A0123FB
:204D2000E37001EB1B312046FCF7B3FD0028B5D1CBF30B0B1DB917F80B0000F0F00007F88E
:204D40000B000123E370D4E90532911E8B4205D201336361237943F0010323719642C0F0A3
:204D6000A180A8E0616A204601EBD521FCF791FD002893D109EA45057B1978555870E0E73D
:204D8000616A204601EB9521FCF783FD0346002884D10AEA85057A191046FBF773FD000E30
:204DA00000F0F0007B5553709370D070C9E720601249144867E5206006200146124862E57C
:204DC000124B002204281A60F7D1F1E7636823F0F0036360636823F0030343F0020363609B
:204DE0000B4B626802F00C02082A3FF472A8013BF7D1FFF76EB800BFF9560008A21D0020FF
:204E0000555400086F5600087E560008A00C00209F860100D4F8C030314A43F00103C4F81C
:204E2000C030D4F8E43043F00063C4F8E4302D4B5A601A6842F040021A60E36A43F0804357
:204E4000E362E36A23F48033E362E36A23F00F0343F00503E362636843F48033636063687C
:204E600023F0005323F4701343F480136360236843F0807323601C4B22689001A6D4013B39
:204E8000FAD1FFF726B8B6B1012E089C3FF406AFA3699E42BFF402AF04F1340740F6FE7924
:204EA00040F6FC7A31460898FCF75EFE3546064600287FF40CAF4046FDF7D6F90B4A0C4BCE
:204EC000002818BF1A460B490B48FCF74FF81B20FCF7E6FB0948FFF7A3BB0948FFF7A0BB3C
:204EE0007FBB1C2000C800409F860100DC55000855540008A21D0020FB5600080F5700087E
:204F00002E570008474B484A2DE9F34700200021C3E90001C3E91633444B454D454E1E617A
:204F20004FF4E131C3E900124349C5F894300322C3E905214FF00208404ADA61C3E9026836
:204F400005F58053002405F198020127C3E92622C3E92944C3E92B4483F8A0704FF00F099E
:204F600005F1940303F58550354ACDF80090FBF71DFFD5F89410CDF8009023462246C9692C
:204F80003048FBF713FF304B2B60C5E92144C5E923442E4D21461C22281D00F081F82C4B22
:204FA0002B602C4B85F829400A20C5E90C034FF0FF3AFF23C5E91034C5E908A4C5E90E84FC
:204FC000EE62C5F848A0244B244D254AC5F80890C5E9003609262B4605F10C0021490096B2
:204FE000FBF7E4FE2B462049009605F11400FBF7DDFE1E4B1E4AEC61C3E90527C3E90344AD
:205000001C4B1D4A1A60C3E92144C3E923441B4BC3E94044C3E94244194BA3F808A002B003
:20502000BDE8F087101D002000440040604200206830002000080140800002406C00024050
:205040005B0D0008A4410020A85A0008A02F00207C5A0008002C0140003001402C300020AA
:20506000812C0008300002401C0002404C30002063000100AC410020905A0008C852002072
:20508000B85200200A44914200F1FF3300D1704710B511F8014B03F8014F9142F9D110BD4B
:2050A00002440346934200D1704703F8011BF9E72DE9F047089E0D4604460F46002B4AD1E2
:2050C0008A42944665D9B2FA82F343B102FA03FCC3F120029F4020FA02F217439C404FEAAA
:2050E0001C4E1FFA8CF5B7FBFEF1220C0EFB117742EA074201FB05F090420AD91CEB020226
:2051000001F1FF3780F01C81904240F2198102396244121AA4B2B2FBFEF00EFB102244EA55
:20512000024400FB05F5A5420AD91CEB040400F1FF3280F00781A54240F2048164440238C1
:2051400040EA0140641B00211EB1DC400023C6E90043BDE8F0878B4208D9002E00F0ED80EF
:205160000021C6E900050846BDE8F087B3FA83F1002949D1AB4202D3824200F2F880841AFE
:2051800065EB030201201746002EE2D0C6E90047DFE702B9FFDEB2FA82F3002B40F090807C
:2051A0008A1A4FEA1C471FFA8CFE0121B2FBF7F507FB1520220C42EA00420EFB05F09042AE
:2051C00008D91CEB020205F1FF3802D2904200F2CB804546121AA4B2B2FBF7F007FB1022FE
:2051E00044EA02440EFB00FEA64508D91CEB040400F1FF3202D2A64500F2BB801046A4EB66
:205200000E0440EA05409FE7C1F120078B4022FA07FC4CEA030C05FA01F420FA07F3FD403A
:205220004FEA1C492343B5FBF9F81FFA8CFE09FB18551C0C44EA054408FB0EF5A54202FA2D
:2052400001F200FA01F00BD91CEB040408F1FF3A80F08880A54240F28580A8F1020864446A
:20526000641B9DB2B4FBF9F309FB134445EA044403FB0EFEA64508D91CEB040403F1FF35E6
:205280006CD2A6456AD9023B644443EA0843A3FB0295A4EB0E04AC42C846AE4656D353D033
:2052A00056B1B0EB080264EB0E0404FA07F7CA40CC401743C6E9007418460021BDE8F087B7
:2052C000C3F1200102FA03FC20FA01F225FA01F19D402A434FEA1C471FFA8CFEB1FBF7F0C4
:2052E00007FB1015110C41EA054100FB0EF58D4204FA03F408D91CEB010100F1FF382FD224
:205300008D422DD902386144491B92B2B1FBF7F507FB151142EA014205FB0EF1914208D94F
:205320001CEB020205F1FF3816D2914214D9023D6244521A45EA004138E73146304608E7D1
:205340003946E6E61046FBE64845A9D2B9EB020865EB0C0E013BA3E74546EAE72B4694E79D
:205360004046D1E7D0467BE7023D624432E708460AE76444023842E700000000000000002F
:2053800001020304060708090000000001020304202C0050696E67004F6B0D0A0056657203
:2053A00073696F6E0032303233313132355F303032340049525043425F426F6F746C6F61E0
:2053C0006465720025532025530D005265626F6F7400436D64556E6B6E6F776E0D0A0023CC
:2053E0004C6F636B4661696C0023556E6C6F636B4661696C004F7574204F662052616E67E8
:20540000653A20416464722025752C204C656E2025750D0057726F6E67206C656E677468B7
:205420000D00234C6F636B4952514661696C0023556E6C6F636B4952514661696C002345EC
:205440006E7465724952514661696C00234C656176654952514661696C00737461636B207D
:205460006F766572666C6F77004F5447204649464F206D656D6F7279206F766572666C6FB4
:20548000770023426164537461746553002342616453746174654900426164207674207002
:2054A0006172616D730074696D657220616C72656164792061726D65640074696D6572204B
:2054C0006E6F7420736574206F7220616C72656164792074726967676572656400222A3AA9
:2054E0003C3E3F7C7F002B2C3B3D5B5D00235450206E756C6C70747200616C726561647997
:20550000207472616E736D697474696E670045503020494E206572726F7200455030204953
:205520004E20696E76616C696420737461746500436D6453656E64446961676E6F73746995
:20554000630D00526376206661696C0D005264206661696C0D004D53436D64202558206E89
:205560006F7420737570706F727465640D00696E636F6E73697374656E742073656D6170DE
:20558000686F7265007072696F72697479206F726465722076696F6C6174696F6E005374E3
:2055A000617274696E67205553420D0A005573622072656164790D00417070206973206537
:2055C0006D7074790D0A005F756E68616E646C65645F657863657074696F6E004F6B000DE3
:2055E00025532025530D0A00414842467265713D25754D487A3B2041504231467265713D1B
:2056000025754D487A3B2041504232467265713D25754D487A0D0041707020656D70747990
:205620002C20466C617368206572726F720D0A00466C6173683A20257520736563746F723D
:2056400073206F662025752062797465730D004653206572726F720066772A2E62696E0083
:20566000456D7074792066696C652025530D0025533A206E6F7420666F756E640D004F708B
:20568000656E46696C65206572726F723A2025750D0046696C65204F70656E204572726F82
:2056A0007200456D7074792046696C6500546F6F204C617267652046696C65005265616470
:2056C000206572726F7200466C617368206572617365206572726F720D00466C61736820FD
:2056E0007772697465206572726F720D005772697465206572726F72002E000D0A44656C79
:205700006574696E672025533A2025530D0A00466C617368696E6720646F6E650046696CE4
:205720006520736561726368206661696C0066772A2E62696E206E6F7420666F756E640097
:20574000466F756E643A2025530D00808182838485868788898A8B8C8D8E8F90919293941C
:2057600095969798999A9B9C9D9E9F808182838485868788898A8B8C8D8E8FB0B1B2B3B499
:20578000B5B6B7B8B9BABBBCBDBEBFC0C1C2C3C4C5C6C7C8C9CACBCCCDCECFD0D1D2D3D479
:2057A000D5D6D7D8D9DADBDCDDDEDF909192939495969798999A9B9C9D9E9FF0F0F2F2F45B
:2057C000F4F6F6F8F9FAFBFCFDFEFF008004021F0000004F737472616E6E614D617373533B
:2057E000746F7261676500000000003030303201030507090E10121416181C1E00000000A0
:2058000000000000000000030080830010041104120413041404150416041704180419048D
:205820001A041B041C041D041E041F04200421042204230424042504260427042804290410
:205840002A042B042C042D042E042F043004310432043304340435043604370438043904F0
:205860003A043B043C043D043E043F04912592259325022524256125622556255525632586
:20588000512557255D255C255B251025142534252C251C2500253C255E255F255A255425B5
:2058A00069256625602550256C25672568256425652559255825522553256B256A251825D2
:2058C0000C25882584258C2590258025400441044204430444044504460447044804490461
:2058E0004A044B044C044D044E044F040104510404045404070457040E045E04B000192246
:20590000B7001A221621A400A025A000000000009D3200084D2400080200000040000000C2
:20592000400000000200000012034F0073007400720061006E006E006100000000000100C9
:205940000403090409026200030100803209040000020806500007050302400000070583C3
:2059600002400000080B01020202010009040100010202010005240010010524010002044C
:205980002402020524060102070582030800FF09040200020A0000000705010240000007A4
:2059A00005810240000012011001EF02014083044C370002010203010000000000000000B6
:2059C000030000000000000008000000010000004059000828590008EA590008E059000805
:2059E0000803310032003400000026035600690072007400750061006C0043004F004D0016
:205A0000200061006E00640020004D005300440000000000392C00085D2C0008020000002F
:205A20004000000040000000020000000000000000000000FF000000010000006300000081
:205A40000000000000000000000000000000000001000000630000000000000002000000E0
:205A600000000000000000000B0C0D0E0F101138393A3B3C00000000000000000133000866
:205A8000C50900084D1400080000000000000000A924000839250008D51500088D250008E0
:205AA000000000000000000001060008990D0008C1090008C10900086100620063006400FB
:205AC000650066006700680069006A006B006C006D006E006F0070007100720073007400FE
:205AE000750076007700780079007A00A100A200A300A500AC00AF00E000E100E200E3006D
:205B0000E400E500E600E700E800E900EA00EB00EC00ED00EE00EF00F000F100F200F300CD
:205B2000F400F500F600F800F900FA00FB00FC00FD00FE00FF00010103010501070109018C
:205B40000B010D010F01110113011501170119011B011D011F012101230125012701290195
:205B60002B012D012F0131013301350137013A013C013E01400142014401460148014B016B
:205B80004D014F01510153015501570159015B015D015F01610163016501670169016B0135
:205BA0006D016F0171017301750177017A017C017E019201B103B203B303B403B503B603E2
:205BC000B703B803B903BA03BB03BC03BD03BE03BF03C003C103C303C403C503C603C703A8
:205BE000C803C903CA0330043104320433043404350436043704380439043A043B043C044F
:205C00003D043E043F0440044104420443044404450446044704480449044A044B044C04FC
:205C20004D044E044F045104520453045404550456045704580459045A045B045C045E04CE
:205C40005F0470217121722173217421752176217721782179217A217B217C217D217E21F9
:205C60007F2141FF42FF43FF44FF45FF46FF47FF48FF49FF4AFF4BFF4CFF4DFF4EFF4FFF5B
:205C800050FF51FF52FF53FF54FF55FF56FF57FF58FF59FF5AFF000041004200430044005E
:205CA000450046004700480049004A004B004C004D004E004F00500051005200530054001C
:205CC000550056005700580059005A002100E0FFE1FFE5FFE2FFE3FFC000C100C200C3002A
:205CE000C400C500C600C700C800C900CA00CB00CC00CD00CE00CF00D000D100D200D300EC
:205D0000D400D500D600D800D900DA00DB00DC00DD00DE0078010001020104010601080175
:205D20000A010C010E01100112011401160118011A011C011E0120012201240126012801C3
:205D40002A012C012E01300132013401360139013B013D013F0141014301450147014A0199
:205D60004C014E01500152015401560158015A015C015E01600162016401660168016A0163
:205D80006C016E01700172017401760179017B017D019101910392039303940395039603CA
:205DA0009703980399039A039B039C039D039E039F03A003A103A303A403A503A603A703C6
:205DC000A803A903AA0310041104120413041404150416041704180419041A041B041C046D
:205DE0001D041E041F0420042104220423042404250426042704280429042A042B042C041B
:205E00002D042E042F040104020403040404050406040704080409040A040B040C040E045C
:205E20000F0460216121622163216421652166216721682169216A216B216C216D216E2157
:205E40006F2121FF22FF23FF24FF25FF26FF27FF28FF29FF2AFF2BFF2CFF2DFF2EFF2FFF69
:205E600030FF31FF32FF33FF34FF35FF36FF37FF38FF39FF3AFF000038F2FF7F010000003D
:205E800000C20100000008000100000000000000000000000F000000000000000000000027
:205EA0000F00000000000000000000000F00000000000000000000000F00000000000000B5
:205EC000000000000F00000000000000000000000F00000000000000000000000F00000095
:205EE00000000000000000000F00000000000000000000000F000000000000000000000084
:205F00000F00000000000000000000000F00000000000000000000000F0000008C56002052
:205F2000FFFFFFFFFFFFFFFFFFFFFFFFFFFFFFFFFFFFFFFFFFFFFFFFFFFFFFFFFFFFFFFF81
:205F4000FFFFFFFFFFFFFFFFFFFFFFFFFFFFFFFFFFFFFFFFFFFFFFFFFFFFFFFFFFFFFFFF61
:205F6000FFFFFFFFFFFFFFFFFFFFFFFFFFFFFFFFFFFFFFFFFFFFFFFFFFFFFFFFFFFFFFFF41
:205F8000FFFFFFFFFFFFFFFFFFFFFFFFFFFFFFFFFFFFFFFFFFFFFFFFFFFFFFFFFFFFFFFF21
:205FA000FFFFFFFFFFFFFFFFFFFFFFFFFFFFFFFFFFFFFFFFFFFFFFFFFFFFFFFFFFFFFFFF01
:205FC000FFFFFFFFFFFFFFFFFFFFFFFFFFFFFFFFFFFFFFFFFFFFFFFFFFFFFFFFFFFFFFFFE1
:205FE000FFFFFFFFFFFFFFFFFFFFFFFFFFFFFFFFFFFFFFFFFFFFFFFFFFFFFFFFFFFFFFFFC1
:020000040800F2
:2060000000040020A1610008A3610008A3610008A3610008A3610008A3610008A36100080A
:20602000A3610008A3610008A361000851B90008A3610008A3610008A3610008A3610008FA
:20604000A3610008A3610008A3610008A3610008A3610008A361000885BD0008C5BD000824
:2060600005BE000845BE000885BE000845BF000871BF00089DBF0008CDBF0008FDBF0008FF
:206080002DC000085DC00008A3610008A3610008A3610008A3610008A3610008C5BE00081F
:2060A000A3610008A361000871B90008A361000879C10008A3610008A3610008A361000824
:2060C000A3610008A3610008A3610008A3610008A3610008A3610008A3610008A361000860
:2060E00005BF0008A3610008A3610008A3610008A3610008A3610008A3610008A361000880
:20610000A3610008A3610008A3610008A3610008A3610008A3610008A3610008A36100081F
:206120008DC00008B9C00008E5C0000815C1000845C10008A3610008A3610008A3610008CC
:20614000A3610008A3610008A361000821BA0008F1D00008DDD000080000000000000000BA
:206160002DE9F04F2DED108AC1F80CD0C3689D46BDEC108ABDE8F08F04F0D2FE002383F3AF
:2061800011882846A0474FF0000301F00BFB04F0B7FE04F0D5FE04F0C3FE00DFFEE70000EF
:2061A00002E005F033FCC04672B6304880F308882F4880F309882F484EF60851CEF20001E0
:2061C000086040F20000CCF200004EF63471CEF200010860BFF34F8FBFF36F8F40F20000E3
:2061E000C0F2F0004EF68851CEF200010860BFF34F8FBFF36F8F4FF00000E1EE100A4EF60B
:206200003C71CEF200010860062080F31488BFF36F8F4FF055301849144A91423CBF41F839
:20622000040BFAE71549124A91423CBF41F8040BFAE71349134A144B9A423EBF51F8040B74
:2062400042F8040BF8E700201049114A91423CBF41F8040BFAE70F4C0F4DAC4203DA54F87D
:20626000041B8847F9E705F0EFBF00000004002000080020006000080000002000040020B5
:20628000F4F2000800080020F8080020F80800208C5B00205061000854610008034613F8D7
:2062A000012B002AFBD1181A0138704753B94AB9002908BF00281CBF4FF0FF314FF0FF30BB
:2062C00000F00CB8ADF1080C6DE904CE07F0EEFBDDF804E0DDE9022304B07047704700BFCB
:2062E00030BFFDE782B00190019B5A1E0192002BFAD102B070470000034B53F820305B6856
:2063000003B11847704700BF6C19002030B5264A264C050102EB00135159D960430169BB37
:206320004FF0A0424FF40021C2F8101954F820209268012A10D14FF0A04203F1A041D2F8A3
:20634000082812F4807FD1F8002914BF42F0805242F00052C1F8002903F1A043D3F800290E
:2063600042F00442C3F800294FF0A0420123D2F8341883400B43C2F8343830BD18B9402908
:2063800084BF4021116054F8201052590D69511E2944B1FBF5F142EAC14203F1A04142F0A7
:2063A0000052C1F81029C1E7282C00206C1900201E4A10B5040102EB00111359CB6018B940
:2063C000402B84BF40231360194B125953F82010CB68013A1A44B2FBF3F25343033323F0B2
:2063E0000303400143EAC24300F1A04243F0C043C2F8103B8B68012B0ED14FF0A043D3F82B
:20640000083813F4807FD2F8003B14BF43F0805343F00053C2F8003B00F1A040D0F8003B09
:2064200043F00443C0F8003B10BD00BF082E00206C190020002211464FF0FF30530103F139
:20644000A0430132042AC3F80019C3F81019C3F80809C3F8001BC3F8101BC3F8080BEDD12C
:206460004FF0A0434FF00112C3F81C287047072910B54FF00F0308D8046889008B4024EAFE
:2064800003038A401343036010BD0839446889008B4024EA03038A4013434360F4E78368C8
:2064A00003F08203022BFAD170470000144A1549536943F0030310B5536142680C2353431C
:2064C000CC18CB58BBB1104B9B56A26803F1604101F561411201D2B281F8002303F01F0180
:2064E0005B099B0003F1604303F5614301228A40C3F880211A60036800221A6010BD00BF14
:20650000001002400C080020ACED0008104B984203F564430ED00F4A90420BD002F5C05293
:20652000904207D002F58062904203D002F58062904207D1084A5B68106813F4005F18BFE7
:20654000400070475B68054A13F4806F1068F6E7002C014000340140B04D0020AC4D0020CF
:2065600030B5441E14F8015F11F8010BA5F14102192A6BB242B2A0F1410098BF2033192869
:2065800098BF2032981A01D1002DEBD130BDD0F8A434B3F5806F16D2D0F89C345A1CC0F813
:2065A0009C241970D0F89C2400F593639A4224BF00F19803C0F89C34D0F8A4340133C0F8C0
:2065C000A434002070470D2070472DE9F04385B098469DF9309001AB0646002508461F46A6
:2065E000B0FBF2F402FB1401092984462046CCB294BF3034373464B2944503F8014B05F1CA
:206600000105EDD22C46336844451B6809D33368013D1B6879573046984730B9002DF6D162
:2066200004E049463046984718B10D2005B0BDE8F0830134E7E72DE9F04F054685B014469D
:206640000E4616F9013B33B92B685B68284605B0BDE8F04F1847252B06D02A681946126862
:206660002846904788B3EFE791F90180B8F1300F0CBF8E1C4FF020084FF0000916F9011B82
:20668000A1F13002D2B2092A04D852B20A2303FB0929F3E72A2902D114F9042BF6E72E29D2
:2066A0000AD116F9011BA1F13003DBB2092BF8D92A2901D10434F4E7632936D015DC412958
:2066C00063D004DC252900F089803146B8E7532932D05829F9D1CDF800804B46102254F82D
:2066E000041B2846FFF771FFBCE7732924D015DC642901D06929E8D154F8047B002F07DAFF
:206700002B682D211B682846984700289CD17F42CDF800804B460A223946E2E77529D4D1E5
:20672000CDF800804B460A22D9E72B6814F9041B1B682846984795E7D4F800A053461F4622
:2067400013F9012B002AFAD10AF1FF3BBBF1FF3F02D01BF9011F21B9A7EB0A07A9EB0707C8
:206760000FE02B6828461B6898470028EED06BE72B6841461B6828469847013F00287FF4CA
:2067800063AF002FF4DC04349FE7D4E90093D4F80880039300274FFA88FA4FF0300B039BE6
:2067A0009F4201DB0C3490E76FB919F80710CDF800B0022310222846FFF707FF00287FF444
:2067C00043AF0137EBE7B8F1000FEED02B6851461B68284698470028E7D035E72B681B683C
:2067E000A7E700000649002331F8022B22B1824203D1044A32F8130070470133F4E700BFC8
:2068000028EE000808F000080068704783690239023B8B4283BF4389C06A01FB03000020B3
:206820007047026830B55AB111460B4611F9014BE5B21F2D0DD93A2CF7D1511C8B4202D046
:206840004FF0FF3006E092F90020302AF8D101330360002030BD10B560B103685BB11A7893
:206860005AB18288DC88944216BF0920002000230B6010BD03460920FAE71346FBE7013889
:206880000A4411F8013B00F8013F9142F9D17047024B1B6803B11847704700BFD84D00203B
:2068A000D0E9002101238B4013617047D0E9002101238B405361704710B584682046FFF7A3
:2068C00025FEE36A0133B0FBF3F08842B0FBF1F328BF03F1FF33A36200236362012363614B
:2068E00010BDD0E90E3103EB8103002282645A637047FFF7DBBF00BF70474FF0FF32C0E9C6
:20690000061103684262002202621B68184700207047D0E90E3203EB820300225A63704710
